:020000040800F2
:10000000700E0020ED0100087F290008672100081C
:100010007D29000865030008393D00080000000044
:10002000000000000000000000000000E92F0008B0
:10003000670300080000000081290008EB2F00087A
:10004000070200080702000807020008070200086C
:10005000070200080702000807020008070200085C
:10006000070200080702000807020008070200084C
:10007000070200080702000807020008070200083C
:10008000070200080702000807020008070200082C
:10009000070200080702000807020008070200081C
:1000A000070200080702000807020008070200080C
:1000B000B5300008C1300008070200080702000838
:1000C00007020008070200080702000807020008EC
:1000D00007020008070200080702000807020008DC
:1000E00007020008070200080702000807020008CC
:1000F00007020008070200080702000807020008BC
:1001000007020008070200080702000807020008AB
:10011000070200080702000807020008070200089B
:10012000070200080702000807020008070200088B
:10013000070200080702000807020008070200087B
:10014000070200080702000807020008070200086B
:10015000070200080702000807020008070200085B
:10016000070200080702000807020008070200084B
:10017000070200080702000807020008070200083B
:10018000070200080702000807020008070200082B
:10019000070200080000000007020008070200082C
:1001A000070200080702000807020008070200080B
:1001B00007020008070200080702000807020008FB
:1001C00007020008070200080702000807020008EB
:1001D0000702000807020008DFF80CD000F07AF8E8
:1001E00000480047813E0008700E00200648804706
:1001F00006480047FEE7FEE7FEE7FEE7FEE7FEE70C
:10020000FEE7FEE7FEE7FEE759300008D9010008E7
:100210002DE9F05F0546002092469B46884606463B
:10022000814640241BE0284641464746224600F0CE
:1002300041F853465A46C01A914110D31146184608
:10024000224600F028F82D1A67EB01084F46224697
:100250000120002100F01FF817EB00094E41201E7D
:10026000A4F10104DFDC484631462A464346BDE896
:10027000F09FD2B201E000F8012B491EFBD270477B
:100280000022F6E710B513460A4604461946FFF762
:10029000F0FF204610BD202A04DB203A00FA02F1CC
:1002A000002070479140C2F1200320FA03F3194364
:1002B00090407047202A04DB203A21FA02F0002106
:1002C000704721FA02F3D040C2F120029140084366
:1002D00019467047064C074D06E0E06840F0010300
:1002E00094E8070098471034AC42F6D3FFF778FF44
:1002F000AC420008CC420008F8B5194C002705466E
:10030000E770FE2829D0207838B303F052FD01268B
:1003100030B1A7700421684603F0F5FD042801D030
:10032000E67017E09DF80000A84201D0032010E01D
:100330009DF80110022901D004200AE09DF8021066
:10034000801C0844C0439DF80320C0B2824203D001
:100350000220E0700020F8BDA1700120F8BD00006F
:1003600024000020FEE770470A46282103F054BE0F
:1003700072B6FEE770B5044600F08CFA0546601CC4
:1003800002D004484068044400F084FA401BA042B4
:10039000FAD370BD040000202DE9F041040006D01E
:1003A000DFF8F48194F85C00002518B107E0012023
:1003B000BDE8F08184F85D50204600F0F9F820682F
:1003C000816921F01001816100F064FA064603277B
:1003D00005E000BF00F05EFA801B0A2811D82068F3
:1003E00080690007F6D42068816941F001018161CC
:1003F00000F050FA06460BE000F04CFA801B0A2889
:1004000006D9206E40F00100206684F85C70CEE7CB
:1004100020688069C007EFD02068816941F002013F
:1004200081612168414502D15C4960680860207C97
:1004300001282068816937D041F040018161607CEA
:1004400001282068816932D021F480418161A07C3B
:100450000128206881692DD041F480518161206894
:100460008169A26821F4407111438161206881692A
:1004700021F0A40181612068016921F0100101616E
:10048000E068012819D010B302281BD020688169C8
:1004900041F0800181612068016941F01001016132
:1004A000E06803280ED012E021F04001C6E741F4D5
:1004B0008041CBE721F48051D0E72068816941F089
:1004C000040103E02068816941F020018161207E00
:1004D000E26940066FF0FF0101EB0222A0F100701B
:1004E0001043226AA38A521E10430A0202EB0343FE
:1004F00018432368D861A068B0F5407F10D1D4E9D3
:100500000A0301EB0321401E0843216B131303EB85
:1005100001110843A18C02EB014108432168C86026
:10052000206850F8C01FE26B114301601D4A21682A
:100530001B48914200D11C481C4A914201D100F550
:10054000D460206451F8802FA38E22F4F81242EA7E
:1005500003420A6000F170016164216851F8802F44
:1005600094F8383022F0706242EA03620A6000F1C7
:10057000B001A164D831E164D831216518316165D9
:10058000D83100E020C08842FCD3A5652566012053
:1005900084F85C0000200BE7006400400065004028
:1005A00000A400400068004050A70040006C0040DC
:1005B00010B59CB00446142115A8FFF761FE542124
:1005C0006846FFF75DFE17492068884228D18014ED
:1005D000009040030E90684600F04CFB08B1FFF716
:1005E000C7FE1148816D41F000718165816D01F098
:1005F00000711A91C16C41F00201C164C06C15A96F
:1006000000F002001A904FF440501590022016900E
:1006100000201790189009201990044800F008F85D
:100620001CB010BD006800400010024000040048EB
:100630002DE9F04FDFF82092002301260324A9F1D1
:10064000040B85B00F2709F1040AABF1040EFAE0A0
:1006500006FA03F52A407CD091F804C00CF0030C94
:10066000BCF1010F02D0BCF1020F26D1D0F808C0B6
:10067000CDF800C04FEA430C04FA0CF8CDF810C0D6
:10068000DDF800C02CEA080CCDF800C0D1F80C80D1
:10069000DDF810C008FA0CF8DDF800C048EA0C08D4
:1006A000C0F80880D0F804C02CEA050C0D79C5F319
:1006B00000159D4045EA0C0545600D79ED43AD07F9
:1006C0000ED0C5684FEA430804FA08FC25EA0C0579
:1006D000D1F808C00CFA08FC4CEA050CC0F80CC0B4
:1006E0000D7905F00305022D16D1DD0800EB850C10
:1006F000CDF808C0DCF820805D074FEAD56C07FA1A
:100700000CF528EA05080D6905FA0CF5DDF808C0B6
:1007100045EA0805CCF8205005684FEA430CCDF8AF
:1007200008C004FA0CFC25EA0C0591F804C00CF092
:100730000308DDF808C008FA0CF848EA0508C0F814
:1007400000804D6815F4403F7CD0444DD5F860C022
:1007500000E077E04CF0010CC5F860C02D6E23F08E
:10076000030C05F0010500953D4D65440295AD680B
:100770004FEA837C4FEA1C7807FA08FC25EA0C054F
:10078000B0F1904F06D0DFF8DCC0604505D14FF0E6
:10079000010C20E04FF0000C1DE0DFF8CCC06045FC
:1007A00002D14FF0020C16E0DFF8C0C0604502D164
:1007B0004FF0030C0FE0DFF8B8C0604502D14FF0F6
:1007C000040C08E0DFF8ACC0604502D14FF0050C26
:1007D00001E04FF0060C0CFA08FC4CEA050C029DF7
:1007E000C5F808C0D9F80050CC46D1F8048095432C
:1007F0005FEAC82800D51543CCF80050DAF800505D
:10080000D446D1F8048095435FEA882800D5154383
:10081000CCF80050DBF80050DC46D1F8048095435A
:100820005FEA883800D51543CCF80050DEF8005058
:10083000F446D1F8048095435FEAC83800D51543E3
:10084000CCF800505B1C0A6832FA03F57FF400AF65
:1008500005B0BDE8F08F0000080401400010024020
:10086000000001400004004800080048000C004857
:100870000010004800140048426921EA02030A40BF
:1008800043EA0241816170470AB181617047816228
:100890007047000001488068704700000400002095
:1008A00090F84120202A24D190F84020012A20D01D
:1008B000012280F84020242280F841200268136839
:1008C00023F0010313600268136823F4805313605C
:1008D000026813680B43136001680A6842F0010262
:1008E0000A60202180F84110002180F8401008465D
:1008F00070470220704790F84120202A22D190F8BA
:100900004020012A1ED0012280F84020242280F8B5
:1009100041200268136823F0010313600268136822
:1009200023F4706343EA0121116001680A6842F010
:1009300001020A60202180F84110002180F8401057
:10094000084670470220704770B5040004D094F840
:100950004100002510B106E0012070BD84F8405030
:10096000204600F04FF8242084F8410020680168F8
:1009700021F0010101606068216820F07060086169
:100980002068816821F400418160E0680128A06846
:1009900030D040F4044021688860E0680228206874
:1009A00041682AD021F40061416020684168144AFE
:1009B000114341602068C16821F40041C160D4E95D
:1009C00004010843A16940EA01202168C860D4E914
:1009D00007010843216808602068016841F00101AF
:1009E00001606564202084F84100256384F842504A
:1009F000002070BD40F40040CDE741F40061D3E732
:100A00000080000210B59CB00446142115A8FFF721
:100A100037FC54216846FFF733FC184920688842A8
:100A20002AD18020009000200890684600F022F92A
:100A300008B1FFF79DFC124CE06C40F00100E0644F
:100A4000E06C15A900F001001A904FF44070159069
:100A5000122016900120179002201890042019905F
:100A60004FF09040FFF7E4FDA06D40F48000A065DA
:100A7000A06D00F480001A901CB010BD005800401A
:100A8000001002400248816842681144816070474A
:100A90000400002010B50024032000F073F80F209C
:100AA00000F008F808B1012401E000F025F8204624
:100AB00010BD000070B50E4E05460024706898B158
:100AC0004FF47A71B1FBF0F00A490968B1FBF0F01C
:100AD00000F0E0FD40B9102D06D200222946501E3C
:100AE00000F030F8356000E00124204670BD0000C1
:100AF00004000020100000200A4882B0016E41F07E
:100B000001010166016E01F001010091816D41F06A
:100B100080518165806D00F08050009002B000F03F
:100B2000A1B8000000100240002809DB00F01F02FD
:100B3000012191404009800000F1E020C0F800113F
:100B400070470000F0B40E4B1B680C46C3F3022341
:100B5000C3F10705042D00D90425191D072901D269
:100B6000002300E0DB1E012606FA05F1491E2140A4
:100B700099409E40761E16403143F0BC03F0FAB80F
:100B80000CED00E0064900F0070208684FF6FF038D
:100B9000184040EA0220034A1043086070470000F2
:100BA0000CED00E00000FA052B492C4B0A683221BD
:100BB0004A432B4940B1B0F5007F086829D020F4A2
:100BC000C06040F480602CE00868C0F34120022837
:100BD00004D051F8800F20F4807022E0D1F880001A
:100BE00020F48070C1F88000086820F4C06040F4F0
:100BF00000700860B2FBF3F0401C00E0401E4A6940
:100C0000520501D50028F9D1486940050AD50320CD
:100C10007047C0F34120022806D051F8800F40F4FD
:100C20008070086000207047D1F8800040F4807028
:100C3000C1F88000086820F4C06040F400700860CB
:100C4000B2FBF3F0401C00E0401E4A695205DBD5C0
:100C50000028F9D1D8E700001000002040420F0022
:100C6000007000400248816841F480418160704713
:100C7000007000402DE9F843044600680026BB4D93
:100C800000035ED5A86D0027C00008D4A86D40F011
:100C90008050A865A86D012700F080500090DFF813
:100CA000D092D9F8001041F48071C9F80010FFF714
:100CB000F1FD804606E000BFFFF7ECFDA0EB080069
:100CC00002282BD8D9F80000C005F5D5D5F890003A
:100CD00010F4407014D0216D814211D0D5F89000ED
:100CE000D5F8901020F4407041F48031C5F8901090
:100CF000D5F8901021F48031C5F89010C5F8900017
:100D0000C00711D0FFF7C6FD804641F2883907E0E1
:100D1000FFF7C0FDA0EB0801494501D903260BE010
:100D2000D5F890008007F3D5D5F89000216D20F418
:100D300040700843C5F890001FB1A86D20F08050A6
:100D4000A8652078C00707D0D5F88800616820F032
:100D500003000843C5F888002078800707D5D5F838
:100D60008800A16820F00C000843C5F888002078AE
:100D7000400707D5D5F88800E16820F03000084327
:100D8000C5F888002078000707D5D5F888002169C4
:100D900020F0C0000843C5F888002078C00607D5B9
:100DA000D5F88800616920F440700843C5F88800D0
:100DB0002078800607D5D5F88800A16920F4406026
:100DC0000843C5F888002078400607D5D5F8880084
:100DD000E16920F440500843C5F8880020780006F7
:100DE00007D5D5F88800216A20F440400843C5F8AB
:100DF00088002088C00507D5D5F88800616A20F4EE
:100E000040300843C5F888002068800307D5D5F82E
:100E10009C00A16A20F003000843C5F89C002088CC
:100E2000800507D5D5F88800E16A20F44020084302
:100E3000C5F88800208840050FD5D5F88800216BBB
:100E400020F440100843C5F88800206BB0F5801FDF
:100E500003D1E86840F48010E860208800050FD5D1
:100E6000D5F88800616B20F440000843C5F888007D
:100E7000606BB0F5800F03D1E86840F48010E86043
:100E80002088C0040FD5D5F88800A16B20F04070F1
:100E90000843C5F88800A06BB0F1807F03D1E868F3
:100EA00040F48010E86020884FF0006180040ED587
:100EB000D5F88800E26B20F040601043C5F8880048
:100EC000E06B884203D1E86840F48010E860208835
:100ED00040040ED5D5F88800226C20F04060104305
:100EE000C5F88800206C884203D1E86840F480107F
:100EF000E860208800040FD5D5F88800616C20F0E8
:100F000040500843C5F88800606CB0F1805F03D1A1
:100F1000E86840F48030E8602068C0030FD5D5F859
:100F20008800A16C20F040400843C5F88800A06C00
:100F3000B0F1804F03D1E86840F48030E860206869
:100F400040030FD5D5F89C00E16C20F44010084315
:100F5000C5F89C00E06CB0F5001F03D1E86840F4D0
:100F60008010E8603046BDE8F883000000100240C1
:100F7000007000402DE9F0470E4605004FF00007D5
:100F800025D0DFF8AC81D8F8000000F00F00B042A7
:100F90000CD2D8F8001021F00F013143C8F800102E
:100FA000D8F8000000F00F00B04210D12968614C61
:100FB000C80741F2883A5AD06868DFF87C91032864
:100FC00008D0022820682DD0400500282CDB012005
:100FD000BDE8F08720688001F9D5E06800F00302E1
:100FE000E068C0F30310401C032A19D0534A00BF25
:100FF000B2FBF0F0E268C2F306225043E268C2F3AB
:101000004162521C5200B0FBF2F0484517D9A0686B
:1010100010F0F00F0CD0880711D5A86840B10EE091
:10102000474AE5E78003D0E700F0B6F8484506D91F
:10103000A06820F0F00040F08000A0608027A06849
:10104000696820F003000843A060FFF723FC814695
:1010500006E000BFFFF71EFCA0EB090151453AD89E
:10106000A068696800F00C00B0EB810FF2D128682D
:10107000810714D5400703D5A06840F4E060A06064
:101080002878000705D5A06820F4605040F4E0609F
:10109000A060A068A96820F0F000084304E0802F59
:1010A00003D1A06820F0F000A060D8F800104046FE
:1010B00001F00F01B14216D9016821F00F0131434F
:1010C0000160FFF7E7FB074607E000BFFFF7E2FB21
:1010D000C11B514501D903207AE7D8F8000000F080
:1010E0000F00B042F2D12878400705D5A068E96822
:1010F00020F4E0600843A0602878000706D5A068C7
:10110000296920F4605040EAC100A06000F044F872
:10111000A1680C4AC1F30311515C01F01F01C840E2
:101120000949086009480068BDE8F047FFF7C2BCFC
:10113000002002400010024000B4C4040024F40067
:1011400000127A00944000081000002004000020E3
:101150000548064900688968054AC1F30221515CC7
:1011600001F01F01C840704710000020001002402D
:10117000A44000080548064900688968054AC1F38B
:10118000C221515C01F01F01C840704710000020CF
:1011900000100240A4400008184910B58868C0F348
:1011A00081021748012A0BD08A684310C2F38102DA
:1011B000022A06D08A68C2F38102032A03D00020E3
:1011C00010BD184610BDCA6802F00304CA68C2F315
:1011D0000312521C032C02D0B0FBF2F001E0B3FB6F
:1011E000F2F0CA68C968C2F306225043C1F34161F4
:1011F000491C4900B0FBF1F010BD00000010024096
:101200000024F4002DE9F84304007AD02078F84D4A
:10121000C00747D0A868E96800F00C0001F003019E
:101220000C2802D0082817D001E0032914D06068E8
:10123000B0F5803F17D0B0F5A02F286817D020F464
:1012400080302860286820F4802028606068E0B141
:10125000FFF720FB064614E02868800322D560686B
:101260000028D2D01EE0286840F48030EDE740F43A
:1012700080202860F7E700BFFFF70CFB801B642885
:1012800070D828688003F7D50CE0FFF703FB06460B
:1012900005E000BFFFF7FEFA801B6428F0D828683D
:1012A0008003F7D4207880074CD5A868E96800F05F
:1012B0000C0001F003010C2802D004280DD001E03D
:1012C00002290AD0E068002828682BD040F48070FA
:1012D0002860FFF7DFFA064619E02868400502D5C6
:1012E000E068002891D06868217C20F0FE4040EA48
:1012F00001606860BF480068FFF7DCFB002800D190
:1013000020E072E1FFF7C6FA801B0228B8D82868EF
:101310004005F7D56868217C20F0FE4040EA016076
:1013200068600FE020F480702860FFF7B3FA06468B
:1013300005E000BFFFF7AEFA801B0228A0D828689E
:101340004005F7D42078000729D560690028D5F832
:10135000940013D040F00100C5F89400FFF79AFA0A
:10136000064606E090E000BFFFF794FA801B0228D3
:1013700086D8D5F894008007F6D510E020F001005B
:10138000C5F89400FFF786FA064604E0FFF782FAF4
:10139000801B022878D8D5F894008007F6D42078EE
:1013A000400761D5A86D0026C00008D4A86D40F0A4
:1013B0008050A865A86D012600F0805000908E48EE
:1013C0000168C90511D40168804641F4807101604B
:1013D000FFF760FA074604E0FFF75CFAC01B02283B
:1013E00052D8D8F80000C005F6D5A068012815D05D
:1013F0000528D5F8900016D020F00100C5F890001F
:10140000D5F8900020F00400C5F89000A06841F2E3
:101410008838B8B1FFF73EFA07460EE0D5F89000DD
:1014200040F00100F0E740F00400C5F89000F5E757
:10143000FFF730FAC11B414526D8D5F89000800748
:10144000F6D50CE0FFF726FA074604E0FFF722FA8C
:10145000C11B414518D8D5F890008007F6D41EB1BD
:10146000A86D20F08050A8652078800629D5A06955
:101470000028D5F8980013D040F00100C5F8980076
:10148000FFF708FA064606E075E000BFFFF702FA2C
:10149000801B02286FD8D5F898008007F6D510E099
:1014A00020F00100C5F89800FFF7F4F9064604E0C3
:1014B000FFF7F0F9801B02285DD8D5F89800800767
:1014C000F6D4E069F0B3A968C1F3810103295DD0C6
:1014D0000228286820F08070286003D0FFF7DAF92E
:1014E00004464BE0FFF7D6F9064604E0FFF7D2F9D1
:1014F000801B02283FD828688001F7D4F4E908014E
:101500006FF00F0202EB01110843218A52044908CF
:1015100002EB4151A26841EA02210843217D4FF0CC
:101520007E42490802EB41610843217B40EAC160E9
:10153000E968324A11400843E860286840F080704A
:10154000286000E05EE0E86840F08070E860FFF747
:10155000A1F9044605E000BFFFF79CF9001B022833
:1015600009D828688001F7D54CE000BFFFF792F951
:10157000001B022802D90320BDE8F88328688001F7
:10158000F4D4E8681E490840E8603BE00128F3D045
:10159000E868226A00F00301914226D1616A00F0F6
:1015A000F0020901103991421FD1A26A00F4FE41F4
:1015B000B1EB022F19D194F82C2000F07841B1EB57
:1015C000C26F12D1218E00F4C00249084905A1F56D
:1015D0000011914209D194F8341000F0C06049081C
:1015E0004906A1F1007181420CD00120C4E700003E
:1015F0000010024004000020007000400C809F0199
:10160000FCFFEEFE0020B7E72DE9F0411D4616462F
:101610000F46040003D0D4F8880018B108E0012078
:10162000BDE8F081002084F88400204600F05CFBD7
:101630002420C4F888002068016821F001010160BD
:10164000A06A10B1204601F00DFE204602F056F9C6
:101650000128E5D02068816841F4804181602068DC
:10166000816821F4004139438160700540EA0541F9
:1016700020680268064B1A400A430260206801682D
:1016800041F0010101602046BDE8F04101F04EBE8D
:10169000FFFF00FC10B5401EB0F1807F01D3012098
:1016A00010BD4FF0E02460610F21601702F062FB73
:1016B0000020A06107202061002010BD7047704706
:1016C0007047704770477047F0B590F83C20012A8A
:1016D00043D0012580F83C50022280F83D20036869
:1016E0005A689C681E4E1F4FDFF87CC0B34203D07F
:1016F000BB4201D0634504D122F4700E4A6842EA2D
:101700000E02DFF868E002EA0E02D1F800E04EEACD
:10171000020EC3F804E00268B24212D0B2F1804F68
:101720000FD0134B9A420CD0124B9A4209D0124B55
:101730009A4206D0BA4204D0104B9A4201D0624578
:1017400004D1896824F080031943916080F83D50EA
:10175000002180F83C100846F0BD0220F0BD0000DA
:10176000002C014000340140005001408FFFFFFD7C
:101770000004004000080040000C00400040014010
:10178000704710B5040003D094F83D0010B107E095
:10179000012010BD002084F83C00204600F022F813
:1017A000022084F83D00211D206801F08FFC0120FB
:1017B00084F8480084F83E0084F83F0084F8400034
:1017C00084F8410084F8420084F8430084F844001F
:1017D00084F8450084F8460084F8470084F83D000A
:1017E000002010BD08B501681448B1F1804F14D035
:1017F000134A914220D1816D41F002018165806DD3
:10180000002200F00200009011461D20FFF79AF917
:101810001D20BDE80840FFF787B9816D41F0010147
:101820008165806D002200F00100009011461C20AF
:10183000FFF788F91C20ECE708BD0000001002400B
:101840000004004090F83D10012901D001207047AC
:10185000022180F83D100168CA6842F00102CA60A6
:1018600000681349884214D0B0F1804F11D011495B
:1018700088420ED0104988420BD01049884208D0C7
:101880000F49884205D00F49884202D00E4988424C
:1018900007D181680D4A1140062906D0B1F5803F75
:1018A00003D0016841F00101016000207047000091
:1018B000002C01400004004000080040000C0040E3
:1018C0000034014000400140005001400700010089
:1018D00070B5044690F83C00002501281CD0012674
:1018E00084F83C60022084F83D0022689068334B05
:1018F000184020F47F4090600868B0F5005F2ED05B
:1019000016DC402849D009DCD0B1102818D0202896
:1019100016D0302849D113E0022070BD50282AD0BB
:10192000602830D070280FD0B0F5805F3DD13DE009
:1019300010F00F0F39D10111A1F58031072934D8EA
:1019400022680146104625E0CB68D1E901212068D4
:1019500001F02EFC2068816841F0770109E0CB6836
:10196000D1E90121206801F023FC2068816841F45D
:10197000804181601AE0CA684968206801F02CFC47
:101980005021206806E0CA684968206801F035FCEB
:101990006021206801F016FC08E0CA6849682068E8
:1019A00001F01AFC40212068F4E7012584F83D602D
:1019B000002084F83C00284670BD000088FFCEFF60
:1019C00070472DE9F04104460068C66805694FF08C
:1019D0000007A90713D5B10711D5F91E0161012030
:1019E0002077206880698007204602D0FFF7E8FF53
:1019F00004E000F0B7F8204600F0B5F82777680754
:101A000016D5700714D521686FF004000861022014
:101A100020772068806910F4407F204602D0FFF7CD
:101A2000CFFF04E000F09EF8204600F09CF82777F6
:101A3000280715D5300713D521686FF00800086115
:101A4000042020772068C0698007204602D0FFF775
:101A5000B7FF04E000F086F8204600F084F827770E
:101A6000E80616D5F00614D521686FF0100008615D
:101A7000082020772068C06910F4407F204602D0FB
:101A8000FFF79EFF04E000F06DF8204600F06BF8D1
:101A90002777E80708D0F00706D021686FF001002B
:101AA0000861204600F060F8280601D4A80408D593
:101AB000300606D521686FF4025008612046FFF712
:101AC000FEFDE80508D5300606D521686FF4807064
:101AD00008612046FFF7F2FD680608D5700606D5B6
:101AE00021686FF040000861204600F059F8A80610
:101AF00008D5B00606D521686FF0200008612046A1
:101B0000FFF7DEFDE80208D5F00206D521686FF484
:101B1000801008612046FFF7D5FDA80208D5B00265
:101B200006D521686FF4001008612046FFF7C9FD53
:101B3000680208D5700206D521686FF4800008613C
:101B40002046FFF7C0FD28020AD5300208D52168DB
:101B50006FF4000008612046BDE8F041FFF710BEB9
:101B6000BDE8F081704770470068B0F1804F0FD139
:101B700008480188491C89B20180322904D3002118
:101B8000018005490120087080210448FEF774BED9
:101B90007047000002000020000000200004004800
:101BA000704790F88410012918D0012180F8841022
:101BB0002421C0F8881001680A680B6823F001032B
:101BC0000B6022F000510022426603681960202158
:101BD000C0F8881080F884201046704702207047B3
:101BE000704770B5044690F8840001281DD001208C
:101BF00084F884002420C4F88800206805680268FE
:101C000022F0010202602068826822F060620A43CA
:101C10008260204601F004FB206805602020C4F8A3
:101C20008800002084F8840070BD022070BD70B56B
:101C3000044690F8840001281DD0012084F8840017
:101C40002420C4F8880020680568026822F0010298
:101C500002602068826822F060420A438260204667
:101C600001F0DEFA206805602020C4F8880000201A
:101C700084F8840070BD022070BD704710B5040068
:101C800003D0D4F8880010B107E0012010BD002077
:101C900084F88400204600F027F82420C4F8880047
:101CA0002068016821F001010160A06A10B120469E
:101CB00001F0D8FA204601F021FE0128E6D0206884
:101CC000416821F4904141602068816821F02A0137
:101CD00081602068016841F0010101602046BDE893
:101CE000104001F023BB00002DE9F0479CB00446F2
:101CF000142115A8FEF7C4FA54216846FEF7C0FA6D
:101D000082492068824CDFF80CA2022600254FF0A1
:101D10000808884221D12020009006956846FEF7E9
:101D2000A9FF08B1FEF724FBE06D40F00100E0657B
:101D3000E06D00F001001A90E06C40F00400E064F7
:101D4000E06CCDE9166500F004001A900320CDE99F
:101D50001858159015A950461EE06F4905274FF4F5
:101D6000406988421DD16846CDF800800495FEF791
:101D700081FF08B1FEF7FCFAA06D40F40020A065D9
:101D8000A06D00F400201A90E06C40F00400E064C4
:101D9000E06C00F00400AFE0FEF74AFC1CB0BDE8C8
:101DA000F0875E494FF00408884232D11020059533
:101DB00000906846FEF75EFF08B1FEF7D9FAA06D05
:101DC00040F48010A065A06D00F480101A90E06CC3
:101DD00040F00400E064E06C00F004001A90E06C55
:101DE00040F00800E064E06CCDE9166500F0080002
:101DF0001A904FF48050CDE91857159015A9504608
:101E0000FEF716FCCDE91665CDF8548015A94448B7
:101E100053E04449072788421AD10120CDE9000543
:101E20006846FEF727FF08B1FEF7A2FA206E40F4DD
:101E300080402066206E00F480401A90E06C40F0F4
:101E40000400E064E06C00F004001A9030202FE001
:101E50003549DFF8D8A0884232D16846009602950D
:101E6000FEF708FF08B1FEF783FAA06D40F40030DA
:101E7000A065A06D00F400301A90E06C40F0010005
:101E8000E064E06C00F001001A90E06C40F00200A9
:101E9000E064E06CCDE9166500F002001596189537
:101EA000CDE9197015A94FF09040FEF7C1FB18203D
:101EB000CDE91665159015A95046CDE918576BE781
:101EC0001B4988427FF46AAF6846CDF800800395CD
:101ED000FEF7D0FE08B1FEF74BFAA06D40F480206B
:101EE000A065A06D00F480201A90E06C40F0020024
:101EF000E064E06C00F00200CDE91665CDF8549086
:101F00001895CDE9197015A9504645E700800040A5
:101F10000010024000080048004C00400050004003
:101F2000000C004800380140004400400004004814
:101F3000004800402DE9F84F0446D0F88C009B463D
:101F400016460D46202802D00220BDE8F88FC5B104
:101F5000BEB10027C4F890702220C4F88C00E76658
:101F60002034FEF797FCA6878246E68754F8180CC3
:101F70004FF48053FF21203C984207D1226912B1CF
:101F800019E00120E1E740F2FF1114E07F2280B167
:101F9000B0F1805F12D0A4F8607000BFB4F8607038
:101FA0004FF02008984201D1206970B12E460025DB
:101FB0000CE0266936B9A4F86010EFE7216909B191
:101FC0003F21F8E7A4F86020E8E7002607F0FF09C2
:101FD000B4F85E00F0B15346002220212046CDF82F
:101FE00000B001F05FFE18B1C4F88C800320ACE7AC
:101FF0002068406A56B100EA090006F8010B00BFEC
:10200000B4F85E00401EA4F85E00E1E7384025F811
:10201000020BF5E7C4F88C80002096E730B4D0F8C6
:102020008C30202B02D0022030BC7047A9B1A2B165
:102030000023C3660A4C0368A3420BD05B681B02F3
:1020400008D5046854E8003F43F0806344E8003555
:10205000002DF6D130BC01F09DBD0120E4E7000069
:10206000008000400068104988421CD10F4890F859
:102070006810012917D00E49B0F866300A78411C63
:102080005A54B0F866100022491C89B2A0F86610B4
:1020900080F86920012901D180F86A1001220449E1
:1020A0000448FFF7BBBF7047004400401009002000
:1020B00014000020500300202DE9F8430446D0F816
:1020C0008800984616460D46202802D00220BDE81A
:1020D000F883A5B19EB10020C4F890002120C4F877
:1020E00088001834FEF7D6FBA6878146E68754F8A9
:1020F000100C2027183CB0F5805F02D003E00120CF
:10210000E5E7206910B12E46002510E000260EE01C
:102110008021204601F0C6FDC0B9DEB116F8010BE2
:1021200021688862B4F85600401EA4F85600B4F83E
:1021300056004B464FF00002CDF800800028E7D152
:102140004FF04001204601F0ADFD40B1C4F8887069
:102150000320BCE735F8020BC0F30800E0E7C4F841
:1021600088700020B3E7FEE7064B10B55C78C2F339
:102170000723D2B214B103700A7010BD0B70027045
:1021800010BD00002400002070B5074C074D8021D1
:1021900022782846FEF778FBA2782846BDE87040F2
:1021A0004021FEF771BB000010050020000400482C
:1021B00070B5104D80302A7885F86B202A4682F859
:1021C0006C00104680F86D1003216B3001F00EFE9C
:1021D0002946052681F86E00000A81F86F00002468
:1021E000281990F86B0000F0D3FB641CA4B2B44231
:1021F000F6D370BD1009002070B51D4C94F868002E
:10220000002834D06078217888422BD1B4F8661049
:10221000621E601C8A5C635C891E42EA032643EAF4
:10222000022589B201F0E2FDB04201D0A84219D1E5
:10223000A07803280AD004DC012810D0022811D18C
:102240000DE0062805D010280CD105E000F012F8AA
:1022500008E000F069F805E000F0B0F802E00121C4
:10226000FFF7A6FF002084F86800A4F8660070BDA0
:10227000100900202DE9F041294D03242946287832
:1022800085F86B00032081F86C002879E9782A46EC
:1022900000EB012083B2A879697900EB012081B2BB
:1022A000480082F86D005818B0F5007F05D9BDE8E8
:1022B000F04102210320FFF77BBF0020194F10E0FF
:1022C0001A1805EB040C37F81260641C320A8CF8FB
:1022D0006B20A2B2AC18521C84F86B60401C94B204
:1022E00080B28842ECD30E4821466B3001F07EFD6F
:1022F0002919641C81F86B00A1B2000A6A18491CF4
:1023000082F86B008EB2002406E0281990F86B006A
:1023100000F03EFB641CA4B2B442F6D3BDE8F081E9
:10232000100900201005002070B5234C06262078E7
:1023300084F86B00204680F86C602079E17800EB2F
:10234000012085B2A079617900EB0120A4F58061BC
:1023500021F815000121284600F022FC2146E078F2
:1023600081F86D00207981F86E00607981F86F0046
:10237000A07981F87000314604F16B0001F036FD60
:102380002146082681F87100000A81F87200B5F52F
:10239000007F05D3BDE8704002210620FFF708BF8B
:1023A0000025601990F86B0000F0F2FA6D1CADB2D8
:1023B000B542F6D370BD0000100900202DE9F041B0
:1023C000324D00242879E9786A7900EB0120A97957
:1023D00080B201EB0221EA7989B2B2EB410F53D10D
:1023E0004218B2F5007F05D9BDE8F0410221102066
:1023F000FFF7DEBE0022264E0BE000BF05EB4203D6
:102400005F7A1B7A07EB03238718521C26F81730D4
:1024100092B28A42F2D300F0C3FB2919287881F8DE
:102420006B00641C2919102081F86B00641C2919A9
:10243000E87881F86B00641C2919287981F86B0011
:10244000641C2919687981F86B00641C2919A87922
:1024500081F86B000D48641C21466B3001F0C6FC0E
:102460002919641C81F86B00000A2919002681F8DB
:102470006B00641C06E0A81990F86B0000F088FA65
:10248000761CB6B2A642F6D3BDE8F0811009002052
:102490001005002070B5154801250024057080F84E
:1024A0006A4000F05FFB12480221A0F8B452A0F885
:1024B000B6120321A0F8B8120421A0F8BA1205211F
:1024C000A0F8BC120621A0F8BE120721A0F8C01285
:1024D0000821A0F8C21240F2DC51A0F80412A0F8C2
:1024E0006812A0F80642A0F86A4270BD10090020E8
:1024F00010050020114810B50F490160002141600E
:102500008160C160017441748174102242610122B2
:102510008261C261026242628262C262C0E90C21CF
:102520008163C163FDF738FF002803D0BDE8104088
:10253000FDF71EBF10BD00000068004048000020ED
:1025400010B586B014216846FDF79AFE1D48C16C8F
:1025500041F00401C164C16C01F004010591C16C3A
:1025600041F02001C164C16C01F020010591C16CF2
:1025700041F00101C164C16C01F001010591C16C20
:1025800041F00201C164C16C01F002010591C16C0E
:1025900041F00801C164C06C0B4C00F008000590CC
:1025A0000122C0212046FEF76FF9C0200121CDE9AC
:1025B00000010220CDE9021069462046FEF738F8F6
:1025C00006B010BD0010024000040048134810B5CA
:1025D000114901601249416000210122C0E9021243
:1025E000016141618161C1610162FEF7ADF908B12C
:1025F000FDF7BEFE00210948FEF752F908B1FDF7CC
:10260000B7FE00210548FEF776F9002803D0BDE8A3
:102610001040FDF7ADBE10BD00580040AC000020DA
:1026200075507160174810B5154901604FF4E131DC
:102630004160002181600C22C160C0E90412816107
:10264000016241628162FFF719FB08B1FDF790FE5C
:1026500000210C48FFF7EBFA08B1FDF789FE0021D5
:102660000848FFF7BEFA08B1FDF782FE0548FFF7FC
:1026700098FA002803D0BDE81040FDF779BE10BDE0
:10268000008000400001002010B588B000241748E9
:102690000094019402940394049405944FF08041B3
:1026A0000694016040F29F51C0E901146321C0E922
:1026B00003148461FFF765F808B1FDF759FE4FF484
:1026C0008050009069460948FFF702F908B1FDF70C
:1026D0004FFE049404A905480694FEF7F5FF002870
:1026E00001D0FDF745FE08B010BD000078040020C1
:1026F00010B588B000241748009401940294039404
:102700000494059412490694016040F29F51C0E977
:1027100001146321C0E903148461FFF732F808B1A2
:10272000FDF726FE4FF48050009069460948FFF7F8
:10273000CFF808B1FDF71CFE049404A905480694DF
:10274000FEF7C2FF002801D0FDF712FE08B010BD51
:1027500000040040C4040020174810B5154901606A
:1027600016494160002181600C22C160C0E9041259
:102770008161C161016241628162FFF77FFA08B144
:10278000FDF7F6FD00210C48FFF751FA08B1FDF7FF
:10279000EFFD00210848FFF724FA08B1FDF7E8FD36
:1027A0000548FFF7FEF9002803D0BDE81040FDF70B
:1027B000DFBD10BD004C00409401002040420F00DE
:1027C000184810B5164901604FF4E131416000210D
:1027D00081600C22C160C0E904128161C1610162A3
:1027E00041628162FFF74AFA08B1FDF7C1FD00219D
:1027F0000C48FFF71CFA08B1FDF7BAFD00210948A3
:10280000FFF7EFF908B1FDF7B3FD0648FFF7C9F987
:10281000002803D0BDE81040FDF7AABD10BD0000A0
:102820000050004028020020184810B516490160E9
:102830004FF4E1314160002181600C22C160C0E9A8
:1028400004128161C161016241628162FFF716FA7F
:1028500008B1FDF78DFD00210C48FFF7E8F908B13C
:10286000FDF786FD00210948FFF7BBF908B1FDF728
:102870007FFD0648FFF795F9002803D0BDE810401A
:10288000FDF776BD10BD000000380140BC020020FD
:10289000194810B5174901604FF4E131416000213A
:1028A00081600C22C160C0E904128161C1610162D2
:1028B00041620B460A468162FEF7A6FE08B1FDF7AB
:1028C00057FD00210C48FFF7B2F908B1FDF750FDA4
:1028D00000210948FFF785F908B1FDF749FD0648D1
:1028E000FFF75FF9002803D0BDE81040FDF740BDB9
:1028F00010BD00000044004050030020184810B5EF
:10290000164901604FF4E1314160002181600C22E1
:10291000C160C0E904128161C161016241628162EA
:10292000FFF7ACF908B1FDF723FD00210C48FFF7D4
:102930007EF908B1FDF71CFD00210948FFF751F9A8
:1029400008B1FDF715FD0648FFF72BF9002803D065
:10295000BDE81040FDF70CBD10BD00000048004070
:10296000E403002001B54FF47A730122694602485E
:10297000FFF7A2FB08BD000050030020FEE7FEE7C2
:10298000704710B5FFF786FDBDE8104000F0EAB8CB
:1029900010B5FFF7E7FFBDE8104001F0E9BA00000D
:1029A0002DE9FF4182B090460C46054601F09CFAA5
:1029B0000226012305AA21462846009601F0E2FAE4
:1029C00001F0C6FA284C0020E07001F0F2F901276E
:1029D00028B1032101A801F096FA032801D0E7707D
:1029E0003BE09DF80400A84203D0FE2D01D0032057
:1029F00007E09DF814109DF80520881C824202D043
:102A00000420E07029E0404601F07DFA9DF81410A2
:102A100005468842E3D101210DF1070001F073FA68
:102A20000128DCD19DF804009DF805109DF80620D2
:102A300008441044C0B2002106E000BF18F801307D
:102A4000491C1844C0B2C9B2A942F7DBC0439DF883
:102A50000710C0B2814204D0E670002006B0BDE885
:102A6000F081A2702846F9E72400002010B5411C2F
:102A700009D0C0B2452101F048FA010402D520F482
:102A80000040404210BD0348817B407B40EA01206A
:102A9000F3E70000E009002010B5411C09D0C0B2E6
:102AA0003C2101F032FA410502D520F48060404219
:102AB00010BD03480179407940EA0120F3E70000A6
:102AC000E009002010B5411C09D0C0B2382101F046
:102AD0001CFA010402D520F40040404210BD034816
:102AE0000178407840EA0120F3E70000E009002087
:102AF00010B5411C09D0C0B23A2101F006FA010418
:102B000002D520F40040404210BD03488178C078CF
:102B100040EA0120F3E70000E0090020411C03D057
:102B2000C0B23F2101F0E2B90148C079704700000E
:102B3000E0090020411C03D0C0B23E2101F0D6B90B
:102B40000148807970470000E009002002460448EF
:102B5000407810B141EA0220704742EA01207047F4
:102B60002400002010B5012001F0E2F90B4C0120F7
:102B7000B4F8B41209B9A4F8B402A4F80802A4F88D
:102B80006C0294F8B4020121FDF7EEFB94F8B60252
:102B9000BDE810400121FDF7E7BB00001005002053
:102BA0002DE9F84F002501442E46AB46AA46A9461A
:102BB000A8468FB2044600957BE000BFB4F5827F43
:102BC00034D0A4F5807051383AD0B4F5817F35D037
:102BD000A4F58070033820D0B4F5A97F3DD000BFA4
:102BE000A4F58070033819D0A4F58070533837D01D
:102BF000B4F5AA7F39D000BFA4F58070553831D024
:102C0000B4F5AB7F34D000BFA4F58070573821D025
:102C1000A4F580700B3838D02CE001250120064641
:102C20008346824681468046009040E04C4890F8BA
:102C3000081290F8B402FDF797FB38E0012503E095
:102C40000125B4F5817FCBD101200646834682461B
:102C5000814600904FF001080CE00120009009E04F
:102C60000126C9E74FF0010ACEE74FF0010B01E062
:102C70004FF00109A4F20F10052818D83848B0F811
:102C80001E0288B100F096F911E03548B0F816122E
:102C900069B1B0F81C12012541F00201A0F81C1224
:102CA0000021A0F8161202E02E4900200870641CD2
:102CB000A4B2BC4282D345B14FF481735A1C40F296
:102CC00051114FF4AD7000F005F9009840B14FF488
:102CD0009A735A1C4FF4A97140F25B1000F0FAF895
:102CE00046B14FF481735A1C40F253114FF4AE7049
:102CF00000F0F0F8BBF1000F08D04FF481735A1CBC
:102D00004FF4AA7140F25D1000F0E4F8BAF1000F40
:102D100008D04FF481735A1C40F255114FF4AF7034
:102D200000F0D8F8B9F1000F08D04FF481735A1CA5
:102D30004FF4AB7140F25F1000F0CCF8B8F1000F27
:102D40000BD001B04FF48173BDE8F04F5A1C40F234
:102D500057114FF4B07000F0BDB8BDE8F88F000017
:102D6000100500203C0000202DE9F84FFDF792FDF2
:102D7000564C2168401A14286AD3FDF78BFD206059
:102D800001F0DCF80090FFF79DFE514C4FF4007607
:102D90004FF4877500280FDBA4F80A0280B2C0EB5D
:102DA000001000EBC00006EB4000C0F38F20A842EB
:102DB00000D92846A4F818020220FFF783FE002855
:102DC0000FDBA4F86E0280B2C0EB001000EBC00075
:102DD00006EB4000C0F38F20A84200D92846A4F893
:102DE0007C023A4DB4F81E0200272D1D78B3B4F8CA
:102DF00024620EB94FF49676B4F8260208B9B4F8F6
:102E000004028146B4F8280208B9B4F80602B4F8FE
:102E100020B28046B4F822A2287820B1012805D03B
:102E2000022816D02CE000F0C5F829E0B4F818020A
:102E30006988884201D9401A00E0081A80B2032844
:102E40001ED802202870FDF725FD686018E016E006
:102E500039E0FDF71FFD6968401AB04210D3012028
:102E60002870697821B16F7042464946504603E0A8
:102E7000687042464946584600F064F800E02F70FA
:102E80000098FFF735FE002801DBA4F80C0200983B
:102E9000FFF702FE002801DBA4F80E020098FFF7FE
:102EA00049FE002801DBA4F810020098FFF736FE67
:102EB000002801DBA4F812020098FFF7D7FD0028D4
:102EC00001DBA4F81402BDE8F88F000038000020F0
:102ED00010050020F0B41A4C14F8100010F0FF0098
:102EE00000D1012034F81110B1F5B47F03D90D02DF
:102EF00045EA112189B24FF48775A94200D92946C4
:102F0000872606EB8121B1FBF5F189B24FF480658C
:102F1000A94200D9294634F8122034F8133052EA75
:102F2000030501D140F2DC53A4F81A12B4F81C5284
:102F300045F00105A4F81C52F0BC00F0FEBE0000F4
:102F40001005002070B516460D46044600F0F6FF49
:102F500000B90120B4F5B47F03D9210241EA14215C
:102F60008CB24FF487718C4200D90C4655EA0602A8
:102F700001D140F2DC55872202EB8422B2FBF1F151
:102F800089B24FF48062914200D91146074AA2F8F3
:102F90001A12B2F81C3243F00103A2F81C322B467D
:102FA000324600F0CAFE0248448070BD1005002081
:102FB0003C0000200A4830B4B0F8261209B9B0F835
:102FC0000412B0F828220AB9B0F80622054CB0F86D
:102FD000200201232370637030BCFFF7B3BF0000F1
:102FE000100500203C0000207047FDF74BBD00B5E8
:102FF00093B038216846FDF743F914210EA8FDF778
:103000003FF94FF40070FDF7CFFD0220C10103919D
:10301000402104910121CDE9080100901221CDE960
:103020000A1007900C900D906846FEF7EBF808B177
:1030300072B6FEE70F200E9003200F900020109034
:103040001190129004210EA8FDF794FF002801D0E2
:1030500072B6FEE713B000BD0248016841F470018A
:103060000160704788ED00E010B5FFF7C5F8FFF785
:103070008BF8FFF779FE0C48416871B1002141607F
:1030800040880A494FF481735A1CA1F8A20240F209
:1030900051114FF4AD70FFF71DFFBDE81040012244
:1030A00001490348FEF7BABF1400002010050020B4
:1030B000500300200148FEF784BC00007804002083
:1030C0000148FEF77EBC0000C40400202DE9F04F4B
:1030D00002682E4B2E4E2F4FDFF8BCC02F4C304DC8
:1030E0004FF0804B98420BD0584509D0B04207D0E2
:1030F000B84205D0604503D0A04201D0A84204D117
:1031000022F070084A6842EA0802DFF89880DFF887
:103110009890DFF898A0984211D058450FD0B0424F
:103120000DD0B8420BD0604509D0A04207D0404531
:1031300005D0484503D0504501D0A84203D122F420
:103140004076CA6832434E6922F080023243026000
:103150008A68C2620A688262984209D0A04207D097
:10316000404505D0484503D0504501D0A84201D183
:1031700009690163012141610169C90703D001693E
:1031800021F001010161BDE8F08F0000002C014039
:103190000004004000080040000C004000340140E2
:1031A00000500140004001400044014000480140FF
:1031B00010B5846842EA032224F47F440A43224380
:1031C000826010BD8268034B1A400A4342F0070137
:1031D000816070478FFFCFFF10B5036A046A24F047
:1031E00001040462846924F0F00444EA021423F028
:1031F0000A020A438461026210BD10B5036A046AC0
:1032000024F010040462846923F0A00324F47044C1
:1032100044EA023243EA01118261016210BD0000FA
:1032200030B5416EB9B1026891689268C1F34261EC
:103230000B4B520F9C5CE50003F10804A25CB5FB4C
:10324000F2F2A0F86A205A5C615CD200B2FBF1F1A4
:10325000A0F8681030BD0121A0F86A10F8E700005E
:103260008440000890F82810090706D501684A68CC
:10327000836B22F400421A434A6090F82810C90771
:1032800006D001684A68C36A22F400321A434A60D1
:1032900090F82810890706D501684A68036B22F464
:1032A00080321A434A6090F82810490706D5016811
:1032B0004A68436B22F480221A434A6090F828102F
:1032C000C90606D501688A68C36B22F480521A4386
:1032D0008A6090F82810890606D501688A68036C10
:1032E00022F400521A438A6090F82810490611D53A
:1032F00001684A68436C22F480121A434A60416CA8
:10330000B1F5801F06D101684A68836C22F4C002BF
:103310001A434A6090F82810090606D501684A68E1
:10332000C06C22F4002202434A6070472DE9F84342
:1033300000260446C0F89060FDF7ACFA804620688D
:1033400000684FF0200500076FF07E4713D5434615
:10335000002229042046009700F0A4FC58B12168FF
:1033600051E8000F20F0800041E80002002AF6D169
:10337000C4F8885021E020680068400722D5434601
:1033800000224FF480012046009700F08BFCC8B16A
:10339000216851E8000F20F4907041E80002002AF3
:1033A000F6D12068083050E8001F21F0010140E804
:1033B0000012002AF5D1C4F88C5084F884600320F0
:1033C000BDE8F883C4F88850C4F88C5044F86C6F9A
:1033D000666026760020F3E710B5026852E8001F09
:1033E00021F4907142E80013002BF6D10E4B0268D5
:1033F000083252E8001F194042E80014002CF6D1B0
:10340000C16E012908D1016851E8002F22F0100295
:1034100041E80023002BF6D12021C0F88C100021B8
:10342000C166416710BD0000FEFFFFEF10B5B0F8A8
:103430006020D0F88C300168222B04D0886940F0DD
:103440000800886110BD496A836D11401980816D43
:10345000891C8165B0F85E10491EA0F85E10B0F8B6
:103460005E100029EED1026852E8001F21F490712D
:1034700042E80013002BF6D10168083151E8002F13
:1034800022F0010241E80023002BF5D12021C0F8F1
:103490008C10002141670167154B02689A420BD0DE
:1034A0005268120208D5036853E8002F22F08062A8
:1034B00043E80024002CF6D1C26E012A02D0FEF7A8
:1034C000D1FD10BDC166026852E8001F21F0100155
:1034D00042E80013002BF6D10168CA69D243D20634
:1034E00001D410220A62B0F85C10FEF779FB10BD1F
:1034F000008000402DE9F0470446B0F860600068A5
:10350000C569D0F800A0D0F80890D4F88C10222912
:1035100005D0816941F008018161BDE8F087B4F808
:1035200068704FF0000844E02068406AA16D3040A8
:103530000880A06D801CA065B4F85E00401EA4F851
:103540005E002068C569690730D0E9070AD05FEAE4
:10355000CA5107D501210162D4F8900040F0010062
:10356000C4F89000A8070BD55FEAC97008D021689D
:1035700002200862D4F8900040F00400C4F89000E3
:1035800068070BD55FEAC97008D02168042008627B
:10359000D4F8900040F00200C4F89000D4F89000F5
:1035A00020B12046FEF769FBC4F89080B4F85E00B5
:1035B00000B30FB1A806B7D4B4F85E000028ACD0B1
:1035C000B4F868108142A8D92068083050E8001F7C
:1035D00021F0805140E80012002AF5D12A486067A6
:1035E000206850E8001F41F0200140E80012002A46
:1035F000F6D192E7216851E8000F20F4807041E88D
:103600000002002AF6D1214A2068083050E8001F45
:10361000114040E80013002BF6D12020C4F88C00A4
:10362000C4F874804046C4F87080194A21689142F9
:103630000BD04968090208D5226852E8001F21F022
:10364000806142E80013002BF6D1E16E012903D01E
:103650002046FEF707FDAFE7E066216851E8000F5E
:1036600020F0100041E80002002AF6D12068C1696C
:10367000C943C90601D410210162B4F85C10204688
:10368000FEF7AEFA98E700002D340008FEFFFFEFCA
:103690000080004010B5B0F86020D0F88C30016890
:1036A000222B04D0886940F00800886110BD496A67
:1036B0001140826D1170816D491C8165B0F85E10FA
:1036C000491EA0F85E10B0F85E100029EED1016826
:1036D00051E8002F22F4907241E80023002BF6D12C
:1036E0000168083151E8002F22F0010241E800236F
:1036F000002BF5D12021C0F88C1000214167016713
:10370000154B02689A420BD05268120208D5036822
:1037100053E8002F22F0806243E80024002CF6D109
:10372000C26E012A02D0FEF79DFC10BDC166026880
:1037300052E8001F21F0100142E80013002BF6D1DF
:103740000168CA69D243D20601D410220A62B0F8D5
:103750005C10FEF745FA10BD008000402DE9F047EF
:103760000446B0F860600068C569D0F800A0D0F8E1
:103770000890D4F88C10222905D0816941F0080105
:103780008161BDE8F087B4F868704FF0000844E04C
:103790002068406AA16D30400870A06D401CA06593
:1037A000B4F85E00401EA4F85E002068C569690791
:1037B00030D0E9070AD05FEACA5107D5012101627A
:1037C000D4F8900040F00100C4F89000A8070BD591
:1037D0005FEAC97008D0216802200862D4F890001E
:1037E00040F00400C4F8900068070BD55FEAC97088
:1037F00008D0216804200862D4F8900040F002004C
:10380000C4F89000D4F8900020B12046FEF735FAB5
:10381000C4F89080B4F85E0000B30FB1A806B7D426
:10382000B4F85E000028ACD0B4F868108142A8D982
:103830002068083050E8001F21F0805140E8001255
:10384000002AF5D12A486067216851E8000F40F04E
:10385000200041E80002002AF6D192E7216851E8F1
:10386000000F20F4807041E80002002AF6D1214ABE
:103870002068083050E8001F114040E80013002B7A
:10388000F6D12020C4F88C00C4F874804046C4F8F7
:103890007080194A216891420BD04968090208D505
:1038A000226852E8001F21F0806142E80013002BDB
:1038B000F6D1E16E012903D02046FEF7D3FBAFE736
:1038C000E066206850E8001F21F0100140E8001277
:1038D000002AF6D12068C169C943C90601D4102164
:1038E0000162B4F85C102046FEF77AF998E7000010
:1038F00095360008FEFFFFEF008000402DE9F04103
:103900000446016880682269E36910436269002502
:103910001A431043DFF84CC20A68934B1A40024323
:103920000A6020684168E26821F440511143416017
:103930002168A069614501D0226A10438A688B4BD7
:103940001A4002438A602068C16A626A21F00F014E
:103950001143C1628649236886488B420DD1D0F855
:10396000880010F0030006D0012867D0022854D048
:10397000032851D164E001204FE07F498B420BD1F5
:10398000D0F8880010F00C0047D0042845D0082853
:1039900052D00C2840D153E078498B420BD1D0F85B
:1039A000880010F0300038D0102847D0202843D0AD
:1039B000302831D144E072498B420BD1D0F88800D5
:1039C00010F0C00029D0402838D0802834D0C0283A
:1039D00022D135E06B498B420ED1D0F8880010F42B
:1039E00040701AD0B0F5807F28D0B0F5007F23D08A
:1039F000B0F5407F10D123E063450DD1D0F88800A9
:103A000010F4406009D0B0F5806F17D0B0F5006FAA
:103A100012D0B0F5406F13D010205B4A5B4F0026E8
:103A20004FF40041634539D160B102280DD004281C
:103A30000DD0082831D10EE00220EEE70420ECE79B
:103A40000820EAE7FDF784FB03E0114603E0FDF7F9
:103A5000A3FB01007BD0606A37F810206768B1FBD8
:103A6000F2F007EB4703834269D8B0EB073F66D813
:103A7000002308461946FCF7CBFB090241EA106116
:103A800002027808101871413A460023FCF7C0FB87
:103A90003F4AA0F54071914257D950E0E3694FF693
:103AA000EF788B422BD1092849D2DFE800F00508D6
:103AB0000D48254848480E00FDF74AFB01E0FDF798
:103AC00059FB010001D142E01146606A37F810004D
:103AD000B1FBF0F04100606801EB5001B1FBF0F187
:103AE000A1F1100040452AD84FF6F07201EA020019
:103AF000C1F34201084328E0FDF74EFBE1E7092846
:103B00001DD2DFE800F005080D1C1E1C1C1C0E0059
:103B1000FDF71EFB01E0FDF72DFB010001D116E0D2
:103B20001146606A37F81000B1FBF0F1606801EBF4
:103B30005001B1FBF0F0A0F11001414504D901257D
:103B400005E0FDF729FBE8E780B22168C8600120A5
:103B5000A4F86A0024F8680F2846E6602661BDE8EC
:103B6000F081000000800040F369FFCFFFF4FF11F7
:103B7000003801400010024000440040004800406E
:103B8000004C0040005000400024F4006C4000084D
:103B9000FFFC0F0070B58165A0F85C20A0F85E20E6
:103BA0000023436781684FF48056FF24B14204D15B
:103BB0000169F9B940F2FF1122E07F25C1B1B1F1ED
:103BC000805F1AD0A0F86030C0F890302221C0F891
:103BD0008C100168083151E8003F43F0010341E8CF
:103BE0000034002CF5D1416EB1F1005F0ED031E010
:103BF000016941B9A0F86040E6E7016919B13F21C8
:103C0000A0F86010E0E7A0F86050DDE7B0F86810B9
:103C100091421FD88168B14201D10169B9B11D49F2
:103C20004167016941B1026852E8001F41F48071A7
:103C300042E80013002BF6D10168083151E8002F4B
:103C400042F0805241E80023002BF5D120E01249D8
:103C50004167F1E78168B14201D1016969B10F495A
:103C60004167016959B1026852E8001F41F490713F
:103C700042E80013002BF6D10AE0094941670268C7
:103C800052E8001F41F0200142E80013002BF6D15A
:103C9000002070BD5D370008F53400089536000837
:103CA0002D3400082DE9F047994617460D46044685
:103CB0004FF00008089E33E0701C31D0FCF7EAFD9D
:103CC000A0EB0900B04218D8BEB1206801684907CE
:103CD00026D5802D24D0402D22D0C169C9430907A3
:103CE0000DD4082505622046FFF776FBC4F89050F6
:103CF00084F884800120BDE8F0870320FBE7C069D9
:103D0000C04300050CD421684FF4006008622046CF
:103D1000FFF762FB2020C4F8900084F88480ECE771
:103D20002068C06935EA000004D00020B842C3D042
:103D30000020E0E70120F9E7FEE72DE9FC41154608
:103D40006C4606460A461F462046611CFEF70CFAE2
:103D50002A46E11CA01CFEF707FA3A46611D201D09
:103D6000FEF702FA06236A462A21304600F072F86E
:103D7000BDE8FC810907090E002804DB00F1E02002
:103D800080F80014704700F00F0000F1E02080F888
:103D9000141D704702E008C8121F08C1002AFAD19A
:103DA00070477047002001E001C1121F002AFBD1BB
:103DB000704738B5002425460121684600F0A3F875
:103DC00000280FD09DF80010E0B260F30F2461F3DB
:103DD0000704FF2901D1FF2805D06D1CEDB20A2D83
:103DE000EAD9002038BD012038BD000070B5094D6A
:103DF000FF22134605F5807606E000BF10F8014B60
:103E000054402A5D5A40335D491E89B2F6D243EAD6
:103E1000022070BDAC4000080120FCF7ABBA0000E6
:103E200010B50C468AB2014614230448FEF782F806
:103E300008B1002010BD204610BD000094010020F4
:103E40008AB201464FF47A730148FEF735B9000093
:103E500094010020F8B51C4615460E46074600F0B2
:103E600043F80320009023462A463146384600F0A6
:103E700089F800F06DF83846BDE8F840FCF73CBA28
:103E8000FCF708FEFFF7B3F8FEF75AFBFEF7CAFB94
:103E9000FEF762FCFEF794FCFEF7C6FCFEF7F8FCAA
:103EA000FEF72CFDFEF726FBFEF722FCFEF78EFB4D
:103EB000FEF7EAFB4FF47A742046FCF75BFA0748FA
:103EC000FDF7C0FC0648FDF7BDFC064D286880479D
:103ED0002046FCF74FFA6868F9E70000C4040020A8
:103EE000780400201C000020FFF796BF08B50123CE
:103EF0006A46FEF755FD012802D04FF0FF3008BD9D
:103F00009DF8000008BDFFF78BBF08B502236A4685
:103F1000FEF746FD022802D04FF0FF3008BD9DF8A5
:103F200001109DF80000FEF711FE80B208BD0000F0
:103F30000149487070470000240000200348B0F891
:103F4000B40200B90120C0B2704700001005002083
:103F500010B5054C2178002904D00448FFF770FF04
:103F60000020207010BD000044000020EF09002058
:103F700003480068C169C9434906FBD47047000083
:103F8000500300202DE9FF478046DDF830904FF0C8
:103F900000008DF808004FF0FF008DF800008DF84C
:103FA00001001C4615000F464FF002068DF80280F6
:103FB0008DF8049007D0E01CC6B28DF803608DF830
:103FC0000570062102E08DF803600521684600F0C7
:103FD00039F808EB060101EB090038448DF80800B8
:103FE0007DB1002107E0685C9DF80820491C104461
:103FF0008DF80800C9B2A142F5D32146284600F049
:1040000021F89DF808000121C0438DF8080002A89E
:1040100000F018F8BDE8FF8737B582B00C460546BA
:10402000FFF762FF03200090012304AA21462846DF
:10403000FFF7A8FFFFF78CFF2846FCF75DF905B0F6
:1040400030BD000030B5074B074C07E01A78802AD6
:1040500004D210F8015BA554521C1A70491EF5D207
:10406000187830BD44000020EF0900200100020054
:104070000400060008000A000C00100020004000A8
:10408000800000010101010307010000080402048F
:10409000080101010000000000000000010203040B
:1040A00006070809000000000102030400C1814066
:1040B00001C0804101C0804100C1814001C08041F8
:1040C00000C1814000C1814001C0804101C08041E8
:1040D00000C1814000C1814001C0804100C18140D8
:1040E00001C0804101C0804100C1814001C08041C8
:1040F00000C1814000C1814001C0804100C18140B8
:1041000001C0804101C0804100C1814000C18140A7
:1041100001C0804101C0804100C1814001C0804197
:1041200000C1814000C1814001C0804101C0804187
:1041300000C1814000C1814001C0804100C1814077
:1041400001C0804101C0804100C1814000C1814067
:1041500001C0804101C0804100C1814001C0804157
:1041600000C1814000C1814001C0804100C1814047
:1041700001C0804101C0804100C1814001C0804137
:1041800000C1814000C1814001C0804101C0804127
:1041900000C1814000C1814001C0804100C1814017
:1041A00001C0804101C0804100C1814000C0C10107
:1041B000C30302C2C60607C705C5C404CC0C0DCD97
:1041C0000FCFCE0E0ACACB0BC90908C8D81819D907
:1041D0001BDBDA1A1EDEDF1FDD1D1CDC14D4D51537
:1041E000D71716D6D21213D311D1D010F03031F127
:1041F00033F3F23236F6F737F53534F43CFCFD3D57
:10420000FF3F3EFEFA3A3BFB39F9F83828E8E92946
:10421000EB2B2AEAEE2E2FEF2DEDEC2CE42425E5F6
:1042200027E7E62622E2E323E12120E0A06061A166
:1042300063A3A26266A6A767A56564A46CACAD6D16
:10424000AF6F6EAEAA6A6BAB69A9A86878B8B97986
:10425000BB7B7ABABE7E7FBF7DBDBC7CB47475B5B6
:1042600077B7B67672B2B373B17170B050909151A6
:104270009353529296565797559594549C5C5D9DD6
:104280005F9F9E5E5A9A9B5B9959589888484989C6
:104290004B8B8A4A4E8E8F4F8D4D4C8C4484854576
:1042A000874746868242438341818040CC42000852
:1042B0000000002048000000943D0008144300085E
:1042C00048000020280E0000A43D00080000000067
:1042D0001000000001000000000000000024F400B5
:1042E00000005A000000000083290008693000081F
:1042F00001000000000000000000000000000000BD
:1043000000000000000000000000000000000000AD
:0443100000000000A9
:04000005080001D915
:00000001FF
