:020000040800F2
:10000000E8080020ED01000883290008DB21000832
:1000100081290008F9020008913100080000000061
:100020000000000000000000000000006D2A000831
:10003000FB02000800000000852900086F2A000864
:10004000070200080702000807020008070200086C
:10005000070200080702000807020008070200085C
:10006000070200080702000807020008070200084C
:10007000070200080702000807020008070200083C
:10008000070200080702000807020008070200082C
:10009000070200080702000807020008070200081C
:1000A000070200080702000807020008070200080C
:1000B000ED2A0008F92A00080702000807020008D4
:1000C00007020008070200080702000807020008EC
:1000D00007020008070200080702000807020008DC
:1000E00007020008070200080702000807020008CC
:1000F00007020008070200080702000807020008BC
:1001000007020008070200080702000807020008AB
:10011000070200080702000807020008070200089B
:10012000070200080702000807020008070200088B
:10013000070200080702000807020008070200087B
:10014000070200080702000807020008070200086B
:10015000070200080702000807020008070200085B
:10016000070200080702000807020008070200084B
:10017000070200080702000807020008070200083B
:10018000070200080702000807020008070200082B
:10019000070200080000000007020008070200082C
:1001A000070200080702000807020008070200080B
:1001B00007020008070200080702000807020008FB
:1001C00007020008070200080702000807020008EB
:1001D0000702000807020008DFF80CD000F07AF8E8
:1001E0000048004771360008E808002006488047AC
:1001F00006480047FEE7FEE7FEE7FEE7FEE7FEE70C
:10020000FEE7FEE7FEE7FEE7DD2A0008D901000869
:100210002DE9F05F0546002092469B46884606463B
:10022000814640241BE0284641464746224600F0CE
:1002300041F853465A46C01A914110D31146184608
:10024000224600F028F82D1A67EB01084F46224697
:100250000120002100F01FF817EB00094E41201E7D
:10026000A4F10104DFDC484631462A464346BDE896
:10027000F09FD2B201E000F8012B491EFBD270477B
:100280000022F6E710B513460A4604461946FFF762
:10029000F0FF204610BD202A04DB203A00FA02F1CC
:1002A000002070479140C2F1200320FA03F3194364
:1002B00090407047202A04DB203A21FA02F0002106
:1002C000704721FA02F3D040C2F120029140084366
:1002D00019467047064C074D06E0E06840F0010300
:1002E00094E8070098471034AC42F6D3FFF778FF44
:1002F0002037000840370008FEE7704772B6FEE777
:1003000070B5044600F08CFA0546601C02D0044823
:100310004068044400F084FA401BA042FAD370BD48
:10032000040000202DE9F041040006D0DFF8F4813C
:1003300094F85C00002518B107E00120BDE8F081C9
:1003400084F85D50204600F0F9F82068816921F0BA
:100350001001816100F064FA0646032705E000BF42
:1003600000F05EFA801B0A2811D820688069000717
:10037000F6D42068816941F00101816100F050FAF2
:1003800006460BE000F04CFA801B0A2806D9206EC6
:1003900040F00100206684F85C70CEE72068806938
:1003A000C007EFD02068816941F0020181612168B6
:1003B000414502D15C4960680860207C01282068C2
:1003C000816937D041F040018161607C012820685B
:1003D000816932D021F480418161A07C01282068AC
:1003E00081692DD041F48051816120688169A268C2
:1003F00021F44071114381612068816921F0A401D9
:1004000081612068016921F010010161E068012823
:1004100019D010B302281BD02068816941F08001F7
:1004200081612068016941F010010161E0680328E1
:100430000ED012E021F04001C6E741F48041CBE745
:1004400021F48051D0E72068816941F0040103E084
:100450002068816941F020018161207EE2694006C7
:100460006FF0FF0101EB0222A0F100701043226A3D
:10047000A38A521E10430A0202EB03431843236867
:10048000D861A068B0F5407F10D1D4E90A0301EB30
:100490000321401E0843216B131303EB0111084392
:1004A000A18C02EB014108432168C860206850F824
:1004B000C01FE26B114301601D4A21681B48914235
:1004C00000D11C481C4A914201D100F5D46020643F
:1004D00051F8802FA38E22F4F81242EA03420A60F8
:1004E00000F170016164216851F8802F94F8383070
:1004F00022F0706242EA03620A6000F1B001A16476
:10050000D831E164D831216518316165D83100E016
:1005100020C08842FCD3A5652566012084F85C00D4
:1005200000200BE7006400400065004000A400408C
:100530000068004050A70040006C004010B59CB01F
:100540000446142115A8FFF79BFE54216846FFF7C7
:1005500097FE17492068884228D1801400904003F4
:100560000E90684600F084FC08B1FFF7C7FE114802
:10057000816D41F000718165816D01F000711A910A
:10058000C16C41F00201C164C06C15A900F0020009
:100590001A904FF4405015900220169000201790AA
:1005A000189009201990044800F008F81CB010BDFC
:1005B0000068004000100240000400482DE9F04FA0
:1005C000DFF82092002301260324A9F1040B85B053
:1005D0000F2709F1040AABF1040EFAE006FA03F55D
:1005E0002A407CD091F804C00CF0030CBCF1010F40
:1005F00002D0BCF1020F26D1D0F808C0CDF800C05F
:100600004FEA430C04FA0CF8CDF810C0DDF800C036
:100610002CEA080CCDF800C0D1F80C80DDF810C031
:1006200008FA0CF8DDF800C048EA0C08C0F80880A9
:10063000D0F804C02CEA050C0D79C5F300159D40D7
:1006400045EA0C0545600D79ED43AD070ED0C56850
:100650004FEA430804FA08FC25EA0C05D1F808C063
:100660000CFA08FC4CEA050CC0F80CC00D7905F03A
:100670000305022D16D1DD0800EB850CCDF808C06E
:10068000DCF820805D074FEAD56C07FA0CF528EA04
:1006900005080D6905FA0CF5DDF808C045EA0805FE
:1006A000CCF8205005684FEA430CCDF808C004FA96
:1006B0000CFC25EA0C0591F804C00CF00308DDF8E9
:1006C00008C008FA0CF848EA0508C0F800804D6830
:1006D00015F4403F7CD0444DD5F860C000E077E091
:1006E0004CF0010CC5F860C02D6E23F0030C05F032
:1006F000010500953D4D65440295AD684FEA837C48
:100700004FEA1C7807FA08FC25EA0C05B0F1904F77
:1007100006D0DFF8DCC0604505D14FF0010C20E0C9
:100720004FF0000C1DE0DFF8CCC0604502D14FF067
:10073000020C16E0DFF8C0C0604502D14FF0030C98
:100740000FE0DFF8B8C0604502D14FF0040C08E0BC
:10075000DFF8ACC0604502D14FF0050C01E04FF06E
:10076000060C0CFA08FC4CEA050C029DC5F808C002
:10077000D9F80050CC46D1F8048095435FEAC828E8
:1007800000D51543CCF80050DAF80050D446D1F823
:10079000048095435FEA882800D51543CCF80050C3
:1007A000DBF80050DC46D1F8048095435FEA8838D6
:1007B00000D51543CCF80050DEF80050F446D1F8CF
:1007C000048095435FEAC83800D51543CCF8005043
:1007D0005B1C0A6832FA03F57FF400AF05B0BDE890
:1007E000F08F0000080401400010024000000140AA
:1007F0000004004800080048000C004800100048B1
:1008000000140048426921EA02030A4043EA024117
:10081000816170470AB18161704781627047000051
:1008200001488068704700000400002090F84120D3
:10083000202A24D190F84020012A20D0012280F8DB
:100840004020242280F841200268136823F001032D
:1008500013600268136823F48053136002681368FE
:100860000B43136001680A6842F001020A6020210C
:1008700080F84110002180F840100846704702209F
:10088000704790F84120202A22D190F84020012A78
:100890001ED0012280F84020242280F841200268E6
:1008A000136823F0010313600268136823F4706374
:1008B00043EA0121116001680A6842F001020A60FE
:1008C000202180F84110002180F840100846704730
:1008D0000220704770B5040004D094F84100002550
:1008E00010B106E0012070BD84F84050204600F0B1
:1008F00087F9242084F841002068016821F0010173
:1009000001606068216820F070600861206881687B
:1009100021F400418160E0680128A06830D040F4F3
:10092000044021688860E0680228206841682AD075
:1009300021F40061416020684168144A114341601C
:100940002068C16821F40041C160D4E90401084372
:10095000A16940EA01202168C860D4E90701084381
:10096000216808602068016841F001010160656448
:10097000202084F84100256384F84250002070BD97
:1009800040F40040CDE741F40061D3E7008000026D
:100990002DE9F84F044690F84100DDF828A01F46E5
:1009A00090468B4620287ED194F8400001287AD0CA
:1009B000012084F84000FFF733FF06460122009033
:1009C0001923D103204601F0B9FCE0BB222084F8B2
:1009D0004100102084F8420000256564C4F824809A
:1009E00067856563618D3148FF274FF080784FF050
:1009F0000079FF2903D927853A46009039E0618DB7
:100A0000218500903AE05946204601F07FFC13E032
:100A100001F0D2FCB8B92068406A616A0870606A67
:100A2000401C6062208D401E80B22085618D491E71
:100A30006185618D01B168B1608D324600285146F3
:100A40002046E5D100E002E001F00AFDD0B101202E
:100A5000BDE8F88F5346002280212046009601F021
:100A60006DFC0028F3D1608DFF2804D927853A4614
:100A700000954346C7E7608D2085009594F82820AF
:100A80004B46C0E721682020C86121684A68084BAE
:100A90001A404A6084F8410084F8425084F840507B
:100AA0000020D5E7FFE70220D2E700000024008005
:100AB00000E800FE2DE9FF4F81B0044690F84100A8
:100AC000DDF838B01F46904620287BD194F84000CE
:100AD000012877D0012084F84000FFF7A1FE0646E8
:100AE000012200901923D103204601F027FC0028A1
:100AF00053D1212084F84100102084F842000025C1
:100B00006564C4F8248067856563608D3A49FF2772
:100B10004FF080794FF0007AFF2802D927854B46A5
:100B200005E0608D208500045346000C10D022683B
:100B300098F800009062606A401C6062608D401E00
:100B40006085208D401E2085401CC2B2009101E0CE
:100B5000002200912046029901F0D8FB14E000BF6A
:100B600001F0A9FCC8B9606A216800788862606AEF
:100B7000401C6062608D401E6085208D401E80B2EA
:100B80002085618D01B160B1608D324600285946E3
:100B90002046E5D101F064FCE0B1012005B0BDE8DC
:100BA000F08F5B46002280212046009601F0C6FBB4
:100BB0000028F2D1608DFF2805D927853A464B469B
:100BC0000095C7E716E0608D2085009594F82820F1
:100BD0005346BFE721682020C86121684A68074B57
:100BE0001A404A6084F8410084F8425084F840502A
:100BF0000020D3E70220D1E70020008000E800FEBB
:100C000010B59CB00446142115A8FFF739FB5421F8
:100C10006846FFF735FB1849206888422AD18020B2
:100C2000009000200890684600F022F908B1FFF714
:100C300065FB124CE06C40F00100E064E06C15A92B
:100C400000F001001A904FF4407015901220169099
:100C50000120179002201890042019904FF0904026
:100C6000FFF7ACFCA06D40F48000A065A06D00F41F
:100C700080001A901CB010BD0058004000100240C7
:100C80000248816842681144816070470400002076
:100C900010B50024032000F073F80F2000F008F8CE
:100CA00008B1012401E000F025F8204610BD000045
:100CB00070B50E4E05460024706898B14FF47A71F5
:100CC000B1FBF0F00A490968B1FBF0F000F0E0FD7B
:100CD00040B9102D06D200222946501E00F030F8EF
:100CE000356000E00124204670BD000004000020B3
:100CF000100000200A4882B0016E41F00101016637
:100D0000016E01F001010091816D41F0805181651A
:100D1000806D00F08050009002B000F0A1B800009B
:100D200000100240002809DB00F01F020121914061
:100D30004009800000F1E020C0F800117047000079
:100D4000F0B40E4B1B680C46C3F30223C3F1070536
:100D5000042D00D90425191D072901D2002300E024
:100D6000DB1E012606FA05F1491E214099409E40EE
:100D7000761E16403143F0BC02F01CBA0CED00E0C8
:100D8000064900F0070208684FF6FF03184040EAE2
:100D90000220034A10430860704700000CED00E099
:100DA0000000FA052B492C4B0A6832214A432B4993
:100DB00040B1B0F5007F086829D020F4C06040F44D
:100DC00080602CE00868C0F34120022804D051F86C
:100DD000800F20F4807022E0D1F8800020F4807031
:100DE000C1F88000086820F4C06040F4007008601A
:100DF000B2FBF3F0401C00E0401E4A69520501D5E9
:100E00000028F9D1486940050AD503207047C0F38E
:100E10004120022806D051F8800F40F4807008600D
:100E200000207047D1F8800040F48070C1F8800045
:100E3000086820F4C06040F400700860B2FBF3F072
:100E4000401C00E0401E4A695205DBD50028F9D15C
:100E5000D8E700001000002040420F000070004062
:100E60000248816841F48041816070470070004011
:100E70002DE9F843044600680026BB4D00035ED50B
:100E8000A86D0027C00008D4A86D40F08050A86568
:100E9000A86D012700F080500090DFF8D092D9F8BB
:100EA000001041F48071C9F80010FFF7B9FC8046CA
:100EB00006E000BFFFF7B4FCA0EB080002282BD827
:100EC000D9F80000C005F5D5D5F8900010F44070B1
:100ED00014D0216D814211D0D5F89000D5F8901032
:100EE00020F4407041F48031C5F89010D5F890108E
:100EF00021F48031C5F89010C5F89000C00711D0DA
:100F0000FFF78EFC804641F2883907E0FFF788FC46
:100F1000A0EB0801494501D903260BE0D5F8900064
:100F20008007F3D5D5F89000216D20F44070084378
:100F3000C5F890001FB1A86D20F08050A8652078FA
:100F4000C00707D0D5F88800616820F00300084387
:100F5000C5F888002078800707D5D5F88800A168F3
:100F600020F00C000843C5F888002078400707D51A
:100F7000D5F88800E16820F030000843C5F8880003
:100F80002078000707D5D5F88800216920F0C00037
:100F90000843C5F888002078C00607D5D5F8880032
:100FA000616920F440700843C5F888002078800605
:100FB00007D5D5F88800A16920F440600843C5F83A
:100FC00088002078400607D5D5F88800E16920F42C
:100FD00040500843C5F888002078000607D5D5F8AA
:100FE0008800216A20F440400843C5F88800208822
:100FF000C00507D5D5F88800616A20F44030084361
:10100000C5F888002068800307D5D5F89C00A16A40
:1010100020F003000843C5F89C002088800507D510
:10102000D5F88800E16A20F440200843C5F888001C
:10103000208840050FD5D5F88800216B20F440109A
:101040000843C5F88800206BB0F5801F03D1E8681D
:1010500040F48010E860208800050FD5D5F888009E
:10106000616B20F440000843C5F88800606BB0F560
:10107000800F03D1E86840F48010E8602088C00445
:101080000FD5D5F88800A16B20F040700843C5F853
:101090008800A06BB0F1807F03D1E86840F4801035
:1010A000E86020884FF0006180040ED5D5F88800F4
:1010B000E26B20F040601043C5F88800E06B884286
:1010C00003D1E86840F48010E860208840040ED521
:1010D000D5F88800226C20F040601043C5F88800E5
:1010E000206C884203D1E86840F48010E8602088D2
:1010F00000040FD5D5F88800616C20F040500843FB
:10110000C5F88800606CB0F1805F03D1E86840F4F6
:101110008030E8602068C0030FD5D5F88800A16C46
:1011200020F040400843C5F88800A06CB0F1804F23
:1011300003D1E86840F48030E860206840030FD5B0
:10114000D5F89C00E16C20F440100843C5F89C00E1
:10115000E06CB0F5001F03D1E86840F48010E8604F
:101160003046BDE8F88300000010024000700040E7
:101170002DE9F0470E4605004FF0000725D0DFF8B7
:10118000AC81D8F8000000F00F00B0420CD2D8F8C3
:10119000001021F00F013143C8F80010D8F800000A
:1011A00000F00F00B04210D12968614CC80741F22D
:1011B000883A5AD06868DFF87C91032808D0022862
:1011C00020682DD0400500282CDB0120BDE8F087E9
:1011D00020688001F9D5E06800F00302E068C0F300
:1011E0000310401C032A19D0534A00BFB2FBF0F091
:1011F000E268C2F306225043E268C2F34162521C25
:101200005200B0FBF2F0484517D9A06810F0F00F7B
:101210000CD0880711D5A86840B10EE0474AE5E731
:101220008003D0E700F0B6F8484506D9A06820F062
:10123000F00040F08000A0608027A068696820F07E
:1012400003000843A060FFF7EBFA814606E000BF09
:10125000FFF7E6FAA0EB090151453AD8A0686968A2
:1012600000F00C00B0EB810FF2D12868810714D593
:10127000400703D5A06840F4E060A060287800072C
:1012800005D5A06820F4605040F4E060A060A0683C
:10129000A96820F0F000084304E0802F03D1A06883
:1012A00020F0F000A060D8F80010404601F00F01D7
:1012B000B14216D9016821F00F0131430160FFF7F7
:1012C000AFFA074607E000BFFFF7AAFAC11B514576
:1012D00001D903207AE7D8F8000000F00F00B042EF
:1012E000F2D12878400705D5A068E96820F4E060CD
:1012F0000843A0602878000706D5A068296920F473
:10130000605040EAC100A06000F044F8A1680C4AB7
:10131000C1F30311515C01F01F01C8400949086085
:1013200009480068BDE8F047FFF7C2BC0020024052
:101330000010024000B4C4040024F40000127A003B
:10134000003700081000002004000020054806496E
:1013500000688968054AC1F30221515C01F01F0150
:10136000C8407047100000200010024010370008ED
:101370000548064900688968054AC1F3C221515CE5
:1013800001F01F01C840704710000020001002400B
:1013900010370008184910B58868C0F38102174853
:1013A000012A0BD08A684310C2F38102022A06D0B8
:1013B0008A68C2F38102032A03D0002010BD1846B8
:1013C00010BDCA6802F00304CA68C2F30312521CBB
:1013D000032C02D0B0FBF2F001E0B3FBF2F0CA68DC
:1013E000C968C2F306225043C1F34161491C490058
:1013F000B0FBF1F010BD0000001002400024F4002A
:101400002DE9F84304007AD02078F84DC00747D082
:10141000A868E96800F00C0001F003010C2802D074
:10142000082817D001E0032914D06068B0F5803F88
:1014300017D0B0F5A02F286817D020F4803028608E
:10144000286820F4802028606068E0B1FFF7E8F9A0
:10145000064614E02868800322D560680028D2D0B0
:101460001EE0286840F48030EDE740F480202860DA
:10147000F7E700BFFFF7D4F9801B642870D828680D
:101480008003F7D50CE0FFF7CBF9064605E000BF77
:10149000FFF7C6F9801B6428F0D828688003F7D4CA
:1014A000207880074CD5A868E96800F00C0001F0AE
:1014B00003010C2802D004280DD001E002290AD033
:1014C000E068002828682BD040F480702860FFF77F
:1014D000A7F9064619E02868400502D5E06800280B
:1014E00091D06868217C20F0FE4040EA016068608D
:1014F000BF480068FFF7DCFB002800D120E072E164
:10150000FFF78EF9801B0228B8D828684005F7D568
:101510006868217C20F0FE4040EA016068600FE0CE
:1015200020F480702860FFF77BF9064605E000BFD5
:10153000FFF776F9801B0228A0D828684005F7D469
:101540002078000729D560690028D5F8940013D0C9
:1015500040F00100C5F89400FFF762F9064606E086
:1015600090E000BFFFF75CF9801B022886D8D5F811
:1015700094008007F6D510E020F00100C5F8940033
:10158000FFF74EF9064604E0FFF74AF9801B0228F0
:1015900078D8D5F894008007F6D42078400761D534
:1015A000A86D0026C00008D4A86D40F08050A86542
:1015B000A86D012600F0805000908E480168C90592
:1015C00011D40168804641F480710160FFF728F969
:1015D000074604E0FFF724F9C01B022852D8D8F8C8
:1015E0000000C005F6D5A068012815D00528D5F85B
:1015F000900016D020F00100C5F89000D5F89000BA
:1016000020F00400C5F89000A06841F28838B8B115
:10161000FFF706F907460EE0D5F8900040F001000C
:10162000F0E740F00400C5F89000F5E7FFF7F8F8A0
:10163000C11B414526D8D5F890008007F6D50CE0AF
:10164000FFF7EEF8074604E0FFF7EAF8C11B414553
:1016500018D8D5F890008007F6D41EB1A86D20F0F8
:101660008050A8652078800629D5A0690028D5F883
:10167000980013D040F00100C5F89800FFF7D0F8AB
:10168000064606E075E000BFFFF7CAF8801B022897
:101690006FD8D5F898008007F6D510E020F001004B
:1016A000C5F89800FFF7BCF8064604E0FFF7B8F865
:1016B000801B02285DD8D5F898008007F6D4E06931
:1016C000F0B3A968C1F3810103295DD0022828681D
:1016D00020F08070286003D0FFF7A2F804464BE0AA
:1016E000FFF79EF8064604E0FFF79AF8801B0228F1
:1016F0003FD828688001F7D4F4E908016FF00F02A1
:1017000002EB01110843218A5204490802EB4151BE
:10171000A26841EA02210843217D4FF07E42490838
:1017200002EB41610843217B40EAC160E968324A2B
:1017300011400843E860286840F08070286000E0AD
:101740005EE0E86840F08070E860FFF769F8044602
:1017500005E000BFFFF764F8001B022809D82868DD
:101760008001F7D54CE000BFFFF75AF8001B0228B4
:1017700002D90320BDE8F88328688001F4D4E86822
:101780001E490840E8603BE00128F3D0E868226A7F
:1017900000F00301914226D1616A00F0F0020901D4
:1017A000103991421FD1A26A00F4FE41B1EB022F21
:1017B00019D194F82C2000F07841B1EBC26F12D10E
:1017C000218E00F4C00249084905A1F5001191429B
:1017D00009D194F8341000F0C06049084906A1F11D
:1017E000007181420CD00120C4E7000000100240CB
:1017F00004000020007000400C809F01FCFFEEFE02
:101800000020B7E72DE9F0411D4616460F460400BB
:1018100003D0D4F8880018B108E00120BDE8F081B9
:10182000002084F88400204600F05AFB2420C4F8ED
:1018300088002068016821F001010160A06A10B1F0
:10184000204601F02BFA204601F00CFB0128E5D0E0
:101850002068816841F4804181602068816821F4BA
:10186000004139438160700540EA05412068026803
:10187000064B1A400A4302602068016841F00101EA
:1018800001602046BDE8F04101F06CBAFFFF00FCAA
:1018900010B5401EB0F1807F01D3012010BD4FF084
:1018A000E02460610F21601701F084FC0020A0613A
:1018B00007202061002010BD7047704770477047B7
:1018C00070477047F0B590F83C20012A43D00125BD
:1018D00080F83C50022280F83D2003685A689C68DA
:1018E0001E4E1F4FDFF87CC0B34203D0BB4201D075
:1018F000634504D122F4700E4A6842EA0E02DFF812
:1019000068E002EA0E02D1F800E04EEA020EC3F8E7
:1019100004E00268B24212D0B2F1804F0FD0134BF4
:101920009A420CD0124B9A4209D0124B9A4206D0DE
:10193000BA4204D0104B9A4201D0624504D1896862
:1019400024F080031943916080F83D50002180F815
:101950003C100846F0BD0220F0BD0000002C014004
:1019600000340140005001408FFFFFFD00040040A3
:1019700000080040000C004000400140704710B5D6
:10198000040003D094F83D0010B107E0012010BD21
:10199000002084F83C00204600F022F8022084F861
:1019A0003D00211D206801F0ADF8012084F84800B9
:1019B00084F83E0084F83F0084F8400084F8410039
:1019C00084F8420084F8430084F8440084F8450019
:1019D00084F8460084F8470084F83D00002010BDDC
:1019E00008B501681448B1F1804F14D0134A9142F0
:1019F00020D1816D41F002018165806D002200F0EF
:101A00000200009011461D20FFF79AF91D20BDE845
:101A10000840FFF787B9816D41F001018165806D54
:101A2000002200F00100009011461C20FFF788F909
:101A30001C20ECE708BD000000100240000400403C
:101A400090F83D10012901D001207047022180F853
:101A50003D100168CA6842F00102CA60006813497B
:101A6000884214D0B0F1804F11D0114988420ED075
:101A7000104988420BD01049884208D00F4988424B
:101A800005D00F49884202D00E49884207D18168AB
:101A90000D4A1140062906D0B1F5803F03D00168F8
:101AA00041F001010160002070470000002C01405E
:101AB0000004004000080040000C004000340140D9
:101AC00000400140005001400700010070B504468D
:101AD00090F83C00002501281CD0012684F83C60C9
:101AE000022084F83D0022689068334B184020F4AF
:101AF0007F4090600868B0F5005F2ED016DC40286B
:101B000049D009DCD0B1102818D0202816D03028B0
:101B100049D113E0022070BD50282AD0602830D06F
:101B200070280FD0B0F5805F3DD13DE010F00F0F71
:101B300039D10111A1F58031072934D82268014635
:101B4000104625E0CB68D1E90121206801F04CF86E
:101B50002068816841F0770109E0CB68D1E9012173
:101B6000206801F041F82068816841F4804181607B
:101B70001AE0CA684968206801F04AF850212068D4
:101B800006E0CA684968206801F053F860212068BF
:101B900001F034F808E0CA684968206801F038F8B4
:101BA00040212068F4E7012584F83D60002084F896
:101BB0003C00284670BD000088FFCEFF70472DE92D
:101BC000F04104460068C66805694FF00007A907A0
:101BD00013D5B10711D5F91E0161012020772068C6
:101BE00080698007204602D0FFF7E8FF04E000F09C
:101BF000B7F8204600F0B5F82777680716D57007C4
:101C000014D521686FF00400086102202077206855
:101C1000806910F4407F204602D0FFF7CFFF04E038
:101C200000F09EF8204600F09CF82777280715D58D
:101C3000300713D521686FF0080008610420207771
:101C40002068C0698007204602D0FFF7B7FF04E094
:101C500000F086F8204600F084F82777E80616D5CD
:101C6000F00614D521686FF0100008610820207775
:101C70002068C06910F4407F204602D0FFF79EFF25
:101C800004E000F06DF8204600F06BF82777E807D5
:101C900008D0F00706D021686FF0010008612046E7
:101CA00000F060F8280601D4A80408D5300606D54F
:101CB00021686FF4025008612046FFF7FEFDE80539
:101CC00008D5300606D521686FF48070086120467B
:101CD000FFF7F2FD680608D5700606D521686FF09B
:101CE00040000861204600F059F8A80608D5B00663
:101CF00006D521686FF0200008612046FFF7DEFD61
:101D0000E80208D5F00206D521686FF4801008615A
:101D10002046FFF7D5FDA80208D5B00206D52168F8
:101D20006FF4001008612046FFF7C9FD680208D56E
:101D3000700206D521686FF4800008612046FFF725
:101D4000C0FD28020AD5300208D521686FF40000D2
:101D500008612046BDE8F041FFF710BEBDE8F08104
:101D6000704770470068B0F1804F0FD10848018874
:101D7000491C89B20180322904D300210180054920
:101D80000120087080210448FEF73CBD7047000028
:101D9000020000200000002000040048704790F876
:101DA0008410012918D0012180F884102421C0F862
:101DB000881001680A680B6823F001030B6022F0A9
:101DC000005100224266036819602021C0F8881083
:101DD00080F88420104670470220704770B5044692
:101DE00090F8840001281DD0012084F8840024206C
:101DF000C4F8880020680568026822F001020260C9
:101E00002068826822F060620A438260204600F007
:101E100023FF206805602020C4F88800002084F893
:101E2000840070BD022070BD70B5044690F8840037
:101E300001281DD0012084F884002420C4F88800E3
:101E400020680568026822F001020260206882684A
:101E500022F060420A438260204600F0FDFE2068C6
:101E600005602020C4F88800002084F8840070BD3C
:101E7000022070BD10B5040003D0D4F8880010B162
:101E800007E0012010BD002084F88400204600F007
:101E900027F82420C4F888002068016821F0010197
:101EA0000160A06A10B1204600F0F8FE204600F064
:101EB000D9FF0128E6D02068416821F490414160B3
:101EC0002068816821F02A0181602068016841F062
:101ED000010101602046BDE8104000F043BF000052
:101EE0002DE9F0479CB00446142115A8FEF7C8F967
:101EF00054216846FEF7C4F982492068824CDFF815
:101F00000CA2022600254FF00808884221D120208B
:101F1000009006956846FEF7ABFF08B1FEF7EEF9B4
:101F2000E06D40F00100E065E06D00F001001A9006
:101F3000E06C40F00400E064E06CCDE9166500F070
:101F400004001A900320CDE91858159015A95046A1
:101F50001EE06F4905274FF4406988421DD168464D
:101F6000CDF800800495FEF783FF08B1FEF7C6F9AF
:101F7000A06D40F40020A065A06D00F400201A9030
:101F8000E06C40F00400E064E06C00F00400AFE0BE
:101F9000FEF714FB1CB0BDE8F0875E494FF0040863
:101FA000884232D11020059500906846FEF760FF08
:101FB00008B1FEF7A3F9A06D40F48010A065A06DF4
:101FC00000F480101A90E06C40F00400E064E06CD3
:101FD00000F004001A90E06C40F00800E064E06C4F
:101FE000CDE9166500F008001A904FF48050CDE955
:101FF0001857159015A95046FEF7E0FACDE9166579
:10200000CDF8548015A9444853E044490727884235
:102010001AD10120CDE900056846FEF729FF08B175
:10202000FEF76CF9206E40F480402066206E00F4CC
:1020300080401A90E06C40F00400E064E06C00F036
:1020400004001A9030202FE03549DFF8D8A08842EC
:1020500032D1684600960295FEF70AFF08B1FEF7F6
:102060004DF9A06D40F40030A065A06D00F4003083
:102070001A90E06C40F00100E064E06C00F00100B8
:102080001A90E06C40F00200E064E06CCDE9166567
:1020900000F0020015961895CDE9197015A94FF0BA
:1020A0009040FEF78BFA1820CDE91665159015A91A
:1020B0005046CDE918576BE71B4988427FF46AAF59
:1020C0006846CDF800800395FEF7D2FE08B1FEF712
:1020D00015F9A06D40F48020A065A06D00F480206B
:1020E0001A90E06C40F00200E064E06C00F0020046
:1020F000CDE91665CDF854901895CDE9197015A95C
:10210000504645E7008000400010024000080048AB
:10211000004C004000500040000C004800380140D6
:102120000044004000040048004800402DE9F84306
:102130000446D0F88800984616460D46202802D05E
:102140000220BDE8F883A5B19EB10020C4F890003C
:102150002120C4F888001834FEF762FBA687814668
:10216000E68754F8100C2027183CB0F5805F02D0A9
:1021700003E00120E5E7206910B12E46002510E0BC
:1021800000260EE08021204600F0B8FFC0B9DEB185
:1021900016F8010B21688862B4F85600401EA4F8B6
:1021A0005600B4F856004B464FF00002CDF80080C0
:1021B0000028E7D14FF04001204600F09FFF40B1DA
:1021C000C4F888700320BCE735F8020BC0F30800A0
:1021D000E0E7C4F888700020B3E7FEE701688A6989
:1021E000D243920701D400228A6200688169C94300
:1021F000C90703D0816941F0010181617047000086
:102200002DE9F04704460068894600268169354675
:102210001746C9064FF0200841D51021C1612FE0B3
:10222000B9F1FF3F2CD0FEF7FBFAC11B494502D89C
:10223000B9F1000F24D12068416894F8422001F4DC
:1022400080418369DB431B0415D4B1F5804F12D064
:10225000202A10D0416841F480414160FEF7E0FA45
:10226000074608E0FEF7DCFAC01B192803D945F041
:102270002005012604E020688069C0438006F1D46F
:1022800020688069C043800602D5002EC8D003E0D4
:1022900016B92168C1F81C8045F0040501262168A3
:1022A0008869C20505D54FF4807245F00105CA6101
:1022B0000126410509D522684FF4806145F00805E3
:1022C000D1610126800502D40AE0800507D5216886
:1022D0004FF4007045F00205C861012600E086B1A8
:1022E0002046FFF77BFF54F8240B4168064A114053
:1022F0004160206A2843206284F81D800020A07776
:1023000020773046BDE8F08700E800FE10B5C1F345
:10231000090141EA02410268029C194321435068C5
:1023200021F000414FF4806303EA5453024C2343ED
:1023300098430843506010BDFF63FF032DE9F0414F
:102340001D4617460E460446DDF8188027E0424633
:1023500029462046FFF754FF10B10120BDE8F08167
:10236000681C1CD0FEF75CFAA0EB0800A84200D85D
:10237000ADB92068806936EA00000ED00020B8426E
:102380000DD154F8440F40F0200044F804092020F7
:1023900060700020A0702070DFE70120EFE7206868
:1023A000806936EA000004D00020B842CFD0002077
:1023B000D4E70120F9E700002DE9F0470025914618
:1023C000884604462E4620273DE04A4641462046A0
:1023D000FFF716FF00B1012520688169C94389060E
:1023E00019D4C5B981698169C943C90612D41021BC
:1023F000C161042060642068C76120684168174A91
:102400001140416084F8417084F8426084F8406073
:10241000012500E06664FEF703FAA0EB09014145DF
:1024200002D8B8F1000F0ED16DB920688069C043A1
:10243000400708D5606C40F02000606484F841706B
:1024400084F84060012520688069C043400701D5B9
:10245000002DBAD02846BDE8F087000000E800FE55
:1024600070B516460D4604461EE032462946204603
:10247000FFF7C6FE08B1012070BDFEF7D1F9801B41
:10248000A84200D885B920688069C04380060BD572
:1024900054F8440F40F0200044F8040920206070F4
:1024A0000020A0702070E6E720688069C0438006A5
:1024B000DBD4002070BD70B516460D46044620E002
:1024C000324629462046FFF79BFE08B1012070BD29
:1024D000681C16D0FEF7A4F9801BA84200D885B965
:1024E00020688069C04380070BD554F8440F40F042
:1024F000200044F80409202060700020A0702070A3
:10250000E4E720688069C0438007D9D4002070BD0B
:10251000114810B50F490160002141608160C16020
:102520000174417481741022426101228261C2618E
:10253000026242628262C262C0E90C218163C163AD
:10254000FDF7F0FE002803D0BDE81040FDF7D6BE31
:1025500010BD0000006800401C00002010B586B0CF
:1025600014216846FDF78CFE1D48C16C41F0040142
:10257000C164C16C01F004010591C16C41F02001FE
:10258000C164C16C01F020010591C16C41F00101F1
:10259000C164C16C01F001010591C16C41F00201FF
:1025A000C164C16C01F002010591C16C41F00801E8
:1025B000C164C06C0B4C00F0080005900122C021E2
:1025C0002046FEF727F9C0200121CDE900010220B5
:1025D000CDE9021069462046FDF7F0FF06B010BDB8
:1025E0000010024000040048134810B51149016072
:1025F0001249416000210122C0E9021201614161DA
:102600008161C1610162FEF765F908B1FDF776FEEF
:1026100000210948FEF70AF908B1FDF76FFE002115
:102620000548FEF72EF9002803D0BDE81040FDF75D
:1026300065BE10BD005800408000002075507160DC
:10264000174810B5154901604FF4E1314160002190
:1026500081600C22C160C0E90412816101624162A3
:102660008162FFF707FC08B1FDF748FE00210C4826
:10267000FFF7DAFB08B1FDF741FE00210848FFF73C
:10268000ADFB08B1FDF73AFE0548FFF788FB0028CF
:1026900003D0BDE81040FDF731BE10BD0080004002
:1026A000D400002010B588B000241748009401948D
:1026B00002940394049405944FF0804106940160C1
:1026C00040F29F51C0E901146321C0E90314846101
:1026D000FFF755F908B1FDF711FE4FF48050009057
:1026E00069460948FFF7F2F908B1FDF707FE0494BF
:1026F00004A905480694FFF7E5F8002801D0FDF786
:10270000FDFD08B010BD00004C04002010B588B0DD
:1027100000241748009401940294039404940594AF
:1027200012490694016040F29F51C0E901146321EF
:10273000C0E903148461FFF722F908B1FDF7DEFD5B
:102740004FF48050009069460948FFF7BFF908B17F
:10275000FDF7D4FD049404A905480694FFF7B2F8E8
:10276000002801D0FDF7CAFD08B010BD00040040EC
:1027700098040020184810B5164901604FF4E13163
:102780004160002181600C22C160C0E904128161B6
:10279000C161016241628162FFF76CFB08B1FDF724
:1027A000ADFD00210C48FFF73FFB08B1FDF7A6FD8A
:1027B00000210948FFF712FB08B1FDF79FFD06480D
:1027C000FFF7EDFA002803D0BDE81040FDF796BDF5
:1027D00010BD0000004C004068010020184810B5F2
:1027E000164901604FF4E1314160002181600C2203
:1027F000C160C0E904128161C1610162416281620C
:10280000FFF738FB08B1FDF779FD00210C48FFF711
:102810000BFB08B1FDF772FD00210948FFF7DEFA56
:1028200008B1FDF76BFD0648FFF7B9FA002803D0A1
:10283000BDE81040FDF762BD10BD00000050004033
:10284000FC010020184810B5164901604FF4E13131
:102850004160002181600C22C160C0E904128161E5
:10286000C161016241628162FFF704FB08B1FDF7BB
:1028700045FD00210C48FFF7D7FA08B1FDF73EFDF2
:1028800000210948FFF7AAFA08B1FDF737FD06480D
:10289000FFF785FA002803D0BDE81040FDF72EBDF4
:1028A00010BD00000038014090020020194810B50A
:1028B000174901604FF4E1314160002181600C2231
:1028C000C160C0E904128161C161016241620B46CD
:1028D0000A468162FEF796FF08B1FDF70FFD002161
:1028E0000C48FFF7A1FA08B1FDF708FD00210948DF
:1028F000FFF774FA08B1FDF701FD0648FFF74FFA3C
:10290000002803D0BDE81040FDF7F8BC10BD000062
:102910000044004024030020184810B51649016007
:102920004FF4E1314160002181600C22C160C0E9B7
:1029300004128161C161016241628162FFF79AFA0A
:1029400008B1FDF7DBFC00210C48FFF76DFA08B178
:10295000FDF7D4FC00210948FFF740FA08B1FDF764
:10296000CDFC0648FFF71BFA002803D0BDE8104055
:10297000FDF7C4BC10BD000000480040B8030020B3
:10298000FEE7FEE7704700002DE9FF410F460321F7
:102990004500984616468DF80C101424012303AA0E
:1029A00029460E480094FEF785F838B9062301AA97
:1029B00029460A480094FDF7EBFF18B1012004B046
:1029C000BDE8F081BDF804003880BDF80600308015
:1029D000BDF80810A8F800100020F0E780000020E3
:1029E0007FB5134D114803AB297802AA445C01A9B5
:1029F0002046FFF7C9FF60B121460EA000F0CAFBD8
:102A000028780521401CB0FBF1F201FB1200287070
:102A10007FBDBDF90C000090BDF90830BDF9042060
:102A200021460AA000F0B6FBEAE7000018370008CC
:102A300014000020413D3078253032582C2052655A
:102A40006164204661696C0D0A000000413D3078E8
:102A5000253032582C20583D25642C20593D2564C2
:102A60002C205A3D25640D0A000000007047FEF737
:102A700007B900B593B038216846FDF701FC142171
:102A80000EA8FDF7FDFB4FF40070FEF78BF9022056
:102A9000C1010391402104910121CDE90801009079
:102AA0001221CDE90A1007900C900D906846FEF7B0
:102AB000A7FC08B172B6FEE70F200E9003200F901E
:102AC000002010901190129004210EA8FEF750FBE8
:102AD000002801D072B6FEE713B000BD02480168BD
:102AE00041F470010160704788ED00E00148FFF794
:102AF00066B800004C0400200148FFF760B80000F1
:102B0000980400202DE9F04F02682E4B2E4E2F4FD7
:102B1000DFF8BCC02F4C304D4FF0804B98420BD0AB
:102B2000584509D0B04207D0B84205D0604503D01F
:102B3000A04201D0A84204D122F070084A6842EABB
:102B40000802DFF89880DFF89890DFF898A09842A4
:102B500011D058450FD0B0420DD0B8420BD06045CF
:102B600009D0A04207D0404505D0484503D0504584
:102B700001D0A84203D122F44076CA6832434E699C
:102B800022F08002324302608A68C2620A6882626E
:102B9000984209D0A04207D0404505D0484503D00F
:102BA000504501D0A84201D1096901630121416169
:102BB0000169C90703D0016921F001010161BDE884
:102BC000F08F0000002C014000040040000800408D
:102BD000000C004000340140005001400040014022
:102BE000004401400048014010B5846842EA0322D5
:102BF00024F47F440A432243826010BD8268034B61
:102C00001A400A4342F00701816070478FFFCFFFEF
:102C100010B5036A046A24F001040462846924F094
:102C2000F00444EA021423F00A020A4384610262B7
:102C300010BD10B5036A046A24F0100404628469AC
:102C400023F0A00324F4704444EA023243EA011161
:102C50008261016210BD000030B5416EB9B10268F9
:102C600091689268C1F342610B4B520F9C5CE50086
:102C700003F10804A25CB5FBF2F2A0F86A205A5CEA
:102C8000615CD200B2FBF1F1A0F8681030BD012107
:102C9000A0F86A10F8E70000F036000890F8281055
:102CA000090706D501684A68836B22F400421A437B
:102CB0004A6090F82810C90706D001684A68C36ABC
:102CC00022F400321A434A6090F82810890706D58A
:102CD00001684A68036B22F480321A434A6090F814
:102CE0002810490706D501684A68436B22F4802200
:102CF0001A434A6090F82810C90606D501688A6808
:102D0000C36B22F480521A438A6090F82810890617
:102D100006D501688A68036C22F400521A438A605F
:102D200090F82810490611D501684A68436C22F4CE
:102D300080121A434A60416CB1F5801F06D10168C8
:102D40004A68836C22F4C0021A434A6090F8281043
:102D5000090606D501684A68C06C22F400220243C5
:102D60004A6070472DE9F84300260446C0F8906099
:102D7000FDF756FD8046206800684FF020050007EB
:102D80006FF07E4713D54346002229042046009762
:102D900000F0B4F958B1216851E8000F20F080002C
:102DA00041E80002002AF6D1C4F8885021E02068EA
:102DB0000068400722D5434600224FF48001204698
:102DC000009700F09BF9C8B1216851E8000F20F48A
:102DD000907041E80002002AF6D12068083050E8DF
:102DE000001F21F0010140E80012002AF5D1C4F8CB
:102DF0008C5084F884600320BDE8F883C4F88850C0
:102E0000C4F88C5044F86C6F666026760020F3E7B7
:102E100010B5026852E8001F21F4907142E80013D7
:102E2000002BF6D10E4B0268083252E8001F194001
:102E300042E80014002CF6D1C16E012908D10168C6
:102E400051E8002F22F0100241E80023002BF6D1B8
:102E50002021C0F88C100021C166416710BD000020
:102E6000FEFFFFEF2DE9F04104460168806822690A
:102E7000E3691043626900251A431043DFF84CC22E
:102E80000A68934B1A4002430A6020684168E2686E
:102E900021F44051114341602168A069614501D08E
:102EA000226A10438A688B4B1A4002438A6020686A
:102EB000C16A626A21F00F011143C1628649236829
:102EC00086488B420DD1D0F8880010F0030006D060
:102ED000012867D0022854D0032851D164E0012092
:102EE0004FE07F498B420BD1D0F8880010F00C00E6
:102EF00047D0042845D0082852D00C2840D153E0B0
:102F000078498B420BD1D0F8880010F0300038D0CF
:102F1000102847D0202843D0302831D144E07249CE
:102F20008B420BD1D0F8880010F0C00029D0402887
:102F300038D0802834D0C02822D135E06B498B426C
:102F40000ED1D0F8880010F440701AD0B0F5807F10
:102F500028D0B0F5007F23D0B0F5407F10D123E01A
:102F600063450DD1D0F8880010F4406009D0B0F569
:102F7000806F17D0B0F5006F12D0B0F5406F13D04E
:102F800010205B4A5B4F00264FF40041634539D166
:102F900060B102280DD004280DD0082831D10EE0F0
:102FA0000220EEE70420ECE70820EAE7FEF7CEF97E
:102FB00003E0114603E0FEF7EDF901007BD0606A03
:102FC00037F810206768B1FBF2F007EB4703834244
:102FD00069D8B0EB073F66D8002308461946FDF7CD
:102FE00017F9090241EA10610202780810187141CC
:102FF0003A460023FDF70CF93F4AA0F54071914293
:1030000057D950E0E3694FF6EF788B422BD109286E
:1030100049D2DFE800F005080D48254848480E0071
:10302000FEF794F901E0FEF7A3F9010001D142E0B7
:103030001146606A37F81000B1FBF0F0410060689B
:1030400001EB5001B1FBF0F1A1F1100040452AD88D
:103050004FF6F07201EA0200C1F34201084328E092
:10306000FEF798F9E1E709281DD2DFE800F005082E
:103070000D1C1E1C1C1C0E00FEF768F901E0FEF77B
:1030800077F9010001D116E01146606A37F81000A7
:10309000B1FBF0F1606801EB5001B1FBF0F0A0F181
:1030A0001001414504D9012505E0FEF773F9E8E771
:1030B00080B22168C8600120A4F86A0024F8680F73
:1030C0002846E6602661BDE8F081000000800040EF
:1030D000F369FFCFFFF4FF110038014000100240F8
:1030E0000044004000480040004C004000500040B8
:1030F0000024F400D8360008FFFC0F002DE9F0474B
:10310000994617460D4604464FF00008089E33E0E6
:10311000701C31D0FDF784FBA0EB0900B04218D839
:10312000BEB120680168490726D5802D24D0402DE6
:1031300022D0C169C94309070DD40825056220467C
:10314000FFF766FEC4F8905084F884800120BDE843
:10315000F0870320FBE7C069C04300050CD4216859
:103160004FF4006008622046FFF752FE2020C4F8AA
:10317000900084F88480ECE72068C06935EA00009C
:1031800004D00020B842C3D00020E0E70120F9E7D6
:10319000FEE700000FB4054B10B503A9044A0298DE
:1031A00000F028F810BC5DF814FB00005936000848
:1031B000180000200907090E002804DB00F1E020B8
:1031C00080F80014704700F00F0000F1E02080F854
:1031D000141D704702E008C8121F08C1002AFAD166
:1031E00070477047002001E001C1121F002AFBD187
:1031F000704700002DE9FF4F8DB00F4605460026B1
:1032000006E025280BD0DDE90F1290476D1C761CD7
:1032100028780028F5D111B03046BDE8F08F0024A1
:10322000A246A1460122EC4900E0044315F8013F03
:10323000203B02FA03F00842F7D128782A2810D060
:103240006FF02F022878A0F13001092914D80AEB79
:103250008A0102EB410144F0020400EB010A6D1CFB
:10326000F0E701CF5FEA000A03D544F40054CAF145
:10327000000A44F002046D1C28782E2817D115F896
:10328000010F44F004042A280ED06FF02F02287892
:10329000A0F1300109290AD809EB890102EB4101AB
:1032A00000EB01096D1CF2E757F8049B6D1C2878B0
:1032B0006C280FD006DC4C2817D068280DD06A285F
:1032C00014D104E0742810D07A280FD10DE044F412
:1032D00000140AE044F4801401E044F440146978D6
:1032E000814202D104F580146D1C6D1C2A786E2A6F
:1032F0001FD00CDC632A31D004DC002A8BD0582A82
:1033000011D1A3E0642A68D0692A0CD165E0732A40
:103310002ED004DC6F2A73D0702A04D19BE0752A6A
:103320006FD0782A6ED01046DDE90F129047761CD8
:1033300050E1C4F30250022806D0032809D0042823
:1033400001CF09D0066045E101CFF117C0E9006166
:1033500040E101CF06803DE106703BE117F8040B28
:103360008DF8000000208DF80100EB46012003E0FD
:1033700057F804BB4FF0FF3061074FF0000102D453
:103380000DE008F10101884649450FDA8045F8DB78
:103390001BF808100029F4D108E008F10101884663
:1033A0008142FADB1BF808100029F6D1DDE90F2372
:1033B000AAEB08008146214600F036F9304400EBC4
:1033C000080604E0DDE90F121BF8010B9047B8F185
:1033D0000108F7D221464846F7E00A21C4F3025318
:1033E0004FF0000B0891022B04D001CFC117032B23
:1033F00009D00AE0FF1D27F00707F7E8020108E0FF
:1034000032E01FE020E000B2C117042B01D140B22E
:10341000C117031E71F1000307DA4FF0000CD0EB67
:103420000C006CEB01012D2302E0230504D52B23B6
:103430008DF82430012303E0E30701D02023F7E7D0
:10344000984658E00A2110E010210EE010204FF0BD
:10345000000B08900CE010214FF0000B44F0040426
:103460004FF00809089103E008214FF0000B089184
:10347000C4F30253022B04D001CF0021032B06D04A
:1034800006E0FF1D27F00707F7E8020103E080B21E
:10349000042B00D1C0B24FF0000823072BD5702AAF
:1034A00007D0DDF820C08CF0100C5CEA0B0C05D0C6
:1034B0000EE040238DF82430012308E050EA010398
:1034C00006D030238DF824308DF82520022398462D
:1034D000DDF820C08CF0080C5CEA0B0C0BD150EA34
:1034E000010301D1630706D530238DF824304FF056
:1034F0000108A9F10109582A04D038A20B9208AAA0
:103500000A920BE03AA2F9E75B46089AFCF780FEC4
:103510000B9B9B5C0A9A521E0A92137050EA01029E
:10352000F2D10A98ADEB000000F1200B600702D544
:1035300024F4803401E04FF00109D94502DDA9EB04
:103540000B0000E0002000EB0B0141440890AAEBC7
:10355000010AE00306D4DDE90F232146504600F0BE
:1035600063F806444FF0000908E009A911F80900C2
:10357000DDE90F12904709F10109761CC145F4DB22
:10358000E0030CD5DDE90F232146504600F04CF84E
:10359000064404E0DDE90F1230209047761C0899BC
:1035A000481E08900029F5DC08E00A980A9900787E
:1035B000491C0A91DDE90F129047761CBBF100010E
:1035C000ABF1010BF1DC21465046DDE90F2300F0A1
:1035D00019F806446D1C1BE609280100303132330E
:1035E000343536373839616263646566000000003F
:1035F0003031323334353637383941424344454629
:10360000000000002DE9F041044600251E46174643
:10361000880404D405E039462020B0476D1C641EA0
:10362000F9D52846BDE8F0812DE9F0410446002592
:103630001E469046C80301D5302700E020278804A5
:1036400004D505E041463846B0476D1C641EF9D5E7
:103650002846BDE8F081000013B54FF6FF73012244
:1036600069460248FEF762FD00981CBDD4000020A8
:10367000FDF70EFBFFF7FDF9FEF770FFFEF7E0FF29
:10368000FFF778F8FFF7AAF8FFF7DCF8FFF70EF975
:10369000FFF742F9FEF73CFFFFF738F8FEF7A4FF0B
:1036A000FFF700F84FF47A70FCF72AFE0748FEF7A0
:1036B000C7F90748FEF7C4F9064C00252078002812
:1036C000FCD02570FFF78CF9F8E700009804002083
:1036D0004C0400200000002001000200040006004D
:1036E00008000A000C0010002000400080000001CB
:1036F000010101030701000008040204080101019F
:103700000000000000000000010203040607080991
:1037100000000000010203040A0B0C0D0E00000063
:1037200040370008000000201C000000D4310008D1
:103730005C3700081C000020CC080000E4310008C1
:103740000000000010000000010000000000000068
:0C3750000024F400000000000000000055
:04000005080001D915
:00000001FF
