:020000040800F2
:100000004814002079020008033000088524000805
:10001000013000085B050008B1370008000000004F
:100020000000000000000000000000003130000867
:100030005D050008000000000530000833300008AE
:10004000930200089302000893020008930200083C
:10005000930200089302000893020008930200082C
:10006000930200089302000893020008930200081C
:10007000930200089302000893020008930200080C
:1000800093020008930200089302000893020008FC
:1000900093020008930200089302000893020008EC
:1000A00093020008930200089302000893020008DC
:1000B00093020008F1300008930200089302000840
:1000C00093020008930200089302000893020008BC
:1000D0009302000899370008A5370008930200082A
:1000E000930200089302000893020008930200089C
:1000F000930200089302000893020008930200088C
:10010000930200089302000893020008930200087B
:10011000930200089302000893020008930200086B
:10012000930200089302000893020008930200085B
:10013000930200089302000893020008930200084B
:10014000930200089302000893020008930200083B
:10015000930200089302000893020008930200082B
:10016000930200089302000893020008930200081B
:10017000930200089302000893020008930200080B
:1001800093020008930200089302000893020008FB
:100190009302000800000000930200089302000888
:1001A00093020008930200089302000893020008DB
:1001B00093020008930200089302000893020008CB
:1001C00093020008930200089302000893020008BB
:1001D000930200089302000800F002F800F03CF8D7
:1001E0000AA090E8000C82448344AAF10107DA4592
:1001F00001D100F031F8AFF2090EBAE80F0013F0A8
:10020000010F18BFFB1A43F001031847343A0000EE
:10021000543A0000103A24BF78C878C1FAD852077F
:1002200024BF30C830C144BF04680C607047000070
:100230000023002400250026103A28BF78C1FBD8EF
:10024000520728BF30C148BF0B6070471FB503F08D
:10025000D1FB1FBD10B510BD00F046F91146FFF7E8
:10026000F5FF03F099FB00F064F903B4FFF7F2FF28
:1002700003BC00F06BF900000948804709480047BB
:10028000FEE7FEE7FEE7FEE7FEE7FEE7FEE7FEE746
:10029000FEE7FEE704480549054A064B70470000A3
:1002A000A1300008D9010008480E002048140020A1
:1002B000481000204810002053EA020C00F069802A
:1002C0002DE9F04B4FF00006002B1FBFB3FA83F56A
:1002D00003FA05F424FA05F65E4012BF1643B2FA9B
:1002E00082F502FA05F4C5F120051EBF22FA05FCCD
:1002F00044EA0C04203556EA044C4FEA144418BF73
:10030000641C4FF000084FF00009904271EB030CA1
:1003100039D3002919BFB1FA81F701FA07F6B0FA0B
:1003200080F700FA07F6C7F120071EBF20FA07FC86
:1003300046EA0C062037B6FBF4FCA7EB0507103F96
:1003400007F01F0BCBF120060CFA0BFB2CFA06F67C
:1003500044BFB3460026202FA4BF5E464FF0000BDB
:100360005BEA060C08BF4FF0010B19EB0B09ABFB66
:10037000027C48EB0608C01B06FB02CC0BFB03CC3F
:1003800071EB0C01C1E70B46024641464846BDE809
:10039000F08B13B54FF000004FF00001AFF3008079
:1003A000BDE81C407047032A40F2308010F0030C77
:1003B00000F0158011F8013BBCF1020F624498BFB8
:1003C00011F801CB00F8013B38BF11F8013BA2F155
:1003D000040298BF00F801CB38BF00F8013B11F0D0
:1003E000030300F04F80083AC0F0088051F8043B46
:1003F000083A51F804CBA0E80810F5E7121D5CBFDD
:1004000051F8043B40F8043BAFF30080D20724BF0F
:1004100011F8013B11F801CB48BF11F8012B24BFA3
:1004200000F8013B00F801CB48BF00F8012B7047F2
:100430004FF0000200B5134694469646203922BF7D
:10044000A0E80C50A0E80C50B1F12001BFF4F7AFC8
:10045000090728BFA0E80C5048BF0CC05DF804EBAA
:10046000890028BF40F8042B08BF704748BF20F818
:10047000022B11F0804F18BF00F8012B7047704716
:100480007047704710B5203AC0F00B80B1E81850A3
:10049000203AA0E81850B1E81850A0E81850BFF46E
:1004A000F5AF5FEA027C24BFB1E81850A0E818500D
:1004B00044BF18C918C0BDE810405FEA827C24BF61
:1004C00051F8043B40F8043B08BF7047D20728BFEF
:1004D00031F8023B48BF11F8012B28BF20F8023B3E
:1004E00048BF00F8012B7047754600F02BF8AE4668
:1004F00005006946534620F00700854618B020B530
:10050000FFF7C8FEBDE820404FF000064FF000079F
:100510004FF000084FF0000B21F00701AC46ACE8AB
:10052000C009ACE8C009ACE8C009ACE8C0098D4618
:10053000704710B50446AFF300802046BDE8104078
:10054000FFF793BE00487047E40D002001491820D2
:10055000ABBEFEE7260002007047FEE7704772B6AA
:10056000FEE710B590F8253000210122022B03D0C0
:100570000421C163012122E003681C6824F00E04F9
:100580001C60836C1C6824F480741C6003681C6805
:1005900024F001041C6090F84430046C03F01F0345
:1005A00002FA03F36360D0E913345C60436D33B146
:1005B0001C6824F480741C60D0E916345C6080F8F8
:1005C0002520002280F82420084610BD70B590F840
:1005D0002520002401212346022A07D00422C263D9
:1005E00080F8251080F82430012429E0026815687D
:1005F00025F00E0515600268156825F001051560E7
:10060000826C156825F48075156090F84420056C9F
:1006100002F01F0201FA02F26A60D0E91325556068
:10062000426D32B1156825F480751560D0E9162544
:10063000556080F8251080F82430816B01B188471F
:10064000204670BD70B5044600F08CFA0546601C6B
:1006500002D004484068044400F084FA401BA042E1
:10066000FAD370BD000000202DE9F041040006D04F
:10067000DFF8F48194F85C00002518B107E0012050
:10068000BDE8F08184F85D50204600F0F9F820685C
:10069000816921F01001816100F064FA06460327A8
:1006A00005E000BF00F05EFA801B0A2811D8206820
:1006B00080690007F6D42068816941F001018161F9
:1006C00000F050FA06460BE000F04CFA801B0A28B6
:1006D00006D9206E40F00100206684F85C70CEE7F9
:1006E00020688069C007EFD02068816941F002016D
:1006F00081612168414502D15C4960680860207CC5
:1007000001282068816937D041F040018161607C17
:1007100001282068816932D021F480418161A07C68
:100720000128206881692DD041F4805181612068C1
:100730008169A26821F44071114381612068816957
:1007400021F0A40181612068016921F0100101619B
:10075000E068012819D010B302281BD020688169F5
:1007600041F0800181612068016941F0100101615F
:10077000E06803280ED012E021F04001C6E741F402
:100780008041CBE721F48051D0E72068816941F0B6
:10079000040103E02068816941F020018161207E2D
:1007A000E26940066FF0FF0101EB0222A0F1007048
:1007B0001043226AA38A521E10430A0202EB03432B
:1007C00018432368D861A068B0F5407F10D1D4E900
:1007D0000A0301EB0321401E0843216B131303EBB3
:1007E00001110843A18C02EB014108432168C86054
:1007F000206850F8C01FE26B114301601D4A216858
:100800001B48914200D11C481C4A914201D100F57D
:10081000D460206451F8802FA38E22F4F81242EAAB
:1008200003420A6000F170016164216851F8802F71
:1008300094F8383022F0706242EA03620A6000F1F4
:10084000B001A164D831E164D83121651831616506
:10085000D83100E020C08842FCD3A5652566012080
:1008600084F85C0000200BE7006400400065004055
:1008700000A400400068004050A70040006C004009
:1008800010B59CB00446142115A8FFF7D1FD5421E2
:100890006846FFF7CDFD17492068884228D18014AB
:1008A000009040030E90684600F05AFA08B1FFF736
:1008B00056FE1148816D41F000718165816D01F036
:1008C00000711A91C16C41F00201C164C06C15A99C
:1008D00000F002001A904FF440501590022016903C
:1008E00000201790189009201990044800F008F88B
:1008F0001CB010BD00680040001002400004004819
:100900002DE9F04FDFF82092002301260324A9F1FE
:10091000040B85B00F2709F1040AABF1040EFAE0CD
:1009200006FA03F52A407CD091F804C00CF0030CC1
:10093000BCF1010F02D0BCF1020F26D1D0F808C0E3
:10094000CDF800C04FEA430C04FA0CF8CDF810C003
:10095000DDF800C02CEA080CCDF800C0D1F80C80FE
:10096000DDF810C008FA0CF8DDF800C048EA0C0801
:10097000C0F80880D0F804C02CEA050C0D79C5F346
:1009800000159D4045EA0C0545600D79ED43AD0726
:100990000ED0C5684FEA430804FA08FC25EA0C05A6
:1009A000D1F808C00CFA08FC4CEA050CC0F80CC0E1
:1009B0000D7905F00305022D16D1DD0800EB850C3D
:1009C000CDF808C0DCF820805D074FEAD56C07FA47
:1009D0000CF528EA05080D6905FA0CF5DDF808C0E4
:1009E00045EA0805CCF8205005684FEA430CCDF8DD
:1009F00008C004FA0CFC25EA0C0591F804C00CF0C0
:100A00000308DDF808C008FA0CF848EA0508C0F841
:100A100000804D6815F4403F7CD0444DD5F860C04F
:100A200000E077E04CF0010CC5F860C02D6E23F0BB
:100A3000030C05F0010500953D4D65440295AD6838
:100A40004FEA837C4FEA1C7807FA08FC25EA0C057C
:100A5000B0F1904F06D0DFF8DCC0604505D14FF013
:100A6000010C20E04FF0000C1DE0DFF8CCC0604529
:100A700002D14FF0020C16E0DFF8C0C0604502D191
:100A80004FF0030C0FE0DFF8B8C0604502D14FF023
:100A9000040C08E0DFF8ACC0604502D14FF0050C53
:100AA00001E04FF0060C0CFA08FC4CEA050C029D24
:100AB000C5F808C0D9F80050CC46D1F80480954359
:100AC0005FEAC82800D51543CCF80050DAF800508A
:100AD000D446D1F8048095435FEA882800D51543B1
:100AE000CCF80050DBF80050DC46D1F80480954388
:100AF0005FEA883800D51543CCF80050DEF8005086
:100B0000F446D1F8048095435FEAC83800D5154310
:100B1000CCF800505B1C0A6832FA03F57FF400AF92
:100B200005B0BDE8F08F000008040140001002404D
:100B3000000001400004004800080048000C004884
:100B40000010004800140048426921EA02030A40EC
:100B500043EA0241816170470AB181617047816255
:100B600070470000014880687047000000000020C6
:100B7000024881684268114481607047000000208B
:100B800010B50024032000F073F80F2000F008F8DF
:100B900008B1012401E000F025F8204610BD000056
:100BA00070B50E4E05460024706898B14FF47A7106
:100BB000B1FBF0F00A490968B1FBF0F000F09AFDD2
:100BC00040B9102D06D200222946501E00F030F800
:100BD000356000E00124204670BD000000000020C8
:100BE0000C0000200A4882B0016E41F0010101664C
:100BF000016E01F001010091816D41F0805181652C
:100C0000806D00F08050009002B000F0A1B80000AC
:100C100000100240002809DB00F01F020121914072
:100C20004009800000F1E020C0F80011704700008A
:100C3000F0B40E4B1B680C46C3F30223C3F1070547
:100C4000042D00D90425191D072901D2002300E035
:100C5000DB1E012606FA05F1491E214099409E40FF
:100C6000761E16403143F0BC02F0A3BD0CED00E04F
:100C7000064900F0070208684FF6FF03184040EAF3
:100C80000220034A10430860704700000CED00E0AA
:100C90000000FA052B492C4B0A6832214A432B49A4
:100CA00040B1B0F5007F086829D020F4C06040F45E
:100CB00080602CE00868C0F34120022804D051F87D
:100CC000800F20F4807022E0D1F8800020F4807042
:100CD000C1F88000086820F4C06040F4007008602B
:100CE000B2FBF3F0401C00E0401E4A69520501D5FA
:100CF0000028F9D1486940050AD503207047C0F3A0
:100D00004120022806D051F8800F40F4807008601E
:100D100000207047D1F8800040F48070C1F8800056
:100D2000086820F4C06040F400700860B2FBF3F083
:100D3000401C00E0401E4A695205DBD50028F9D16D
:100D4000D8E700000C00002040420F000070004077
:100D50000248816841F48041816070470070004022
:100D60002DE9F843044600680026BB4D00035ED51C
:100D7000A86D0027C00008D4A86D40F08050A86579
:100D8000A86D012700F080500090DFF8D092D9F8CC
:100D9000001041F48071C9F80010FFF7E3FE8046AF
:100DA00006E000BFFFF7DEFEA0EB080002282BD80C
:100DB000D9F80000C005F5D5D5F8900010F44070C2
:100DC00014D0216D814211D0D5F89000D5F8901043
:100DD00020F4407041F48031C5F89010D5F890109F
:100DE00021F48031C5F89010C5F89000C00711D0EB
:100DF000FFF7B8FE804641F2883907E0FFF7B2FE00
:100E0000A0EB0801494501D903260BE0D5F8900075
:100E10008007F3D5D5F89000216D20F44070084389
:100E2000C5F890001FB1A86D20F08050A86520780B
:100E3000C00707D0D5F88800616820F00300084398
:100E4000C5F888002078800707D5D5F88800A16804
:100E500020F00C000843C5F888002078400707D52B
:100E6000D5F88800E16820F030000843C5F8880014
:100E70002078000707D5D5F88800216920F0C00048
:100E80000843C5F888002078C00607D5D5F8880043
:100E9000616920F440700843C5F888002078800616
:100EA00007D5D5F88800A16920F440600843C5F84B
:100EB00088002078400607D5D5F88800E16920F43D
:100EC00040500843C5F888002078000607D5D5F8BB
:100ED0008800216A20F440400843C5F88800208833
:100EE000C00507D5D5F88800616A20F44030084372
:100EF000C5F888002068800307D5D5F89C00A16A52
:100F000020F003000843C5F89C002088800507D521
:100F1000D5F88800E16A20F440200843C5F888002D
:100F2000208840050FD5D5F88800216B20F44010AB
:100F30000843C5F88800206BB0F5801F03D1E8682E
:100F400040F48010E860208800050FD5D5F88800AF
:100F5000616B20F440000843C5F88800606BB0F571
:100F6000800F03D1E86840F48010E8602088C00456
:100F70000FD5D5F88800A16B20F040700843C5F864
:100F80008800A06BB0F1807F03D1E86840F4801046
:100F9000E86020884FF0006180040ED5D5F8880005
:100FA000E26B20F040601043C5F88800E06B884297
:100FB00003D1E86840F48010E860208840040ED532
:100FC000D5F88800226C20F040601043C5F88800F6
:100FD000206C884203D1E86840F48010E8602088E3
:100FE00000040FD5D5F88800616C20F0405008430C
:100FF000C5F88800606CB0F1805F03D1E86840F408
:101000008030E8602068C0030FD5D5F88800A16C57
:1010100020F040400843C5F88800A06CB0F1804F34
:1010200003D1E86840F48030E860206840030FD5C1
:10103000D5F89C00E16C20F440100843C5F89C00F2
:10104000E06CB0F5001F03D1E86840F48010E86060
:101050003046BDE8F88300000010024000700040F8
:101060002DE9F0470E4605004FF0000725D0DFF8C8
:10107000AC81D8F8000000F00F00B0420CD2D8F8D4
:10108000001021F00F013143C8F80010D8F800001B
:1010900000F00F00B04210D12968614CC80741F23E
:1010A000883A5AD06868DFF87C91032808D0022873
:1010B00020682DD0400500282CDB0120BDE8F087FA
:1010C00020688001F9D5E06800F00302E068C0F311
:1010D0000310401C032A19D0534A00BFB2FBF0F0A2
:1010E000E268C2F306225043E268C2F34162521C36
:1010F0005200B0FBF2F0484517D9A06810F0F00F8D
:101100000CD0880711D5A86840B10EE0474AE5E742
:101110008003D0E700F0B6F8484506D9A06820F073
:10112000F00040F08000A0608027A068696820F08F
:1011300003000843A060FFF715FD814606E000BFED
:10114000FFF710FDA0EB090151453AD8A068696886
:1011500000F00C00B0EB810FF2D12868810714D5A4
:10116000400703D5A06840F4E060A060287800073D
:1011700005D5A06820F4605040F4E060A060A0684D
:10118000A96820F0F000084304E0802F03D1A06894
:1011900020F0F000A060D8F80010404601F00F01E8
:1011A000B14216D9016821F00F0131430160FFF708
:1011B000D9FC074607E000BFFFF7D4FCC11B51452F
:1011C00001D903207AE7D8F8000000F00F00B04200
:1011D000F2D12878400705D5A068E96820F4E060DE
:1011E0000843A0602878000706D5A068296920F484
:1011F000605040EAC100A06000F044F8A1680C4AC9
:10120000C1F30311515C01F01F01C8400949086096
:1012100009480068BDE8F047FFF7C2BC0020024063
:101220000010024000B4C4040024F40000127A004C
:10123000263A00080C00002000000020054806495E
:1012400000688968054AC1F30221515C01F01F0161
:10125000C84070470C00002000100240363A0008D9
:101260000548064900688968054AC1F3C221515CF6
:1012700001F01F01C84070470C0000200010024020
:10128000363A0008184910B58868C0F3810217483B
:10129000012A0BD08A684310C2F38102022A06D0C9
:1012A0008A68C2F38102032A03D0002010BD1846C9
:1012B00010BDCA6802F00304CA68C2F30312521CCC
:1012C000032C02D0B0FBF2F001E0B3FBF2F0CA68ED
:1012D000C968C2F306225043C1F34161491C490069
:1012E000B0FBF1F010BD0000001002400024F4003B
:1012F0002DE9F84304007AD02078F84DC00747D094
:10130000A868E96800F00C0001F003010C2802D085
:10131000082817D001E0032914D06068B0F5803F99
:1013200017D0B0F5A02F286817D020F4803028609F
:10133000286820F4802028606068E0B1FFF712FC84
:10134000064614E02868800322D560680028D2D0C1
:101350001EE0286840F48030EDE740F480202860EB
:10136000F7E700BFFFF7FEFB801B642870D82868F2
:101370008003F7D50CE0FFF7F5FB064605E000BF5C
:10138000FFF7F0FB801B6428F0D828688003F7D4AF
:10139000207880074CD5A868E96800F00C0001F0BF
:1013A00003010C2802D004280DD001E002290AD044
:1013B000E068002828682BD040F480702860FFF790
:1013C000D1FB064619E02868400502D5E0680028F0
:1013D00091D06868217C20F0FE4040EA016068609E
:1013E000BF480068FFF7DCFB002800D120E072E175
:1013F000FFF7B8FB801B0228B8D828684005F7D54E
:101400006868217C20F0FE4040EA016068600FE0DF
:1014100020F480702860FFF7A5FB064605E000BFBA
:10142000FFF7A0FB801B0228A0D828684005F7D44E
:101430002078000729D560690028D5F8940013D0DA
:1014400040F00100C5F89400FFF78CFB064606E06B
:1014500090E000BFFFF786FB801B022886D8D5F8F6
:1014600094008007F6D510E020F00100C5F8940044
:10147000FFF778FB064604E0FFF774FB801B0228A9
:1014800078D8D5F894008007F6D42078400761D545
:10149000A86D0026C00008D4A86D40F08050A86553
:1014A000A86D012600F0805000908E480168C905A3
:1014B00011D40168804641F480710160FFF752FB4E
:1014C000074604E0FFF74EFBC01B022852D8D8F8AD
:1014D0000000C005F6D5A068012815D00528D5F86C
:1014E000900016D020F00100C5F89000D5F89000CB
:1014F00020F00400C5F89000A06841F28838B8B127
:10150000FFF730FB07460EE0D5F8900040F00100F1
:10151000F0E740F00400C5F89000F5E7FFF722FB84
:10152000C11B414526D8D5F890008007F6D50CE0C0
:10153000FFF718FB074604E0FFF714FBC11B41450A
:1015400018D8D5F890008007F6D41EB1A86D20F009
:101550008050A8652078800629D5A0690028D5F894
:10156000980013D040F00100C5F89800FFF7FAFA90
:10157000064606E075E000BFFFF7F4FA801B02287C
:101580006FD8D5F898008007F6D510E020F001005C
:10159000C5F89800FFF7E6FA064604E0FFF7E2FA1E
:1015A000801B02285DD8D5F898008007F6D4E06942
:1015B000F0B3A968C1F3810103295DD0022828682E
:1015C00020F08070286003D0FFF7CCFA04464BE08F
:1015D000FFF7C8FA064604E0FFF7C4FA801B0228AA
:1015E0003FD828688001F7D4F4E908016FF00F02B2
:1015F00002EB01110843218A5204490802EB4151D0
:10160000A26841EA02210843217D4FF07E42490849
:1016100002EB41610843217B40EAC160E968324A3C
:1016200011400843E860286840F08070286000E0BE
:101630005EE0E86840F08070E860FFF793FA0446E7
:1016400005E000BFFFF78EFA001B022809D82868C2
:101650008001F7D54CE000BFFFF784FA001B022899
:1016600002D90320BDE8F88328688001F4D4E86833
:101670001E490840E8603BE00128F3D0E868226A90
:1016800000F00301914226D1616A00F0F0020901E5
:10169000103991421FD1A26A00F4FE41B1EB022F32
:1016A00019D194F82C2000F07841B1EBC26F12D11F
:1016B000218E00F4C00249084905A1F500119142AC
:1016C00009D194F8341000F0C06049084906A1F12E
:1016D000007181420CD00120C4E7000000100240DC
:1016E00000000020007000400C809F01FCFFEEFE17
:1016F0000020B7E710B5401EB0F1807F01D3012074
:1017000010BD4FF0E02460610F21601702F051F826
:101710000020A06107202061002010BD70477047A5
:101720007047704770477047F0B590F83C20012A29
:1017300043D0012580F83C50022280F83D20036808
:101740005A689C681E4E1F4FDFF87CC0B34203D01E
:10175000BB4201D0634504D122F4700E4A6842EACC
:101760000E02DFF868E002EA0E02D1F800E04EEA6D
:10177000020EC3F804E00268B24212D0B2F1804F08
:101780000FD0134B9A420CD0124B9A4209D0124BF5
:101790009A4206D0BA4204D0104B9A4201D0624518
:1017A00004D1896824F080031943916080F83D508A
:1017B000002180F83C100846F0BD0220F0BD00007A
:1017C000002C014000340140005001408FFFFFFD1C
:1017D0000004004000080040000C004000400140B0
:1017E000704710B5040003D094F83D0010B107E035
:1017F000012010BD002084F83C00204600F022F8B3
:10180000022084F83D00211D206801F077FC0120B2
:1018100084F8480084F83E0084F83F0084F84000D3
:1018200084F8410084F8420084F8430084F84400BE
:1018300084F8450084F8460084F8470084F83D00A9
:10184000002010BD08B500680B49884212D10B4832
:10185000816D41F002018165806D002200F002007F
:10186000009011461D20FFF7E3F9BDE808401D2058
:10187000FFF7D0B908BD000000040040001002408E
:1018800090F83D10012901D001207047022180F815
:101890003D100168CA6842F00102CA60006813493D
:1018A000884214D0B0F1804F11D0114988420ED037
:1018B000104988420BD01049884208D00F4988420D
:1018C00005D00F49884202D00E49884207D181686D
:1018D0000D4A1140062906D0B1F5803F03D00168BA
:1018E00041F001010160002070470000002C014020
:1018F0000004004000080040000C0040003401409B
:1019000000400140005001400700010070B504464E
:1019100090F83C00002501281CD0012684F83C608A
:10192000022084F83D0022689068334B184020F470
:101930007F4090600868B0F5005F2ED016DC40282C
:1019400049D009DCD0B1102818D0202816D0302872
:1019500049D113E0022070BD50282AD0602830D031
:1019600070280FD0B0F5805F3DD13DE010F00F0F33
:1019700039D10111A1F58031072934D822680146F7
:10198000104625E0CB68D1E90121206801F028FC50
:101990002068816841F0770109E0CB68D1E9012135
:1019A000206801F01DFC2068816841F4804181605D
:1019B0001AE0CA684968206801F026FC50212068B6
:1019C00006E0CA684968206801F02FFC60212068A1
:1019D00001F010FC08E0CA684968206801F014FCB6
:1019E00040212068F4E7012584F83D60002084F858
:1019F0003C00284670BD000088FFCEFF70472DE9EF
:101A0000F04104460068C66805694FF00007A90761
:101A100013D5B10711D5F91E016101202077206887
:101A200080698007204602D0FFF7E8FF04E000F05D
:101A3000B7F8204600F0B5F82777680716D5700785
:101A400014D521686FF00400086102202077206817
:101A5000806910F4407F204602D0FFF7CFFF04E0FA
:101A600000F09EF8204600F09CF82777280715D54F
:101A7000300713D521686FF0080008610420207733
:101A80002068C0698007204602D0FFF7B7FF04E056
:101A900000F086F8204600F084F82777E80616D58F
:101AA000F00614D521686FF0100008610820207737
:101AB0002068C06910F4407F204602D0FFF79EFFE7
:101AC00004E000F06DF8204600F06BF82777E80797
:101AD00008D0F00706D021686FF0010008612046A9
:101AE00000F060F8280601D4A80408D5300606D511
:101AF00021686FF4025008612046FFF710FEE805E8
:101B000008D5300606D521686FF48070086120463C
:101B1000FFF704FE680608D5700606D521686FF049
:101B200040000861204600F067F8A80608D5B00616
:101B300006D521686FF0200008612046FFF7F0FD10
:101B4000E80208D5F00206D521686FF4801008611C
:101B50002046FFF7E7FDA80208D5B00206D52168A8
:101B60006FF4001008612046FFF7DBFD680208D51E
:101B7000700206D521686FF4800008612046FFF7E7
:101B8000D2FD28020AD5300208D521686FF4000082
:101B900008612046BDE8F041FFF722BEBDE8F081B4
:101BA0007047704710B50068104988421CD1104832
:101BB00090F86A1001290CD190F86910491CC9B23B
:101BC00080F86910072904D3012100F8681F00215B
:101BD0008170084C80212046FEF7B6FF2046BDE804
:101BE00010404021FEF7B0BF10BD000000040040CF
:101BF000120D002000040048704790F8841001295D
:101C000018D0012180F884102421C0F888100168C0
:101C10000A680B6823F001030B6022F000510022D8
:101C20004266036819602021C0F8881080F884207B
:101C300010467047022070477047704770B50446E1
:101C400090F8840001281DD0012084F8840024200D
:101C5000C4F8880020680568026822F0010202606A
:101C60002068826822F060620A438260204601F0A8
:101C7000EFFA206805602020C4F88800002084F86E
:101C8000840070BD022070BD70B5044690F88400D9
:101C900001281DD0012084F884002420C4F8880085
:101CA00020680568026822F00102026020688268EC
:101CB00022F060420A438260204601F0C9FA20689F
:101CC00005602020C4F88800002084F8840070BDDE
:101CD000022070BD70477047704700002DE9F04149
:101CE00003680446D86919689A6840F60F052842C7
:101CF0004FF000054FF002060AD187067ED501F0AD
:101D0000200702F0805C57EA0C0777D0616F42E150
:101D1000B64FDFF8DCC2174001EA0C0C57EA0C0C96
:101D20006CD05FEAC07C0CD05FEAC15C09D54FF093
:101D3000010CC3F820C0D4F8903043F00103C4F87C
:101D40009030830709D5D30707D023681E62D4F8E3
:101D5000903043F00403C4F8903043070AD5D3070A
:101D600008D0266804233362D4F8903043F002038D
:101D7000C4F8903003070CD501F020033B4308D092
:101D8000266808233362D4F8903043F00803C4F87F
:101D9000903003050BD54B0109D526684FF400633D
:101DA0003362D4F8903043F02003C4F89030D4F874
:101DB0009030002B3DD0800609D501F0200002F0C4
:101DC0008051084303D0616F09B120468847D4F899
:101DD000900021688968490602D410F0280F2AD0A3
:101DE000204601F019FB2068806840061ED5206857
:101DF000083050E8001F21F0400100E021E040E8F9
:101E00000012002AF3D1D4F8800078B179498163B7
:101E1000D4F88000FEF7DAFB00280AD0D4F880005E
:101E2000816B00E02046BDE8F04108472046FFF7FF
:101E300053FFBDE8F0812046FFF74EFFC4F89050F5
:101E4000F7E7D4F86CC02027BCF1010F7ED15FEA20
:101E5000C06C7BD55FEAC16C78D510201862206811
:101E60008068400651D5D4F880100A685068000494
:101E7000000C3ED0B4F85C3083423AD9A4F85E003E
:101E80000868006880062CD4216851E8000F20F40F
:101E9000807041E80002002AF6D12068083050E83E
:101EA000001F21F0010140E80012002AF5D120684E
:101EB000083050E8001F21F0400140E80012002ADD
:101EC000F5D1C4F88C70E566216851E8000F20F068
:101ED000100041E80002002AF6D1D4F88000FEF795
:101EE00040FB2667B4F85C00B4F85E10401A81B27B
:101EF00007E0B4F85C1081429BD11068800698D549
:101F000026672046FFF798FE93E7B4F85C00B4F824
:101F10005E10401A81B2B4F85E00002889D0002912
:101F200087D0226852E8000F20F4907042E8000346
:101F3000002BF6D12D4BDB432068083050E8002FF2
:101F40001A4040E8002CBCF1000F00E00EE0F3D195
:101F5000C4F88C70E5666567206850E8002F22F0B1
:101F6000100240E80023002BF6D1C9E7C60209D5CC
:101F7000560207D54FF4801018622046BDE8F041A4
:101F8000FFF7A9BE03060AD501F0800302F40002A0
:101F9000134304D0A16F00297FF444AF49E7420600
:101FA00011D54A060FD52046016851E8002F22F0CE
:101FB000400241E80023002BF6D1C0F88870856705
:101FC00000F05FFA35E7020206D54A0004D5204644
:101FD000BDE8F041FFF77EBEC00195D5002993DA38
:101FE0002046BDE8F041FFF728BE000001000010C8
:101FF000200100040934000810B5040003D0D4F80F
:10200000880010B107E0012010BD002084F8840092
:10201000204600F027F82420C4F8880020680168D2
:1020200021F001010160A06A10B1204601F032F9EF
:10203000204601F01BFA0128E6D02068416821F40F
:10204000904141602068816821F02A018160206808
:10205000016841F0010101602046BDE8104001F037
:102060007DB900002DE9F04F9BB00446142115A85E
:10207000FEF7DEF954216846FEF7DAF99149206847
:10208000914C022600254FF020094FF008088842A5
:1020900021D16846CDF800900695FEF761FE08B1A3
:1020A000FEF75DFAE06D40F00100E065E06D00F0E4
:1020B00001001A90E06C40F00400E064E06CCDE9AF
:1020C000166500F004001A900320CDE91858159009
:1020D00015A97E4826E07E4905274FF4406A8842CC
:1020E00025D16846CDF800800495FEF739FE08B189
:1020F000FEF735FAA06D40F40020A065A06D00F455
:1021000000201A90E06C40F00400E064E06CCDE93F
:10211000166500F00400CDF854A01895CDE91970AB
:1021200015A96A48FEF7ECFB1BB0BDE8F08F6949C2
:102130004FF010084FF0040B884234D1CDF80080E6
:1021400068460595FEF70CFE08B1FEF708FAA06D8B
:1021500040F48010A065A06D00F480101A90E06C2F
:1021600040F00400E064E06C00F004001A90E06CC1
:1021700040F00800E064E06CCDE9166500F008006E
:102180001A904FF48050CDE91857159015A94F4873
:10219000FEF7B6FBCDE91665CDE91857CDF854B07A
:1021A00015A94D48BEE74D490727884234D1012083
:1021B000CDE900056846FEF7D3FD08B1FEF7CFF97B
:1021C000206E40F480402066206E00F480401A901B
:1021D000E06C40F00400E064E06CCDE9166500F0CE
:1021E0000400CDF854801896CDE91970374C15A924
:1021F0002046FEF785FBCDE91665CDE91857CDF8E9
:10220000549015A92046FEF77BFB0022114625209D
:10221000FEF70EFD25202CE03149DFF8C88088420A
:102220002AD1684600960295FEF79AFD08B1FEF79E
:1022300096F9A06D40F40030A065A06D00F4003068
:102240001A90E06C40F00200E064E06CCDE91665A5
:1022500000F002001A901820CDE91857159015A922
:102260004046FEF74DFB002211462620FEF7E0FC1B
:102270002620FEF7CFFC57E71B498842FBD1684672
:10228000CDF800B00395FEF76BFD08B1FEF767F9D6
:10229000A06D40F48020A065A06D00F480201A900D
:1022A000E06C40F00200E064E06CCDE9166500F0FF
:1022B0000200CDF854A01895CDE9197015A9404633
:1022C00030E7000000800040001002400008004895
:1022D000004C004000500040000C00480038014015
:1022E0000044004000040048004800402DE9F84F39
:1022F0000446D0F88C009B4616460D46202802D096
:102300000220BDE8F88FC5B1BEB10027C4F89070B7
:102310002220C4F88C00E7662034FEF723FCA68751
:102320008246E68754F8180C4FF48053FF21203C76
:10233000984207D1226912B119E00120E1E740F289
:10234000FF1114E07F2280B1B0F1805F12D0A4F8B9
:10235000607000BFB4F860704FF02008984201D15F
:10236000206970B12E4600250CE0266936B9A4F824
:102370006010EFE7216909B13F21F8E7A4F8602078
:10238000E8E7002607F0FF09B4F85E00F0B1534615
:10239000002220212046CDF800B001F0B3F918B199
:1023A000C4F88C800320ACE72068406A56B100EA8C
:1023B000090006F8010B00BFB4F85E00401EA4F847
:1023C0005E00E1E7384025F8020BF5E7C4F88C80A1
:1023D000002096E72DE9F8430446D0F88800984697
:1023E00016460D46202802D00220BDE8F883A5B18C
:1023F0009EB10020C4F890002120C4F88800183451
:10240000FEF7B0FBA6878146E68754F8100C20271C
:10241000183CB0F5805F02D003E00120E5E72069B9
:1024200010B12E46002510E000260EE08021204647
:1024300001F068F9C0B9DEB116F8010B21688862B5
:10244000B4F85600401EA4F85600B4F856004B46A7
:102450004FF00002CDF800800028E7D14FF0400196
:10246000204601F04FF940B1C4F888700320BCE762
:1024700035F8020BC0F30800E0E7C4F888700020CC
:10248000B3E77047FEE713460A462221AFF3008008
:102490002DE9F0439BB09846914604004AD020684D
:1024A000F0B303208DF8580020798DF859000420EE
:1024B0008DF85A0000258DF85C1005278DF85B50CB
:1024C000394616A801F09CF955218DF84810AA212B
:1024D00006468DF849100DF14A003A4616A9FDF757
:1024E00062FF08228DF84F60B9F1000F1CD008F28E
:1024F000E7304FF47A71B0FBF1F0ADF868501AA9EB
:10250000CDE9001002AB12A9204601F00FFA002815
:1025100005D04A46BDF8681002A801F07DF900E038
:1025200008E01BB0BDE8F0830A2312A92068FFF77A
:1025300051FF08B10020F2E70120F0E72DE9F0415A
:102540009CB01E46904604004ED02068E8B304209C
:102550008DF8580020798DF8590021208DF85A0007
:1025600037208DF85B008DF85C10080A8DF85D004F
:102570000627394616A801F043F955218DF8481071
:10258000AA2105468DF849100DF14A003A4616A9D0
:10259000FDF709FF09228DF85050B8F1000F1DD04A
:1025A0000020ADF868004FF47A7006F2E736B6FB0B
:1025B000F0F01AA9CDE9001002AB12A9204601F0F3
:1025C000B5F9002807D0424600E00DE0BDF86810DC
:1025D00002A801F021F91CB0BDE8F0810A2312A97C
:1025E0002068FFF7F7FE08B10020F4E70120F2E7CA
:1025F000F0B50428DDE9056501D30020F0BD094CE4
:10260000C0EBC007401C44F8271004EB87010A7197
:10261000CB808E600D7304490A78904200D908700F
:102620000120F0BD580400201000002010B57021DA
:102630000348FDF7FDFE03490020087010BD0000AF
:10264000580400201000002070B5104B00220E4CE2
:102650001D7815E0C2EBC20304EB8303DB889842CC
:102660000CD303F58076B6B2864207D909B1C01AF9
:102670000880C2EBC20004EB800070BD521CD2B2D5
:10268000AA42E7D3002070BD5804002010000020AB
:102690002DE9FE4380460844401E86B20025DFF83F
:1026A0004C90134F1CE000BFC5EBC50109EB810046
:1026B000C48804F1FF0189B2A6420FD388450DD822
:1026C00040F6B8326946FFF7DEFE38B10948694680
:1026D00000EB44004288204601F014F96D1CEDB275
:1026E00038788542E0D3BDE8FE830000580400201E
:1026F00010000020C80400202DE9F04115460E46C8
:102700000746002408E000BF381936F8141080B2DC
:1027100000F006F8641CA4B2AC42F5D3BDE8F08129
:102720002DE9F04F04466E4E6E488DB00D46B4F55F
:10273000806F17D0DFF8B0A1A4F580614FF00108D9
:1027400001390CD0A4F5806102393AD00E3900F17C
:10275000060B03295DD8C8B22BF810506DE0002796
:10276000814629E08580A6F800580DB0BDE8F08FBD
:10277000B9F8040008FA07F101421BD0C7EBC70102
:102780005AF82120B2B10AEB810005F0FF0C834614
:1027900040F6B83308AA6146FFF77AFE38B1BBF8B5
:1027A000060006EB40014A8808A901F0ABF80120B9
:1027B000FDF748FF7F1CFFB299F800108F42D7D376
:1027C0003BE0002781461FE0B9F8040008FA07F152
:1027D000014217D0C7EBC7005AF8202092B10AEB8C
:1027E0008000834644F6206307AA2946FFF7A6FE29
:1027F00028B1BBF806002A4607A901F083F801209A
:10280000FDF720FF7F1CFFB299F800108F42DBD349
:1028100013E0A4F58061143901D1012D10D00020FE
:10282000ADF8180006A92046FFF70EFF07009CD060
:10283000BDF81800A0B3012841D026F8145094E741
:10284000B146B6F8007846460025804621E000BF34
:1028500006FA05F038421AD0C5EBC5015AF8212016
:10286000AAB13BF815200AEB8100CDE9012044F61E
:10287000206308AA0199FFF761FE28B1029808A910
:10288000019AC08801F03EF80120FDF7DBFE6D1CC7
:10289000EDB298F800008542DAD329F8146064E7B5
:1028A000FFE7E9B240F6B83303AA3846FFF7F0FD78
:1028B0000028C4D0F88806EB40014A880CE026F8CE
:1028C000145040F6B83303AA29463846FFF736FEBF
:1028D0000028B4D0F8882A4603A901F013F844E789
:1028E000C8040020100000205804002070B5104DCE
:1028F00080302A7885F86B202A4682F86C001046D2
:1029000080F86D1003216B3000F064FF2946052626
:1029100081F86E00000A81F86F000024281990F8F1
:102920006B0000F072FB641CA4B2B442F6D370BD1D
:10293000120D002070B51D4C94F86800002834D0AA
:102940006078217888422BD1B4F86610621E601C32
:102950008A5C635C891E42EA032643EA022589B247
:1029600000F038FFB04201D0A84219D1A078032866
:102970000AD004DC012810D0022811D10DE006286D
:1029800005D010280CD105E000F012F808E000F0A6
:1029900063F805E000F0A0F802E00121FFF7A6FFD0
:1029A000002084F86800A4F8660070BD120D0020B5
:1029B0002DE9F041264C03252146207884F86B0050
:1029C000032081F86C002079E17800EB012087B2C8
:1029D000A079617900EB012086B22146700081F870
:1029E0006D0031463846FFF753FE0020194B10E0CA
:1029F000391804EB050C33F811206D1C110A8CF802
:102A00006B10A9B26518491C85F86B20401C8DB26B
:102A100080B2B042ECD30E4829466B3000F0DAFEAB
:102A200061196D1C81F86B00A9B2000A6218491C7B
:102A300082F86B008EB2002506E0601990F86B00FA
:102A400000F0E3FA6D1CADB2B542F6D3BDE8F081FB
:102A5000120D0020C804002070B51D4C06252078FA
:102A600084F86B00204680F86C502079E178627918
:102A700000EB0120A17980B201EB0221154A89B255
:102A800022F81010FFF74CFE2146E07881F86D0027
:102A9000207981F86E00607981F86F00A07981F863
:102AA0007000294604F16B0000F094FE21460826D0
:102AB00081F87100000A81F872000025601990F811
:102AC0006B0000F0A2FA6D1CADB2B542F6D370BD3A
:102AD000120D0020C80400202DE9F0412E4D0024E5
:102AE0002879E9786A7900EB0120A97980B201EBB5
:102AF00002218AB2E979B1EB420F4BD10021274B79
:102B00000BE000BF05EB4106777A367A07EB062625
:102B10004718491C23F8176089B29142F2D303EB9E
:102B20004001FFF7E9FD2919287881F86B00641C42
:102B30002919102081F86B00641C2919E87881F8A4
:102B40006B00641C2919287981F86B00641C291911
:102B5000687981F86B00641C2919A87981F86B00E9
:102B60000D48641C21466B3000F034FE2919641CAA
:102B700081F86B00000A2919002681F86B00641C9B
:102B800006E0A81990F86B0000F03FFA761CB6B288
:102B9000A642F6D3BDE8F081120D0020C804002043
:102BA0001CB5184801210024017080F86A40FFF725
:102BB0003DFD002300940122134918460194FFF7BC
:102BC00017FD00944FF4807302220F4901200194F5
:102BD000FFF70EFD00944FF4007303220A49022010
:102BE0000194FFF705FD00944FF440730422064959
:102BF00003200194FFF7FCFC04490F20A1F8000812
:102C00001CBD0000120D002050020020C80400204E
:102C1000114810B50F490160002141608160C16019
:102C20000174417481741022426101228261C26187
:102C3000026242628262C262C0E90C218163C163A6
:102C4000FDF712FD002803D0BDE81040FDF787BC5A
:102C500010BD00000068004030000020F0B587B0D3
:102C600014216846FDF7E4FB2548C16C41F00401DE
:102C7000C164C16C01F004010591C16C41F02001F7
:102C8000C164C16C01F020010591C16C41F00101EA
:102C9000C164C16C01F001010591C16C41F00201F8
:102CA000C164C16C01F002010591C16C41F00801E1
:102CB000C164C06C4FF0904600F0080005900022FF
:102CC00002213046FDF748FF0E4F0122C021384651
:102CD000FDF742FF0225012400200095CDE90140C7
:102CE000039069463046FDF70BFEC020CDE9000495
:102CF00069463846CDE90245FDF702FE07B0F0BD52
:102D00000010024000040048174810B51549016042
:102D100016494160002181600C22C160C0E90412A3
:102D20008161016241628162FFF766F908B1FDF7D6
:102D300016FC00210C48FEF7A7FF08B1FDF70FFCB9
:102D400000210948FEF77AFF08B1FDF708FC0648A4
:102D5000FEF753FF002803D0BDE81040FDF7FFBB8E
:102D600010BD00000080004094000020B0AA0E00BA
:102D700010B588B00024184800940194029403947C
:102D80000494059413490694016040F29F51C0E9F0
:102D900001146321C0E903148461FEF722FD08B128
:102DA000FDF7DDFB4FF48050009069460A48FEF7BE
:102DB000ADFD08B1FDF7D3FB049404A906480694C1
:102DC000FEF7B2FC08B1FDF7CAFB0348FEF758FD59
:102DD00008B010BD000400400C040020184810B5D5
:102DE000164901604FF4E1314160002181600C22FD
:102DF000C160C0E904128161C16101624162816206
:102E0000FFF7FAF808B1FDF7AAFB00210C48FEF71E
:102E10003BFF08B1FDF7A3FB00210948FEF70EFFB9
:102E200008B1FDF79CFB0648FEF7E7FE002803D03B
:102E3000BDE81040FDF793BB10BD0000004C004002
:102E400028010020184810B5164901604FF4E131FF
:102E50004160002181600C22C160C0E904128161DF
:102E6000C161016241628162FFF7C6F808B1FDF7F6
:102E700076FB00210C48FEF707FF08B1FDF76FFB5A
:102E800000210948FEF7DAFE08B1FDF768FB0648A5
:102E9000FEF7B3FE002803D0BDE81040FDF75FBB8E
:102EA00010BD000000500040BC010020184810B5C3
:102EB000164901604FF461214160002181600C22BC
:102EC000C160C0E904128161C16101624162816235
:102ED000FFF792F808B1FDF742FB00210C48FEF71E
:102EE000D3FE08B1FDF73BFB00210948FEF7A6FE23
:102EF00008B1FDF734FB0648FEF77FFE002803D03B
:102F0000BDE81040FDF72BBB10BD000000380140AC
:102F10005002002010B5194C17480C2120604FF4C6
:102F2000E13060600020A060E060C4E90401A061BD
:102F3000E06120626062A0622046FFF75DF808B1A0
:102F4000FDF70DFB00210D48FEF79EFE08B1FDF7D1
:102F500006FB00210948FEF771FE08B1FDF7FFFAF4
:102F60000648FEF74AFE08B1FDF7F9FA2068016845
:102F700041F02001016010BD00440040E402002047
:102F8000184810B5164901604FF4E1314160002145
:102F900081600C22C160C0E904128161C1610162DB
:102FA00041628162FFF728F808B1FDF7D8FA0021E5
:102FB0000C48FEF769FE08B1FDF7D1FA0021094877
:102FC000FEF73CFE08B1FDF7CAFA0648FEF715FE0B
:102FD000002803D0BDE81040FDF7C1BA10BD0000C5
:102FE000004800407803002001B54FF47A730122B5
:102FF00069460248FFF7EEF908BD0000E402002030
:10300000FEE7FEE77047FFF7CBBD70B505464FF012
:103010009044012202212046FDF79EFD2846FFF73D
:10302000E3FF2046BDE8704000220221FDF794BD79
:103030007047FDF79DBD00B593B038216846FDF798
:10304000F7F914210EA8FDF7F3F94FF40070FDF71E
:1030500021FE0220C1010391402104910121CDE90B
:10306000080100901221CDE90A1007900C900D90F4
:103070006846FEF73DF908B172B6FEE70F200E90E4
:1030800003200F90002010901190129004210EA8A0
:10309000FDF7E6FF002801D072B6FEE713B000BDD1
:1030A0000248016841F470010160704788ED00E05A
:1030B0000EB5FFF73FFC002202214FF09040FDF7D4
:1030C0004BFD0848416800290AD000214160018871
:1030D000054844F620636A4641800448FFF72EFA0B
:1030E0000EBD000020000020C8040020AC04002019
:1030F0000148FEF784BC00000C0400202DE9F04FCD
:1031000002682E4B2E4E2F4FDFF8BCC02F4C304D97
:103110004FF0804B98420BD0584509D0B04207D0B1
:10312000B84205D0604503D0A04201D0A84204D1E6
:1031300022F070084A6842EA0802DFF89880DFF857
:103140009890DFF898A0984211D058450FD0B0421F
:103150000DD0B8420BD0604509D0A04207D0404501
:1031600005D0484503D0504501D0A84203D122F4F0
:103170004076CA6832434E6922F0800232430260D0
:103180008A68C2620A688262984209D0A04207D067
:10319000404505D0484503D0504501D0A84201D153
:1031A00009690163012141610169C90703D001690E
:1031B00021F001010161BDE8F08F0000002C014009
:1031C0000004004000080040000C004000340140B2
:1031D00000500140004001400044014000480140CF
:1031E00010B5846842EA032224F47F440A43224350
:1031F000826010BD8268034B1A400A4342F0070107
:10320000816070478FFFCFFF10B5036A046A24F016
:1032100001040462846924F0F00444EA021423F0F7
:103220000A020A438461026210BD10B5036A046A8F
:1032300024F010040462846923F0A00324F4704491
:1032400044EA023243EA01118261016210BD0000CA
:1032500030B5416EB9B1026891689268C1F34261BC
:103260000B4B520F9C5CE50003F10804A25CB5FB1C
:10327000F2F2A0F86A205A5C615CD200B2FBF1F174
:10328000A0F8681030BD0121A0F86A10F8E700002E
:10329000163A000890F82810090706D501684A6810
:1032A000836B22F400421A434A6090F82810C90741
:1032B00006D001684A68C36A22F400321A434A60A1
:1032C00090F82810890706D501684A68036B22F434
:1032D00080321A434A6090F82810490706D50168E1
:1032E0004A68436B22F480221A434A6090F82810FF
:1032F000C90606D501688A68C36B22F480521A4356
:103300008A6090F82810890606D501688A68036CDF
:1033100022F400521A438A6090F82810490611D509
:1033200001684A68436C22F480121A434A60416C77
:10333000B1F5801F06D101684A68836C22F4C0028F
:103340001A434A6090F82810090606D501684A68B1
:10335000C06C22F4002202434A6070472DE9F84312
:1033600000260446C0F89060FDF7FCFB804620680C
:1033700000684FF0200500076FF07E4713D54346E5
:10338000002229042046009700F0BCF958B12168BA
:1033900051E8000F20F0800041E80002002AF6D139
:1033A000C4F8885021E020680068400722D54346D1
:1033B00000224FF480012046009700F0A3F9C8B125
:1033C000216851E8000F20F4907041E80002002AC3
:1033D000F6D12068083050E8001F21F0010140E8D4
:1033E0000012002AF5D1C4F88C5084F884600320C0
:1033F000BDE8F883C4F88850C4F88C5044F86C6F6A
:10340000666026760020F3E710B5806A0021A0F8F8
:103410005E10FEF761FC10BD10B5026852E8001F97
:1034200021F4907142E80013002BF6D10E4B026894
:10343000083252E8001F194042E80014002CF6D16F
:10344000C16E012908D1016851E8002F22F0100255
:1034500041E80023002BF6D12021C0F88C10002178
:10346000C166416710BD0000FEFFFFEF2DE9F0418E
:103470000446016880682269E36910436269002597
:103480001A431043DFF84CC20A68934B1A400243B8
:103490000A6020684168E26821F4405111434160AC
:1034A0002168A069614501D0226A10438A688B4B6C
:1034B0001A4002438A602068C16A626A21F00F01E3
:1034C0001143C1628649236886488B420DD1D0F8EA
:1034D000880010F0030006D0012867D0022854D0DD
:1034E000032851D164E001204FE07F498B420BD18A
:1034F000D0F8880010F00C0047D0042845D00828E8
:1035000052D00C2840D153E078498B420BD1D0F8EF
:10351000880010F0300038D0102847D0202843D041
:10352000302831D144E072498B420BD1D0F8880069
:1035300010F0C00029D0402838D0802834D0C028CE
:1035400022D135E06B498B420ED1D0F8880010F4BF
:1035500040701AD0B0F5807F28D0B0F5007F23D01E
:10356000B0F5407F10D123E063450DD1D0F888003D
:1035700010F4406009D0B0F5806F17D0B0F5006F3F
:1035800012D0B0F5406F13D010205B4A5B4F00267D
:103590004FF40041634539D160B102280DD00428B1
:1035A0000DD0082831D10EE00220EEE70420ECE730
:1035B0000820EAE7FDF742FE03E0114603E0FDF7CD
:1035C00061FE01007BD0606A37F810206768B1FBAC
:1035D000F2F007EB4703834269D8B0EB073F66D8A8
:1035E000002308461946FCF767FE090241EA10610C
:1035F00002027808101871413A460023FCF75CFE7D
:103600003F4AA0F54071914257D950E0E3694FF627
:10361000EF788B422BD1092849D2DFE800F005086A
:103620000D48254848480E00FDF708FE01E0FDF76B
:1036300017FE010001D142E01146606A37F8100020
:10364000B1FBF0F04100606801EB5001B1FBF0F11B
:10365000A1F1100040452AD84FF6F07201EA0200AD
:10366000C1F34201084328E0FDF70CFEE1E7092819
:103670001DD2DFE800F005080D1C1E1C1C1C0E00EE
:10368000FDF7DCFD01E0FDF7EBFD010001D116E0E7
:103690001146606A37F81000B1FBF0F1606801EB89
:1036A0005001B1FBF0F0A0F11001414504D9012512
:1036B00005E0FDF7E7FDE8E780B22168C86001207A
:1036C000A4F86A0024F8680F2846E6602661BDE881
:1036D000F081000000800040F369FFCFFFF4FF118C
:1036E0000038014000100240004400400048004003
:1036F000004C0040005000400024F400FE39000857
:10370000FFFC0F002DE9F047994617460D46044689
:103710004FF00008089E33E0701C31D0FDF722FA0C
:10372000A0EB0900B04218D8BEB120680168490773
:1037300026D5802D24D0402D22D0C169C943090748
:103740000DD4082505622046FFF766FEC4F89050A8
:1037500084F884800120BDE8F0870320FBE7C0697E
:10376000C04300050CD421684FF400600862204675
:10377000FFF752FE2020C4F8900084F88480ECE724
:103780002068C06935EA000004D00020B842C3D0E8
:103790000020E0E70120F9E70148FEF79FBA0000AA
:1037A000500200200148FEF799BA0000E402002010
:1037B000FEE70907090E002804DB00F1E02080F88D
:1037C0000014704700F00F0000F1E02080F8141D95
:1037D0007047000070B5094DFF22134605F580764D
:1037E00006E000BF10F8014B54402A5D5A40335D9B
:1037F000491E89B2F6D243EA022070BD3E3A000863
:1038000010B500231A4603E0845C521C234492B294
:103810008A42F9D3D8B210BD162905D30178AA2956
:1038200002D14178552901D000207047B0F8071027
:103830001180B0F80910518090F90B1091808189A6
:10384000D180817B037C41EA03211181C07B90728E
:10385000012070472DE9F8431F4690460D468146EA
:10386000FDF780F9064600208DF800000BE00122EC
:103870006946484600F0B4F830B16CB124B19DF807
:10388000000055280FD00024FDF76CF9801BB842CA
:10389000EDD3022C2ED107E09DF80000AA28F3D129
:1038A00028700124F0E768700322A91C484600F044
:1038B00097F800281FD0AC780026A41C09E0A919AD
:1038C00003224846C91C00F08BF8002813D0761C50
:1038D000B6B2A642F3D300220220A11C04E02B5C66
:1038E000401C1A44D2B280B28142F8D8281980789C
:1038F000904202D00020BDE8F883E41CA8F8004004
:103900000120F8E7084B10B503EB40000C88448019
:10391000C2814A8882808A88C280CA8802810A89D4
:103920008281897A418110BDC80400202DE9F84FB9
:103930001E46DDE90AA891460F4604001BD0206808
:10394000C8B1A26812B1207B0121904725680023ED
:10395000012269462846FEF7C9FC0028F7D00A2351
:103960004A4639462068FEF735FD38B1A26812B1E3
:10397000207B002190470020BDE8F88F4346524647
:1039800031462068FFF766FFA268054612B1207B2A
:10399000002190472846EFE7FDF7F2F8FFF74BFBD1
:1039A000FFF75CF9FFF7B0F9FFF718FAFFF74AFAEB
:1039B000FFF77CFAFFF7AEFAFFF7E2FAFFF728F914
:1039C000FFF7D6F9044C206880470448FDF758FFFC
:1039D00060688047FCE70000280000200C040020FD
:1039E00010B513460122FEF781FC08B1002010BD7E
:1039F000012010BD4FF04070E1EE100A7047010049
:103A000002000400060008000A000C00100020005C
:103A100040008000000101010103070100000804CB
:103A20000204080101010000000000000000010282
:103A3000030406070809000000000102030400C196
:103A4000814001C0804101C0804100C1814001C06E
:103A5000804100C1814000C1814001C0804101C05E
:103A6000804100C1814000C1814001C0804100C14E
:103A7000814001C0804101C0804100C1814001C03E
:103A8000804100C1814000C1814001C0804100C12E
:103A9000814001C0804101C0804100C1814000C11E
:103AA000814001C0804101C0804100C1814001C00E
:103AB000804100C1814000C1814001C0804101C0FE
:103AC000804100C1814000C1814001C0804100C1EE
:103AD000814001C0804101C0804100C1814000C1DE
:103AE000814001C0804101C0804100C1814001C0CE
:103AF000804100C1814000C1814001C0804100C1BE
:103B0000814001C0804101C0804100C1814001C0AD
:103B1000804100C1814000C1814001C0804101C09D
:103B2000804100C1814000C1814001C0804100C18D
:103B3000814001C0804101C0804100C1814000C07E
:103B4000C101C30302C2C60607C705C5C404CC0C25
:103B50000DCD0FCFCE0E0ACACB0BC90908C8D81895
:103B600019D91BDBDA1A1EDEDF1FDD1D1CDC14D4A5
:103B7000D515D71716D6D21213D311D1D010F030D5
:103B800031F133F3F23236F6F737F53534F43CFCE5
:103B9000FD3DFF3F3EFEFA3A3BFB39F9F83828E895
:103BA000E929EB2B2AEAEE2E2FEF2DEDEC2CE42465
:103BB00025E527E7E62622E2E323E12120E0A060D5
:103BC00061A163A3A26266A6A767A56564A46CACA5
:103BD000AD6DAF6F6EAEAA6A6BAB69A9A86878B815
:103BE000B979BB7B7ABABE7E7FBF7DBDBC7CB47425
:103BF00075B577B7B67672B2B373B17170B05090D5
:103C000091519353529296565797559594549C5C64
:103C10005D9D5F9F9E5E5A9A9B5B99595898884814
:103C200049894B8B8A4A4E8E8F4F8D4D4C8C4484E4
:103C30008545874746868242438341818040000014
:103C4000603C000800000020300000001402000862
:103C5000903C0008300000201814000030020008DA
:103C60001000000001000000000000000024F4002B
:103C7000000100000F000000000000000000000034
:103C80005A0000000000000007300008B1300008B2
:04000005080001D915
:00000001FF
