:020000040800F2
:10000000D0130020ED010008BF3300082D260008A2
:10001000BD33000889030008814700080000000084
:10002000000000000000000000000000193A000875
:100030008B03000800000000C13300081B3A0008D1
:10004000070200080702000807020008070200086C
:10005000070200080702000807020008070200085C
:10006000070200080702000807020008070200084C
:10007000070200080702000807020008070200083C
:10008000070200080702000807020008070200082C
:10009000070200080702000807020008070200081C
:1000A000070200080702000807020008070200080C
:1000B000BD3A0008C93A0008070200080702000814
:1000C00007020008070200080702000807020008EC
:1000D0000702000869470008754700080702000882
:1000E00007020008070200080702000807020008CC
:1000F00007020008070200080702000807020008BC
:1001000007020008070200080702000807020008AB
:100110000702000807020008D53A0008E13A000883
:10012000070200080702000807020008070200088B
:10013000070200080702000807020008070200087B
:10014000070200080702000807020008070200086B
:10015000070200080702000807020008070200085B
:10016000070200080702000807020008070200084B
:10017000070200080702000807020008070200083B
:10018000070200080702000807020008070200082B
:10019000070200080000000007020008070200082C
:1001A000070200080702000807020008070200080B
:1001B00007020008070200080702000807020008FB
:1001C00007020008070200080702000807020008EB
:1001D0000702000807020008DFF80CD000F08CF8D6
:1001E00000480047614A0008D013002006488047B5
:1001F00006480047FEE7FEE7FEE7FEE7FEE7FEE70C
:10020000FEE7FEE7FEE7FEE7893A0008D9010008AD
:100210002DE9F05F0546002092469B46884606463B
:10022000814640241BE0284641464746224600F0CE
:1002300053F853465A46C01A914110D311461846F6
:10024000224600F03AF82D1A67EB01084F46224685
:100250000120002100F031F817EB00094E41201E6B
:10026000A4F10104DFDC484631462A464346BDE896
:10027000F09F40EA01039B0703D009E008C9121F61
:1002800008C0042AFAD203E011F8013B00F8013B50
:10029000521EF9D27047D2B201E000F8012B491E7C
:1002A000FBD270470022F6E710B513460A46044613
:1002B0001946FFF7F0FF204610BD202A04DB203A44
:1002C00000FA02F1002070479140C2F1200320FAA9
:1002D00003F3194390407047202A04DB203A21FAA7
:1002E00002F00021704721FA02F3D040C2F120024F
:1002F0009140084319467047064C074D06E0E068F8
:1003000040F0010394E8070098471034AC42F6D35C
:10031000FFF766FF944E0008B44E0008F8B5194C7C
:1003200000270546E770FE2829D0207838B304F06E
:1003300064FA012630B1A7700421684604F0D7FBA7
:10034000042801D0E67017E09DF80000A84201D013
:10035000032010E09DF80110022901D004200AE0DA
:100360009DF80210801C0844C0439DF80320C0B2D1
:10037000824203D00220E0700020F8BDA17001206D
:10038000F8BD000020000020FEE770470A46282143
:1003900004F036BC72B6FEE710B590F825300021A7
:1003A0000122022B03D00421C163012122E0036852
:1003B0001C6824F00E041C60836C1C6824F4807498
:1003C0001C6003681C6824F001041C6090F8443031
:1003D000046C03F01F0302FA03F36360D0E91334E3
:1003E0005C60436D33B11C6824F480741C60D0E9F8
:1003F00016345C6080F82520002280F8242008460E
:1004000010BD70B590F82520002401212346022A52
:1004100007D00422C26380F8251080F8243001241C
:1004200029E00268156825F00E0515600268156858
:1004300025F001051560826C156825F4807515603E
:1004400090F84420056C02F01F0201FA02F26A6083
:10045000D0E913255560426D32B1156825F48075D9
:100460001560D0E91625556080F8251080F82430F5
:10047000816B01B18847204670BD000070B504460D
:1004800000F084FA0546601C02D004484068044429
:1004900000F07CFA401BA042FAD370BD040000209B
:1004A0002DE9F041040006D0DFF8F48194F85C00F7
:1004B000002518B107E00120BDE8F08184F85D5007
:1004C000204600F0F9F82068816921F0100181616F
:1004D00000F05CFA0646032705E000BF00F056FA7C
:1004E000801B0A2811D8206880690007F6D420688C
:1004F000816941F00101816100F048FA06460BE094
:1005000000F044FA801B0A2806D9206E40F0010052
:10051000206684F85C70CEE720688069C007EFD061
:100520002068816941F0020181612168414502D161
:100530005C4960680860207C01282068816937D0A8
:1005400041F040018161607C01282068816932D0DE
:1005500021F480418161A07C0128206881692DD02F
:1005600041F48051816120688169A26821F4407161
:10057000114381612068816921F0A40181612068B3
:10058000016921F010010161E068012819D010B360
:1005900002281BD02068816941F0800181612068B8
:1005A000016941F010010161E06803280ED012E0FA
:1005B00021F04001C6E741F48041CBE721F48051AE
:1005C000D0E72068816941F0040103E02068816977
:1005D00041F020018161207EE26940066FF0FF0159
:1005E00001EB0222A0F100701043226AA38A521E7E
:1005F00010430A0202EB034318432368D861A06842
:10060000B0F5407F10D1D4E90A0301EB0321401E6D
:100610000843216B131303EB01110843A18C02EB78
:10062000014108432168C860206850F8C01FE26B90
:10063000114301601D4A21681B48914200D11C48AA
:100640001C4A914201D100F5D460206451F8802FFA
:10065000A38E22F4F81242EA03420A6000F170010C
:100660006164216851F8802F94F8383022F070626C
:1006700042EA03620A6000F1B001A164D831E1648A
:10068000D831216518316165D83100E020C0884239
:10069000FCD3A5652566012084F85C0000200BE7EB
:1006A000006400400065004000A400400068004075
:1006B00050A70040006C004010B59CB004461421C7
:1006C00015A8FFF7EFFD54216846FFF7EBFD17492A
:1006D0002068884228D18014009040030E9068461C
:1006E00000F044FB08B1FFF755FE1148816D41F061
:1006F00000718165816D01F000711A91C16C41F04A
:100700000201C164C06C15A900F002001A904FF4F8
:100710004050159002201690002017901890092044
:100720001990044800F008F81CB010BD00680040A3
:1007300000100240000400482DE9F04FDFF820923D
:10074000002301260324A9F1040B85B00F2709F12A
:10075000040AABF1040EFAE006FA03F52A407CD055
:1007600091F804C00CF0030CBCF1010F02D0BCF1F5
:10077000020F26D1D0F808C0CDF800C04FEA430CD4
:1007800004FA0CF8CDF810C0DDF800C02CEA080C13
:10079000CDF800C0D1F80C80DDF810C008FA0CF8D4
:1007A000DDF800C048EA0C08C0F80880D0F804C0A2
:1007B0002CEA050C0D79C5F300159D4045EA0C05A2
:1007C00045600D79ED43AD070ED0C5684FEA43088B
:1007D00004FA08FC25EA0C05D1F808C00CFA08FC5C
:1007E0004CEA050CC0F80CC00D7905F00305022D8C
:1007F00016D1DD0800EB850CCDF808C0DCF82080B0
:100800005D074FEAD56C07FA0CF528EA05080D6973
:1008100005FA0CF5DDF808C045EA0805CCF82050CB
:1008200005684FEA430CCDF808C004FA0CFC25EA31
:100830000C0591F804C00CF00308DDF808C008FAB4
:100840000CF848EA0508C0F800804D6815F4403FF0
:100850007CD0444DD5F860C000E077E04CF0010C4E
:10086000C5F860C02D6E23F0030C05F0010500955E
:100870003D4D65440295AD684FEA837C4FEA1C7894
:1008800007FA08FC25EA0C05B0F1904F06D0DFF816
:10089000DCC0604505D14FF0010C20E04FF0000CAA
:1008A0001DE0DFF8CCC0604502D14FF0020C16E02D
:1008B000DFF8C0C0604502D14FF0030C0FE0DFF855
:1008C000B8C0604502D14FF0040C08E0DFF8ACC0BE
:1008D000604502D14FF0050C01E04FF0060C0CFA18
:1008E00008FC4CEA050C029DC5F808C0D9F8005078
:1008F000CC46D1F8048095435FEAC82800D515435B
:10090000CCF80050DAF80050D446D1F80480954372
:100910005FEA882800D51543CCF80050DBF800507A
:10092000DC46D1F8048095435FEA883800D515434A
:10093000CCF80050DEF80050F446D1F8048095431E
:100940005FEAC83800D51543CCF800505B1C0A6834
:1009500032FA03F57FF400AF05B0BDE8F08F000078
:10096000080401400010024000000140000400485B
:1009700000080048000C004800100048001400481F
:100980000AB1816170478162704700000148806848
:10099000704700000400002090F84120202A24D154
:1009A00090F84020012A20D0012280F84020242203
:1009B00080F841200268136823F001031360026885
:1009C000136823F480531360026813680B431360A9
:1009D00001680A6842F001020A60202180F8411093
:1009E000002180F84010084670470220704790F8B8
:1009F0004120202A22D190F84020012A1ED0012235
:100A000080F84020242280F841200268136823F0F7
:100A1000010313600268136823F4706343EA012141
:100A2000116001680A6842F001020A60202180F822
:100A30004110002180F8401008467047022070479E
:100A400070B5040004D094F84100002510B106E010
:100A5000012070BD84F84050204600F04FF824205B
:100A600084F841002068016821F00101016060689C
:100A7000216820F0706008612068816821F40041DD
:100A80008160E0680128A06830D040F4044021680B
:100A90008860E0680228206841682AD021F400615B
:100AA000416020684168144A114341602068C16870
:100AB00021F40041C160D4E904010843A16940EA7E
:100AC00001202168C860D4E9070108432168086053
:100AD0002068016841F0010101606564202084F80C
:100AE0004100256384F84250002070BD40F400406E
:100AF000CDE741F40061D3E70080000210B59CB05F
:100B00000446142115A8FFF7CDFB54216846FFF7D2
:100B1000C9FB1849206888422AD180200090002013
:100B20000890684600F022F908B1FFF733FC124C38
:100B3000E06C40F00100E064E06C15A900F00100F9
:100B40001A904FF4407015901220169001201790C3
:100B500002201890042019904FF09040FFF7ECFD10
:100B6000A06D40F48000A065A06D00F480001A9094
:100B70001CB010BD005800400010024002488168BF
:100B800042681144816070470400002010B50024C1
:100B9000032000F073F80F2000F008F808B10124DA
:100BA00001E000F025F8204610BD000070B50E4EA3
:100BB00005460024706898B14FF47A71B1FBF0F0EB
:100BC0000A490968B1FBF0F000F0E0FD40B9102DD2
:100BD00006D200222946501E00F030F8356000E0B1
:100BE0000124204670BD00000400002010000020F9
:100BF0000A4882B0016E41F001010166016E01F008
:100C000001010091816D41F080518165806D00F09E
:100C10008050009002B000F0A1B800000010024027
:100C2000002809DB00F01F020121914040098000EB
:100C300000F1E020C0F8001170470000F0B40E4B46
:100C40001B680C46C3F30223C3F10705042D00D92A
:100C50000425191D072901D2002300E0DB1E01260F
:100C600006FA05F1491E214099409E40761E164025
:100C70003143F0BC03F0A2BD0CED00E0064900F0EA
:100C8000070208684FF6FF03184040EA0220034AB3
:100C900010430860704700000CED00E00000FA050A
:100CA0002B492C4B0A6832214A432B4940B1B0F5FD
:100CB000007F086829D020F4C06040F480602CE0F8
:100CC0000868C0F34120022804D051F8800F20F4B6
:100CD000807022E0D1F8800020F48070C1F880009C
:100CE000086820F4C06040F400700860B2FBF3F0C4
:100CF000401C00E0401E4A69520501D50028F9D188
:100D0000486940050AD503207047C0F341200228F6
:100D100006D051F8800F40F48070086000207047C2
:100D2000D1F8800040F48070C1F88000086820F499
:100D3000C06040F400700860B2FBF3F0401C00E0BB
:100D4000401E4A695205DBD50028F9D1D8E70000DA
:100D50001000002040420F000070004002488168EF
:100D600041F4804181607047007000402DE9F843F4
:100D7000044600680026BB4D00035ED5A86D002721
:100D8000C00008D4A86D40F08050A865A86D012768
:100D900000F080500090DFF8D092D9F8001041F4B4
:100DA0008071C9F80010FFF7F1FD804606E000BF32
:100DB000FFF7ECFDA0EB080002282BD8D9F80000C3
:100DC000C005F5D5D5F8900010F4407014D0216D11
:100DD000814211D0D5F89000D5F8901020F44070E1
:100DE00041F48031C5F89010D5F8901021F480318D
:100DF000C5F89010C5F89000C00711D0FFF7C6FDE8
:100E0000804641F2883907E0FFF7C0FDA0EB0801FA
:100E1000494501D903260BE0D5F890008007F3D5AA
:100E2000D5F89000216D20F440700843C5F890007B
:100E30001FB1A86D20F08050A8652078C00707D0AA
:100E4000D5F88800616820F003000843C5F88800E1
:100E50002078800707D5D5F88800A16820F00C001D
:100E60000843C5F888002078400707D5D5F88800E2
:100E7000E16820F030000843C5F8880020780007BA
:100E800007D5D5F88800216920F0C0000843C5F8CF
:100E900088002078C00607D5D5F88800616920F45D
:100EA00040700843C5F888002078800607D5D5F83B
:100EB0008800A16920F440600843C5F888002078C4
:100EC000400607D5D5F88800E16920F44050084372
:100ED000C5F888002078000607D5D5F88800216A73
:100EE00020F440400843C5F888002088C00507D595
:100EF000D5F88800616A20F440300843C5F88800BE
:100F00002068800307D5D5F89C00A16A20F0030073
:100F10000843C5F89C002088800507D5D5F88800CF
:100F2000E16A20F440200843C5F888002088400585
:100F30000FD5D5F88800216B20F440100843C5F880
:100F40008800206BB0F5801F03D1E86840F4801062
:100F5000E860208800050FD5D5F88800616B20F483
:100F600040000843C5F88800606BB0F5800F03D1DE
:100F7000E86840F48010E8602088C0040FD5D5F8F8
:100F80008800A16B20F040700843C5F88800A06B72
:100F9000B0F1807F03D1E86840F48010E8602088D9
:100FA0004FF0006180040ED5D5F88800E26B20F088
:100FB00040601043C5F88800E06B884203D1E868C0
:100FC00040F48010E860208840040ED5D5F88800F1
:100FD000226C20F040601043C5F88800206C8842E5
:100FE00003D1E86840F48010E860208800040FD541
:100FF000D5F88800616C20F040500843C5F888009F
:10100000606CB0F1805F03D1E86840F48030E86044
:101010002068C0030FD5D5F88800A16C20F04040AF
:101020000843C5F88800A06CB0F1804F03D1E86890
:1010300040F48030E860206840030FD5D5F89C006C
:10104000E16C20F440100843C5F89C00E06CB0F55A
:10105000001F03D1E86840F48010E8603046BDE826
:10106000F883000000100240007000402DE9F047B6
:101070000E4605004FF0000725D0DFF8AC81D8F808
:10108000000000F00F00B0420CD2D8F8001021F0A0
:101090000F013143C8F80010D8F8000000F00F002D
:1010A000B04210D12968614CC80741F2883A5AD041
:1010B0006868DFF87C91032808D0022820682DD0CA
:1010C000400500282CDB0120BDE8F0872068800166
:1010D000F9D5E06800F00302E068C0F30310401C9B
:1010E000032A19D0534A00BFB2FBF0F0E268C2F302
:1010F00006225043E268C2F34162521C5200B0FB28
:10110000F2F0484517D9A06810F0F00F0CD088070E
:1011100011D5A86840B10EE0474AE5E78003D0E763
:1011200000F0B6F8484506D9A06820F0F00040F07D
:101130008000A0608027A068696820F00300084351
:10114000A060FFF723FC814606E000BFFFF71EFC0E
:10115000A0EB090151453AD8A068696800F00C007D
:10116000B0EB810FF2D12868810714D5400703D571
:10117000A06840F4E060A0602878000705D5A0686A
:1011800020F4605040F4E060A060A068A96820F0FE
:10119000F000084304E0802F03D1A06820F0F000A5
:1011A000A060D8F80010404601F00F01B14216D9F6
:1011B000016821F00F0131430160FFF7E7FB0746AB
:1011C00007E000BFFFF7E2FBC11B514501D9032037
:1011D0007AE7D8F8000000F00F00B042F2D128788A
:1011E000400705D5A068E96820F4E0600843A060E6
:1011F0002878000706D5A068296920F4605040EAE5
:10120000C100A06000F044F8A1680C4AC1F30311CA
:10121000515C01F01F01C840094908600948006895
:10122000BDE8F047FFF7C2BC0020024000100240BA
:1012300000B4C4040024F40000127A007C4C0008BE
:101240001000002004000020054806490068896855
:10125000054AC1F30221515C01F01F01C8407047EB
:1012600010000020001002408C4C00080548064980
:1012700000688968054AC1F3C221515C01F01F0171
:10128000C840704710000020001002408C4C00083D
:10129000184910B58868C0F381021748012A0BD09D
:1012A0008A684310C2F38102022A06D08A68C2F318
:1012B0008102032A03D0002010BD184610BDCA6861
:1012C00002F00304CA68C2F30312521C032C02D0BA
:1012D000B0FBF2F001E0B3FBF2F0CA68C968C2F3F8
:1012E00006225043C1F34161491C4900B0FBF1F0B3
:1012F00010BD0000001002400024F4002DE9F84366
:1013000004007AD02078F84DC00747D0A868E96873
:1013100000F00C0001F003010C2802D0082817D0BF
:1013200001E0032914D06068B0F5803F17D0B0F514
:10133000A02F286817D020F480302860286820F477
:10134000802028606068E0B1FFF720FB064614E0CB
:101350002868800322D560680028D2D01EE0286863
:1013600040F48030EDE740F480202860F7E700BFCC
:10137000FFF70CFB801B642870D828688003F7D522
:101380000CE0FFF703FB064605E000BFFFF7FEFA9F
:10139000801B6428F0D828688003F7D42078800761
:1013A0004CD5A868E96800F00C0001F003010C2896
:1013B00002D004280DD001E002290AD0E0680028FC
:1013C00028682BD040F480702860FFF7DFFA0646CB
:1013D00019E02868400502D5E068002891D06868C7
:1013E000217C20F0FE4040EA01606860BF48006850
:1013F000FFF7DCFB002800D120E072E1FFF7C6FA1E
:10140000801B0228B8D828684005F7D56868217C79
:1014100020F0FE4040EA016068600FE020F4807038
:101420002860FFF7B3FA064605E000BFFFF7AEFA03
:10143000801B0228A0D828684005F7D42078000730
:1014400029D560690028D5F8940013D040F0010038
:10145000C5F89400FFF79AFA064606E090E000BF50
:10146000FFF794FA801B022886D8D5F894008007ED
:10147000F6D510E020F00100C5F89400FFF786FAD9
:10148000064604E0FFF782FA801B022878D8D5F8D8
:1014900094008007F6D42078400761D5A86D002617
:1014A000C00008D4A86D40F08050A865A86D012642
:1014B00000F0805000908E480168C90511D4016881
:1014C000804641F480710160FFF760FA074604E04E
:1014D000FFF75CFAC01B022852D8D8F80000C005FC
:1014E000F6D5A068012815D00528D5F8900016D0AB
:1014F00020F00100C5F89000D5F8900020F004001D
:10150000C5F89000A06841F28838B8B1FFF73EFAFC
:1015100007460EE0D5F8900040F00100F0E740F0FB
:101520000400C5F89000F5E7FFF730FAC11B41450C
:1015300026D8D5F890008007F6D50CE0FFF726FAFC
:10154000074604E0FFF722FAC11B414518D8D5F839
:1015500090008007F6D41EB1A86D20F08050A865D9
:101560002078800629D5A0690028D5F8980013D0E6
:1015700040F00100C5F89800FFF708FA064606E0BB
:1015800075E000BFFFF702FA801B02286FD8D5F87C
:1015900098008007F6D510E020F00100C5F898000B
:1015A000FFF7F4F9064604E0FFF7F0F9801B022884
:1015B0005DD8D5F898008007F6D4E069F0B3A96843
:1015C000C1F3810103295DD00228286820F08070D2
:1015D000286003D0FFF7DAF904464BE0FFF7D6F9AD
:1015E000064604E0FFF7D2F9801B02283FD828689E
:1015F0008001F7D4F4E908016FF00F0202EB01114A
:101600000843218A5204490802EB4151A26841EA89
:1016100002210843217D4FF07E42490802EB4161DF
:101620000843217B40EAC160E968324A114008431F
:10163000E860286840F08070286000E05EE0E868BC
:1016400040F08070E860FFF7A1F9044605E000BFB4
:10165000FFF79CF9001B022809D828688001F7D5FC
:101660004CE000BFFFF792F9001B022802D90320CB
:10167000BDE8F88328688001F4D4E8681E49084072
:10168000E8603BE00128F3D0E868226A00F003013B
:10169000914226D1616A00F0F002090110399142AD
:1016A0001FD1A26A00F4FE41B1EB022F19D194F8C8
:1016B0002C2000F07841B1EBC26F12D1218E00F4E2
:1016C000C00249084905A1F50011914209D194F8D9
:1016D000341000F0C06049084906A1F10071814250
:1016E0000CD00120C4E700000010024004000020DC
:1016F000007000400C809F01FCFFEEFE0020B7E769
:101700002DE9F0411D4616460F46040003D0D4F8DB
:10171000880018B108E00120BDE8F081002084F8BD
:101720008400204600F028FD2420C4F888002068AA
:10173000016821F001010160A06A10B1204602F0A9
:10174000A1FA204602F0F2FD0128E5D02068816868
:1017500041F4804181602068816821F4004139436F
:101760008160700540EA054120680268064B1A4016
:101770000A4302602068016841F0010101602046CF
:10178000BDE8F04102F0E2BAFFFF00FC10B5401ED8
:10179000B0F1807F01D3012010BD4FF0E0246061E3
:1017A0000F21601703F00AF80020A06107202061D4
:1017B000002010BD704770477047704770477047F2
:1017C000F0B590F83C20012A43D0012580F83C5028
:1017D000022280F83D2003685A689C681E4E1F4F05
:1017E000DFF87CC0B34203D0BB4201D0634504D1D3
:1017F00022F4700E4A6842EA0E02DFF868E002EA5C
:101800000E02D1F800E04EEA020EC3F804E00268CE
:10181000B24212D0B2F1804F0FD0134B9A420CD08B
:10182000124B9A4209D0124B9A4206D0BA4204D0C7
:10183000104B9A4201D0624504D1896824F080039C
:101840001943916080F83D50002180F83C10084613
:10185000F0BD0220F0BD0000002C0140003401402A
:10186000005001408FFFFFFD0004004000080040D1
:10187000000C004000400140704710B5040003D048
:1018800094F83D0010B107E0012010BD002084F85D
:101890003C00204600F022F8022084F83D00211D83
:1018A000206802F023F9012084F8480084F83E0003
:1018B00084F83F0084F8400084F8410084F8420036
:1018C00084F8430084F8440084F8450084F8460016
:1018D00084F8470084F83D00002010BD08B5016879
:1018E0002648B1F1804F11D0254A91421DD1816D1A
:1018F00041F002018165806D002200F0020000903D
:1019000011461D20FFF79AF91D2031E0816D41F04D
:1019100001018165806D002200F0010000901146F8
:101920001C20FFF78BF91C2022E0164A91420ED1B1
:10193000816D41F010018165806D002200F0100082
:10194000009011463620FFF779F9362010E00E4A54
:10195000914211D1816D41F020018165806D00229D
:1019600000F02000009011463720FFF767F937207C
:10197000BDE80840FFF754B908BD00000010024060
:1019800000040040001000400014004090F83D109A
:10199000012901D001207047022180F83D10016823
:1019A000CA6842F00102CA6000681349884214D034
:1019B000B0F1804F11D0114988420ED010498842B1
:1019C0000BD01049884208D00F49884205D00F49F2
:1019D000884202D00E49884207D181680D4A1140E1
:1019E000062906D0B1F5803F03D0016841F001011E
:1019F0000160002070470000002C014000040040FE
:101A000000080040000C004000340140004001404C
:101A1000005001400700010070B5044690F83C00FA
:101A2000002501281CD0012684F83C60022084F89F
:101A30003D0022689068334B184020F47F4090604E
:101A40000868B0F5005F2ED016DC402849D009DCCC
:101A5000D0B1102818D0202816D0302849D113E052
:101A6000022070BD50282AD0602830D070280FD0B6
:101A7000B0F5805F3DD13DE010F00F0F39D101117D
:101A8000A1F58031072934D822680146104625E0A7
:101A9000CB68D1E90121206802F09AF820688168BA
:101AA00041F0770109E0CB68D1E90121206802F01B
:101AB0008FF82068816841F4804181601AE0CA682B
:101AC0004968206802F098F85021206806E0CA684A
:101AD0004968206802F0A1F86021206802F082F8CD
:101AE00008E0CA684968206802F086F8402120684A
:101AF000F4E7012584F83D60002084F83C00284686
:101B000070BD000088FFCEFF70472DE9F04104460C
:101B10000068C66805694FF00007A90713D5B1072B
:101B200011D5F91E016101202077206880698007A6
:101B3000204602D0FFF7E8FF04E000F0B7F82046A7
:101B400000F0B5F82777680716D5700714D5216817
:101B50006FF004000861022020772068806910F48B
:101B6000407F204602D0FFF7CFFF04E000F09EF850
:101B7000204600F09CF82777280715D5300713D5A5
:101B800021686FF008000861042020772068C06990
:101B90008007204602D0FFF7B7FF04E000F086F888
:101BA000204600F084F82777E80616D5F00614D50D
:101BB00021686FF010000861082020772068C06954
:101BC00010F4407F204602D0FFF79EFF04E000F0B3
:101BD0006DF8204600F06BF82777E80708D0F0078B
:101BE00006D021686FF001000861204600F060F81F
:101BF000280601D4A80408D5300606D521686FF45C
:101C0000025008612046FFF7D6FDE80508D53006EA
:101C100006D521686FF4807008612046FFF7CAFD81
:101C2000680608D5700606D521686FF04000086187
:101C3000204600F06BF8A80608D5B00606D5216846
:101C40006FF0200008612046FFF7B6FDE80208D5D6
:101C5000F00206D521686FF4801008612046FFF776
:101C6000ADFDA80208D5B00206D521686FF40010BA
:101C700008612046FFF7A1FD680208D5700206D56D
:101C800021686FF4800008612046FFF798FD280264
:101C90000AD5300208D521686FF40000086120469B
:101CA000BDE8F041FFF7E8BDBDE8F081704770473F
:101CB000006800210122B0F1804F13D00F4B9842F1
:101CC0000FD10F4890F86A30012B0AD190F8693093
:101CD0005B1CDBB280F86930072B02D300F8682F59
:101CE00081707047074803885B1C9BB20380322BCE
:101CF000F7D30180044802707047000000100040D4
:101D0000B00500200200002000000020704790F87D
:101D10008410012918D0012180F884102421C0F8F2
:101D2000881001680A680B6823F001030B6022F039
:101D3000005100224266036819602021C0F8881013
:101D400080F8842010467047022070477047704723
:101D500070B5044690F8840001281DD0012084F855
:101D600084002420C4F8880020680568026822F0F6
:101D7000010202602068826822F060620A43826089
:101D8000204601F05DFF206805602020C4F888002F
:101D9000002084F8840070BD022070BD70B5044638
:101DA00090F8840001281DD0012084F884002420AC
:101DB000C4F8880020680568026822F00102026009
:101DC0002068826822F060420A438260204601F067
:101DD00037FF206805602020C4F88800002084F8C0
:101DE000840070BD022070BD7047704770470000CE
:101DF0002DE9F04103680446D86919689A6840F6ED
:101E00000F0528424FF000054FF002060AD1870661
:101E10007ED501F0200702F0805C57EA0C0777D0EE
:101E2000616F42E1B64FDFF8DCC2174001EA0C0CEB
:101E300057EA0C0C6CD05FEAC07C0CD05FEAC15C46
:101E400009D54FF0010CC3F820C0D4F8903043F00E
:101E50000103C4F89030830709D5D30707D023685E
:101E60001E62D4F8903043F00403C4F89030430766
:101E70000AD5D30708D0266804233362D4F89030FB
:101E800043F00203C4F8903003070CD501F020039F
:101E90003B4308D0266808233362D4F8903043F0DF
:101EA0000803C4F8903003050BD54B0109D526680B
:101EB0004FF400633362D4F8903043F02003C4F849
:101EC0009030D4F89030002B3DD0800609D501F039
:101ED000200002F08051084303D0616F09B1204611
:101EE0008847D4F8900021688968490602D410F028
:101EF000280F2AD0204601F087FF2068806840061E
:101F00001ED52068083050E8001F21F0400100E095
:101F100021E040E80012002AF3D1D4F8800078B123
:101F200079498163D4F88000FEF76BFA00280AD063
:101F3000D4F88000816B00E02046BDE8F0410847FE
:101F40002046FFF753FFBDE8F0812046FFF74EFF24
:101F5000C4F89050F7E7D4F86CC02027BCF1010F0B
:101F60007ED15FEAC06C7BD55FEAC16C78D510206A
:101F7000186220688068400651D5D4F880100A683D
:101F800050680004000C3ED0B4F85C3083423AD96B
:101F9000A4F85E000868006880062CD4216851E827
:101FA000000F20F4807041E80002002AF6D120687A
:101FB000083050E8001F21F0010140E80012002A1B
:101FC000F5D12068083050E8001F21F0400140E8BA
:101FD0000012002AF5D1C4F88C70E566216851E83A
:101FE000000F20F0100041E80002002AF6D1D4F8DA
:101FF0008000FEF7D1F92667B4F85C00B4F85E10F3
:10200000401A81B207E0B4F85C1081429BD110689D
:10201000800698D526672046FFF798FE93E7B4F828
:102020005C00B4F85E10401A81B2B4F85E0000287B
:1020300089D0002987D0226852E8000F20F49070E0
:1020400042E80003002BF6D12D4BDB43206808301B
:1020500050E8002F1A4040E8002CBCF1000F00E0CF
:102060000EE0F3D1C4F88C70E5666567206850E82F
:10207000002F22F0100240E80023002BF6D1C9E720
:10208000C60209D5560207D54FF4801018622046C3
:10209000BDE8F041FFF7A9BE03060AD501F08003B1
:1020A00002F40002134304D0A16F00297FF444AF6F
:1020B00049E7420611D54A060FD52046016851E886
:1020C000002F22F0400241E80023002BF6D1C0F897
:1020D0008870856700F0A9FA35E7020206D54A0044
:1020E00004D52046BDE8F041FFF77EBEC00195D57E
:1020F000002993DA2046BDE8F041FFF728BE000032
:102100000100001020010004F93D000810B5040092
:1021100003D0D4F8880010B107E0012010BD0020E2
:1021200084F88400204600F027F82420C4F88800B2
:102130002068016821F001010160A06A10B1204609
:1021400001F0A0FD204602F0F1F80128E6D0206859
:10215000416821F4904141602068816821F02A01A2
:1021600081602068016841F0010101602046BDE8FE
:10217000104001F0EBBD00002DE9F0479CB0044693
:10218000142115A8FEF78EF854216846FEF78AF848
:102190008F4920688F4CDFF840A2022600254FF0BF
:1021A0000808884221D12020009006956846FEF755
:1021B000DDFD08B1FEF7EEF8E06D40F00100E065EE
:1021C000E06D00F001001A90E06C40F00400E06463
:1021D000E06CCDE9166500F004001A900320CDE90B
:1021E0001858159015A950461EE07C4905274FF454
:1021F000406988421DD16846CDF800800495FEF7FD
:10220000B5FD08B1FEF7C6F8A06D40F40020A0654A
:10221000A06D00F400201A90E06C40F00400E0642F
:10222000E06C00F00400C9E0FEF786FA1CB0BDE8DF
:10223000F0876B494FF00408884234D1102005958F
:1022400000906846FEF792FD08B1FEF7A3F8A06D76
:1022500040F48010A065A06D00F480101A90E06C2E
:1022600040F00400E064E06C00F004001A90E06CC0
:1022700040F00800E064E06CCDE9166500F008006D
:102280001A904FF48050CDE91857159015A9504673
:10229000FEF752FACDE91665CDE91857CDF854800E
:1022A00015A95048C0E750490727884229D1012085
:1022B000CDE900056846FEF759FD08B1FEF76AF85A
:1022C000206E40F480402066206E00F480401A901A
:1022D000E06C40F00400E064E06CCDE9166500F0CD
:1022E00004001A903020CDE91857159015A95046D2
:1022F000FEF722FA002211462520FEF79FFC25203A
:102300003EE03A49DFF8E8A088423CD168460096B2
:102310000295FEF72BFD08B1FEF73CF8A06D40F4E6
:102320000030A065A06D00F400301A90E06C40F021
:102330000100E064E06C00F001001A90E06C40F0F5
:102340000200E064E06CCDE9166500F0020015962D
:102350001895CDE9197015A94FF09040FEF7ECF9EA
:102360001820CDE91665CDE91857159015A95046E6
:10237000FEF7E2F9002211462620FEF75FFC262038
:10238000FEF74EFC52E71B498842FBD16846CDF868
:1023900000800395FEF7EAFC08B1FDF7FBFFA06D96
:1023A00040F48020A065A06D00F480201A90E06CBD
:1023B00040F00200E064E06C00F00200CDE9166538
:1023C000CDF854901895CDE9197015A950462BE712
:1023D000008000400010024000080048004C00400F
:1023E00000500040000C004800380140004400400C
:1023F00000040048004800402DE9F84F0446D0F89A
:102400008C009B4616460D46202802D00220BDE8CF
:10241000F88FC5B1BEB10027C4F890702220C4F86F
:102420008C00E7662034FEF7B1FAA6878246E6877D
:1024300054F8180C4FF48053FF21203C984207D1E8
:10244000226912B119E00120E1E740F2FF1114E026
:102450007F2280B1B0F1805F12D0A4F8607000BF1D
:10246000B4F860704FF02008984201D1206970B133
:102470002E4600250CE0266936B9A4F86010EFE777
:10248000216909B13F21F8E7A4F86020E8E70026B8
:1024900007F0FF09B4F85E00F0B153460022202196
:1024A0002046CDF800B002F015F918B1C4F88C80C0
:1024B0000320ACE72068406A56B100EA090006F83C
:1024C000010B00BFB4F85E00401EA4F85E00E1E717
:1024D000384025F8020BF5E7C4F88C80002096E719
:1024E00030B4D0F88C30202B02D0022030BC7047A2
:1024F000A9B1A2B10023C3660A4C0368A3420BD062
:102500005B681B0208D5046854E8003F43F0806311
:1025100044E80035002DF6D130BC02F053B801205C
:10252000E4E70000008000400068104988421CD1A8
:102530000F4890F86810012917D00E49B0F866309E
:102540000A78411C5A54B0F866100022491C89B21E
:10255000A0F8661080F86920012901D180F86A107E
:10256000012204490448FFF7BBBF70470044004004
:10257000B00500201C000020580300202DE9F8437E
:102580000446D0F88800984616460D46202802D00A
:102590000220BDE8F883A5B19EB10020C4F89000E8
:1025A0002120C4F888001834FEF7F0F9A687814688
:1025B000E68754F8100C2027183CB0F5805F02D055
:1025C00003E00120E5E7206910B12E46002510E068
:1025D00000260EE08021204602F07CF8C0B9DEB172
:1025E00016F8010B21688862B4F85600401EA4F862
:1025F0005600B4F856004B464FF00002CDF800806C
:102600000028E7D14FF04001204602F063F840B1C6
:10261000C4F888700320BCE735F8020BC0F308004B
:10262000E0E7C4F888700020B3E77047FEE70000D9
:10263000064B10B55C78C2F30723D2B214B1037015
:102640000A7010BD0B70027010BD00002000002049
:1026500013460A462221AFF300802DE9F0439BB0D8
:102660009846914604004AD02068F0B303208DF8C4
:10267000580020798DF8590004208DF85A00002563
:102680008DF85C1005278DF85B50394616A802F0CE
:102690001BF955218DF84810AA2106468DF84910DE
:1026A0000DF14A003A4616A9FDF7E3FD08228DF820
:1026B0004F60B9F1000F1CD008F2E7304FF47A7187
:1026C000B0FBF1F0ADF868501AA9CDE9001002ABEB
:1026D00012A9204602F08EF9002805D04A46BDF81E
:1026E000681002A802F0FCF800E008E01BB0BDE8AA
:1026F000F0830A2312A92068FFF740FF08B10020E9
:10270000F2E70120F0E72DE9F0419CB01E4690462B
:1027100004004ED02068E8B304208DF858002079DA
:102720008DF8590021208DF85A0037208DF85B0074
:102730008DF85C10080A8DF85D000627394616A84A
:1027400002F0C2F855218DF84810AA2105468DF8EF
:1027500049100DF14A003A4616A9FDF78AFD0922F3
:102760008DF85050B8F1000F1DD00020ADF8680072
:102770004FF47A7006F2E736B6FBF0F01AA9CDE90D
:10278000001002AB12A9204602F034F9002807D04D
:10279000424600E00DE0BDF8681002A802F0A0F883
:1027A0001CB0BDE8F0810A2312A92068FFF7E6FEFD
:1027B00008B10020F4E70120F2E70000F0B504289A
:1027C000DDE9056501D30020F0BD094CC0EBC00771
:1027D000401C44F8271004EB87010A71CB808E60FF
:1027E0000D7304490A78904200D908700120F0BDA9
:1027F0005C0F00204200002010B570210348FDF757
:1028000051FD03490020087010BD00005C0F00203E
:102810004200002070B5104B00220E4C1D7815E0D0
:10282000C2EBC20304EB8303DB8898420CD303F5AD
:102830008076B6B2864207D909B1C01A0880C2EBC9
:10284000C20004EB800070BD521CD2B2AA42E7D392
:10285000002070BD5C0F0020420000202DE9FE43E7
:1028600080460844401E86B20025DFF84C90134F86
:102870001CE000BFC5EBC50109EB8100C48804F171
:10288000FF0189B2A6420FD388450DD840F6B83271
:102890006946FFF7DDFE38B10948694600EB4400A0
:1028A0004288204602F092F86D1CEDB238788542DD
:1028B000E0D3BDE8FE8300005C0F00204200002052
:1028C000800600202DE9F04115460E4607460024FB
:1028D00008E000BF381936F8141080B200F006F88E
:1028E000641CA4B2AC42F5D3BDE8F0812DE9F04FF1
:1028F00004466E4E6E488DB00D46B4F5806F17D00D
:10290000DFF8B0A1A4F580614FF0010801390CD0C7
:10291000A4F5806102393AD00E3900F1060B032983
:102920005DD8C8B22BF810506DE00027814629E031
:102930008580A6F800580DB0BDE8F08FB9F8040006
:1029400008FA07F101421BD0C7EBC7015AF8212052
:10295000B2B10AEB810005F0FF0C834640F6B833B4
:1029600008AA6146FFF779FE38B1BBF8060006EB0E
:1029700040014A8808A902F029F80120FDF77EFDF0
:102980007F1CFFB299F800108F42D7D33BE000279D
:1029900081461FE0B9F8040008FA07F1014217D098
:1029A000C7EBC7005AF8202092B10AEB800083469B
:1029B00044F6206307AA2946FFF7A5FE28B1BBF815
:1029C00006002A4607A902F001F80120FDF756FD8E
:1029D0007F1CFFB299F800108F42DBD313E0A4F5FF
:1029E0008061143901D1012D10D00020ADF81800FC
:1029F00006A92046FFF70EFF07009CD0BDF818007F
:102A0000A0B3012841D026F8145094E7B146B6F897
:102A1000007846460025804621E000BF06FA05F012
:102A200038421AD0C5EBC5015AF82120AAB13BF8AB
:102A300015200AEB8100CDE9012044F6206308AAA5
:102A40000199FFF760FE28B1029808A9019AC08891
:102A500001F0BCFF0120FDF711FD6D1CEDB298F8EF
:102A600000008542DAD329F8146064E7FFE7E9B291
:102A700040F6B83303AA3846FFF7EFFD0028C4D06C
:102A8000F88806EB40014A880CE026F8145040F61E
:102A9000B83303AA29463846FFF735FE0028B4D0DC
:102AA000F8882A4603A901F091FF44E78006002038
:102AB000420000205C0F002070B5084C084D8021BA
:102AC00094F800222846FDF75BFF94F8022228467E
:102AD000BDE870404021FDF753BF00008006002094
:102AE0000004004870B5104D80302A7885F86B20BE
:102AF0002A4682F86C00104680F86D1003216B3076
:102B000001F098FE2946052681F86E00000A81F83A
:102B10006F000024281990F86B0000F043FC641C3F
:102B2000A4B2B442F6D370BDB005002070B51D4C00
:102B300094F86800002834D06078217888422BD13E
:102B4000B4F86610621E601C8A5C635C891E42EAEF
:102B5000032643EA022589B201F06CFEB04201D09F
:102B6000A84219D1A07803280AD004DC012810D08B
:102B7000022811D10DE0062805D010280CD105E05F
:102B800000F012F808E000F06DF805E000F0B8F889
:102B900002E00121FFF7A6FF002084F86800A4F8F6
:102BA000660070BDB00500202DE9F0412C4C0325D6
:102BB0002146207884F86B00032081F86C0020798E
:102BC000E17800EB012087B2A079617900EB012068
:102BD00086B22146700081F86D0031463846FFF715
:102BE0003DFEB819B0F5007F05D9BDE8F0410221DE
:102BF0000320FFF777BF1A4A0020D03210E03918BF
:102C000004EB050C32F811306D1C190A8CF86B10AE
:102C1000A9B26518491C85F86B30401C8DB280B292
:102C2000B042ECD30E4829466B3001F003FE611927
:102C30006D1C81F86B00A9B2000A6218491C82F869
:102C40006B008EB2002506E0601990F86B0000F072
:102C5000A9FB6D1CADB2B542F6D3BDE8F081000012
:102C6000B005002070B5254C0626207884F86B004E
:102C7000204680F86C602079E17800EB012085B275
:102C8000A079617900EB012081B204F1D00020F835
:102C900015102846FFF72AFE0121284600F098FC6F
:102CA0002146E07881F86D00207981F86E00607926
:102CB00081F86F00A07981F87000314604F16B0053
:102CC00001F0B8FD2146082681F87100000A81F85C
:102CD0007200B5F5007F05D3BDE8704002210620E3
:102CE000FFF700BF0025601990F86B0000F05AFB59
:102CF0006D1CADB2B542F6D370BD0000B00500202A
:102D00002DE9F041364D00242879E97800EB0120C7
:102D100087B2A879697900EB012086B2E879B0EB37
:102D2000460F5BD1B819B0F5007F05D9BDE8F04179
:102D300002211020FFF7D6BE29490020D0310AE039
:102D400005EB4002537A127A03EB02223B18401C37
:102D500021F8132080B2B042F2D301EB4701324692
:102D60003846FFF7AFFD3146384600F031FC2919EF
:102D7000287881F86B00641C2919102081F86B00F9
:102D8000641C2919E87881F86B00641C29192879DA
:102D900081F86B00641C2919687981F86B00641C48
:102DA0002919A87981F86B000D48641C21466B3005
:102DB00001F040FD2919641C81F86B00000A2919F3
:102DC000002681F86B00641C06E0A81990F86B00DF
:102DD00000F0E8FA761CB6B2A642F6D3BDE8F08160
:102DE000B00500207CB52A4801260025067080F831
:102DF0006A5000F0CFFB264C0220D034A4F8B46215
:102E0000A4F8B6020320A4F8B8020420A4F8BA0279
:102E10000520A4F8BC020620A4F8BE020720A4F8EE
:102E2000C0020820A4F8C20240F2DC50A4F8040258
:102E3000A4F86802A4F80652A4F86A5204F52D74A6
:102E4000FFF7DAFC0023009501221249184601958C
:102E5000FFF7B4FC0095330202220E4901200195D0
:102E6000FFF7ACFC0095730203220A49022001958A
:102E7000FFF7A4FC00954FF440730422054903209A
:102E80000195FFF79BFC0F20A4F84C057CBD0000CA
:102E9000B0050020C4020020114810B50F490160A0
:102EA000002141608160C16001744174817410220D
:102EB000426101228261C261026242628262C26236
:102EC000C0E90C218163C163FDF7EAFA002803D051
:102ED000BDE81040FDF75EBA10BD0000006800407C
:102EE0005000002010B586B014216846FDF7DAF9CD
:102EF0001D48C16C41F00401C164C16C01F00401C2
:102F00000591C16C41F02001C164C16C01F0200148
:102F10000591C16C41F00101C164C16C01F0010176
:102F20000591C16C41F00201C164C16C01F0020164
:102F30000591C16C41F00801C164C06C0B4C00F0FC
:102F4000080005900122C0212046FDF719FDC02090
:102F50000121CDE900010220CDE902106946204699
:102F6000FDF7EAFB06B010BD001002400004004867
:102F7000134810B511490160124941600021012236
:102F8000C0E90212016141618161C1610162FDF725
:102F900057FD08B1FDF7FEF900210948FDF7FCFCDB
:102FA00008B1FDF7F7F900210548FDF720FD0028DD
:102FB00003D0BDE81040FDF7EDB910BD005800404A
:102FC000B400002075507160174810B515490160B4
:102FD0004FF461214160002181600C22C160C0E991
:102FE00004128161016241628162FFF78FF808B1CA
:102FF000FDF7D0F900210C48FEF7D0FE08B1FDF72F
:10300000C9F900210848FEF7A3FE08B1FDF7C2F98F
:103010000548FEF77CFE002803D0BDE81040FDF710
:10302000B9B910BD008000400801002010B588B07B
:103030000024174800940194029403940494059486
:103040004FF080410694016040F29F51C0E90114A5
:1030500042F20E71C0E903148461FEF70EFC08B160
:10306000FDF798F94FF48050009069460848FEF744
:10307000D3FC08B1FDF78EF9049404A90448069422
:10308000FEF79EFB002801D0FDF784F908B010BDC3
:103090008004002010B588B00024184800940194E2
:1030A000029403940494059413490694016043F632
:1030B0003F01C0E901144FF6FF71C0E903148461B8
:1030C000FEF7DBFB08B1FDF765F94FF48050009087
:1030D00069460A48FEF7A0FC08B1FDF75BF90494C5
:1030E00004A906480694FEF76BFB002801D0FDF703
:1030F00051F908B010BD000000040040CC040020CD
:103100003EB500240F48009401940D4902940160DB
:1031100040F29F51C0E9011463218461C160FEF750
:10312000ACFB08B1FDF736F90094694605480294F6
:10313000FEF746FB002801D0FDF72CF93EBD00004C
:1031400000100040180500203EB500240F480094F0
:1031500001940D490294016040F29F51C0E90114AD
:1031600063218461C160FEF788FB08B1FDF712F9A5
:103170000094694605480294FEF722FB002801D01E
:10318000FDF708F93EBD0000001400406405002072
:10319000174810B51549016016494160002181604A
:1031A0000C22C160C0E904128161C1610162416207
:1031B0008162FEF7ABFF08B1FDF7ECF800210C4887
:1031C000FEF7ECFD08B1FDF7E5F800210848FEF731
:1031D000BFFD08B1FDF7DEF80548FEF798FD0028B1
:1031E00003D0BDE81040FDF7D5B810BD004C00403D
:1031F0009C01002040420F00184810B5164901609C
:103200004FF4E1314160002181600C22C160C0E9CE
:1032100004128161C161016241628162FEF776FF41
:1032200008B1FDF7B7F800210C48FEF7B7FD08B16B
:10323000FDF7B0F800210948FEF78AFD08B1FDF757
:10324000A9F80648FEF763FD002803D0BDE810404A
:10325000FDF7A0B810BD0000005000403002002073
:10326000184810B5164901604FF4612141600021F2
:1032700081600C22C160C0E904128161C1610162F8
:1032800041628162FEF742FF08B1FDF783F8002139
:103290000C48FEF783FD08B1FDF77CF800210948D2
:1032A000FEF756FD08B1FDF775F80648FEF72FFD4D
:1032B000002803D0BDE81040FDF76CB810BD000039
:1032C00000380140C402002010B51B4C19480C21E5
:1032D00020604FF4E13060600020A060E060C4E94D
:1032E0000401A061E061206260620346024601467B
:1032F000A0622046FEF704FA08B1FDF74BF8002162
:103300000D48FEF74BFD08B1FDF744F800210A48CF
:10331000FEF71EFD08B1FDF73DF80748FEF7F7FC84
:1033200008B1FDF737F82068016841F0200101601D
:1033300010BD00000044004058030020184810B59C
:10334000164901604FF4E1314160002181600C2297
:10335000C160C0E904128161C161016241628162A0
:10336000FEF7D4FE08B1FDF715F800210C48FEF772
:1033700015FD08B1FDF70EF800210948FEF7E8FC3D
:1033800008B1FDF707F80648FEF7C1FC002803D096
:10339000BDE81040FCF7FEBF10BD00000048004033
:1033A000EC03002001B54FF47A730122694602480C
:1033B000FFF7E4F808BD000058030020FEE7FEE731
:1033C000704710B5FFF70EFDBDE8104000F0E2B801
:1033D0002DE9FF4182B090460C46054601F078FB8E
:1033E0000226012305AA21462846009601F0BEFBCD
:1033F00001F0ACFB284C0020E07001F0FEF9012741
:1034000028B1032101A801F072FB032801D0E77065
:103410003BE09DF80400A84203D0FE2D01D003201C
:1034200007E09DF814109DF80520881C824202D008
:103430000420E07029E0404601F059FB9DF814108B
:1034400005468842E3D101210DF1070001F04FFB51
:103450000128DCD19DF804009DF805109DF8062098
:1034600008441044C0B2002106E000BF18F8013043
:10347000491C1844C0B2C9B2A942F7DBC0439DF849
:103480000710C0B2814204D0E670002006B0BDE84B
:10349000F081A2702846F9E72000002010B5411CF9
:1034A00009D0C0B2452101F024FB010402D520F46B
:1034B0000040404210BD0348817B407B40EA012030
:1034C000F3E70000CA0E002010B5411C09D0C0B2BD
:1034D0003C2101F00EFB410502D520F48060404202
:1034E00010BD03480179407940EA0120F3E700006C
:1034F000CA0E002010B5411C09D0C0B2382101F01D
:10350000F8FA010402D520F40040404210BD0348FF
:103510000178407840EA0120F3E70000CA0E00205D
:1035200010B5411C09D0C0B23A2101F0E2FA010401
:1035300002D520F40040404210BD03488178C07895
:1035400040EA0120F3E70000CA0E0020411C03D02E
:10355000C0B23F2101F0BEBA0148C07970470000F7
:10356000CA0E0020411C03D0C0B23E2101F0B2BA05
:103570000148807970470000CA0E002002460448C6
:10358000407810B141EA0220704742EA01207047BA
:103590002000002010B5012001F0C8FA0B4C0120DA
:1035A000B4F8B41209B9A4F8B402A4F80802A4F853
:1035B0006C0294F8B4020121FCF7E8FE94F8B6021C
:1035C000BDE810400121FCF7E1BE000080060020AC
:1035D0002DE9F84F002501442E46AB46AA46A946E0
:1035E000A8468FB2044600957BE000BFB4F5827F09
:1035F00034D0A4F5807051383AD0B4F5817F35D0FD
:10360000A4F58070033820D0B4F5A97F3DD000BF69
:10361000A4F58070033819D0A4F58070533837D0E2
:10362000B4F5AA7F39D000BFA4F58070553831D0E9
:10363000B4F5AB7F34D000BFA4F58070573821D0EB
:10364000A4F580700B3838D02CE001250120064607
:103650008346824681468046009040E04C4890F880
:10366000081290F8B402FCF791FE38E0012503E05F
:103670000125B4F5817FCBD10120064683468246E1
:10368000814600904FF001080CE00120009009E015
:103690000126C9E74FF0010ACEE74FF0010B01E028
:1036A0004FF00109A4F20F10052818D83848B0F8D7
:1036B0001E0288B100F096F911E03548B0F81612F4
:1036C00069B1B0F81C12012541F00201A0F81C12EA
:1036D0000021A0F8161202E02E4900200870641C98
:1036E000A4B2BC4282D345B14FF481735A1C40F25C
:1036F00051114FF4AD7000F005F9009840B14FF44E
:103700009A735A1C4FF4A97140F25B1000F0FAF85A
:1037100046B14FF481735A1C40F253114FF4AE700E
:1037200000F0F0F8BBF1000F08D04FF481735A1C81
:103730004FF4AA7140F25D1000F0E4F8BAF1000F06
:1037400008D04FF481735A1C40F255114FF4AF70FA
:1037500000F0D8F8B9F1000F08D04FF481735A1C6B
:103760004FF4AB7140F25F1000F0CCF8B8F1000FED
:103770000BD001B04FF48173BDE8F04F5A1C40F2FA
:1037800057114FF4B07000F0BDB8BDE8F88F0000DD
:1037900080060020380000202DE9F84FFDF7F6F8EC
:1037A000564C2168401A14286AD3FDF7EFF82060C0
:1037B00001F0C2F90090FFF79DFE514C4FF40076E6
:1037C0004FF4877500280FDBA4F80A0280B2C0EB23
:1037D000001000EBC00006EB4000C0F38F20A842B1
:1037E00000D92846A4F818020220FFF783FE00281B
:1037F0000FDBA4F86E0280B2C0EB001000EBC0003B
:1038000006EB4000C0F38F20A84200D92846A4F858
:103810007C023A4DB4F81E0200272D1D78B3B4F88F
:1038200024620EB94FF49676B4F8260208B9B4F8BB
:1038300004028146B4F8280208B9B4F80602B4F8C4
:1038400020B28046B4F822A2287820B1012805D001
:10385000022816D02CE000F0C5F829E0B4F81802D0
:103860006988884201D9401A00E0081A80B203280A
:103870001ED802202870FDF789F8686018E016E06D
:1038800039E0FDF783F86968401AB04210D301208F
:103890002870697821B16F7042464946504603E06E
:1038A000687042464946584600F064F800E02F70C0
:1038B0000098FFF735FE002801DBA4F80C02009801
:1038C000FFF702FE002801DBA4F80E020098FFF7C4
:1038D00049FE002801DBA4F810020098FFF736FE2D
:1038E000002801DBA4F812020098FFF7D7FD00289A
:1038F00001DBA4F81402BDE8F88F000034000020BA
:1039000080060020F0B41A4C14F8100010F0FF00EC
:1039100000D1012034F81110B1F5B47F03D90D02A4
:1039200045EA112189B24FF48775A94200D9294689
:10393000872606EB8121B1FBF5F189B24FF4806552
:10394000A94200D9294634F8122034F8133052EA3B
:10395000030501D140F2DC53A4F81A12B4F81C524A
:1039600045F00105A4F81C52F0BC00F00ABF0000AD
:103970008006002070B516460D46044601F0DCF8BE
:1039800000B90120B4F5B47F03D9210241EA142122
:103990008CB24FF487718C4200D90C4655EA06026E
:1039A00001D140F2DC55872202EB8422B2FBF1F117
:1039B00089B24FF48062914200D91146074AA2F8B9
:1039C0001A12B2F81C3243F00103A2F81C322B4643
:1039D000324600F0D6FE0248448070BD80060020CA
:1039E000380000200A4830B4B0F8261209B9B0F8FF
:1039F0000412B0F828220AB9B0F80622054CB0F833
:103A0000200201232370637030BCFFF7B3BF0000B6
:103A100080060020380000207047FDF7AFB800B5E1
:103A200093B038216846FCF73DFC14210EA8FCF742
:103A300039FC4FF40070FDF733F90220C101039106
:103A4000402104910121CDE9080100901221CDE926
:103A50000A1007900C900D906846FDF74FFC08B1D6
:103A600072B6FEE70F200E9003200F9000201090FA
:103A70001190129004210EA8FDF7F8FA002801D049
:103A800072B6FEE713B000BD0248016841F4700150
:103A90000160704788ED00E010B5FFF747F8FFF7C9
:103AA0000BF8FFF779FEBDE81040012201490248FA
:103AB000FEF716BD1C000020580300200148FEF749
:103AC00024B80000800400200148FEF71EB8000062
:103AD000CC0400200148FEF718B8000018050020AB
:103AE0000148FEF712B80000640500202DE9F04FF0
:103AF00002682E4B2E4E2F4FDFF8BCC02F4C304D9E
:103B00004FF0804B98420BD0584509D0B04207D0B7
:103B1000B84205D0604503D0A04201D0A84204D1EC
:103B200022F070084A6842EA0802DFF89880DFF85D
:103B30009890DFF898A0984211D058450FD0B04225
:103B40000DD0B8420BD0604509D0A04207D0404507
:103B500005D0484503D0504501D0A84203D122F4F6
:103B60004076CA6832434E6922F0800232430260D6
:103B70008A68C2620A688262984209D0A04207D06D
:103B8000404505D0484503D0504501D0A84201D159
:103B900009690163012141610169C90703D0016914
:103BA00021F001010161BDE8F08F0000002C01400F
:103BB0000004004000080040000C004000340140B8
:103BC00000500140004001400044014000480140D5
:103BD00010B5846842EA032224F47F440A43224356
:103BE000826010BD8268034B1A400A4342F007010D
:103BF000816070478FFFCFFF10B5036A046A24F01D
:103C000001040462846924F0F00444EA021423F0FD
:103C10000A020A438461026210BD10B5036A046A95
:103C200024F010040462846923F0A00324F4704497
:103C300044EA023243EA01118261016210BD0000D0
:103C400030B5416EB9B1026891689268C1F34261C2
:103C50000B4B520F9C5CE50003F10804A25CB5FB22
:103C6000F2F2A0F86A205A5C615CD200B2FBF1F17A
:103C7000A0F8681030BD0121A0F86A10F8E7000034
:103C80006C4C000890F82810090706D501684A68AE
:103C9000836B22F400421A434A6090F82810C90747
:103CA00006D001684A68C36A22F400321A434A60A7
:103CB00090F82810890706D501684A68036B22F43A
:103CC00080321A434A6090F82810490706D50168E7
:103CD0004A68436B22F480221A434A6090F8281005
:103CE000C90606D501688A68C36B22F480521A435C
:103CF0008A6090F82810890606D501688A68036CE6
:103D000022F400521A438A6090F82810490611D50F
:103D100001684A68436C22F480121A434A60416C7D
:103D2000B1F5801F06D101684A68836C22F4C00295
:103D30001A434A6090F82810090606D501684A68B7
:103D4000C06C22F4002202434A6070472DE9F84318
:103D500000260446C0F89060FCF718FE80462068F4
:103D600000684FF0200500076FF07E4713D54346EB
:103D7000002229042046009700F0ACFC58B12168CD
:103D800051E8000F20F0800041E80002002AF6D13F
:103D9000C4F8885021E020680068400722D54346D7
:103DA00000224FF480012046009700F093FCC8B138
:103DB000216851E8000F20F4907041E80002002AC9
:103DC000F6D12068083050E8001F21F0010140E8DA
:103DD0000012002AF5D1C4F88C5084F884600320C6
:103DE000BDE8F883C4F88850C4F88C5044F86C6F70
:103DF000666026760020F3E710B5806A0021A0F8FF
:103E00005E10FDF7F3FF10BD10B5026852E8001F09
:103E100021F4907142E80013002BF6D10E4B02689A
:103E2000083252E8001F194042E80014002CF6D175
:103E3000C16E012908D1016851E8002F22F010025B
:103E400041E80023002BF6D12021C0F88C1000217E
:103E5000C166416710BD0000FEFFFFEF10B5B0F86E
:103E60006020D0F88C300168222B04D0886940F0A3
:103E70000800886110BD496A836D11401980816D09
:103E8000891C8165B0F85E10491EA0F85E10B0F87C
:103E90005E100029EED1026852E8001F21F49071F3
:103EA00042E80013002BF6D10168083151E8002FD9
:103EB00022F0010241E80023002BF5D12021C0F8B7
:103EC0008C10002141670167154B02689A420BD0A4
:103ED0005268120208D5036853E8002F22F080626E
:103EE00043E80024002CF6D1C26E012A02D0FEF76E
:103EF0001BFB10BDC166026852E8001F21F01001D3
:103F000042E80013002BF6D10168CA69D243D206F9
:103F100001D410220A62B0F85C10FDF717FF10BD43
:103F2000008000402DE9F0470446B0F8606000686A
:103F3000C569D0F800A0D0F80890D4F88C102229D8
:103F400005D0816941F008018161BDE8F087B4F8CE
:103F500068704FF0000844E02068406AA16D30406E
:103F60000880A06D801CA065B4F85E00401EA4F817
:103F70005E002068C569690730D0E9070AD05FEAAA
:103F8000CA5107D501210162D4F8900040F0010028
:103F9000C4F89000A8070BD55FEAC97008D0216863
:103FA00002200862D4F8900040F00400C4F89000A9
:103FB00068070BD55FEAC97008D021680420086241
:103FC000D4F8900040F00200C4F89000D4F89000BB
:103FD00020B12046FDF70AFFC4F89080B4F85E00D7
:103FE00000B30FB1A806B7D4B4F85E000028ACD077
:103FF000B4F868108142A8D92068083050E8001F42
:1040000021F0805140E80012002AF5D12A4860676B
:10401000206850E8001F41F0200140E80012002A0B
:10402000F6D192E7216851E8000F20F4807041E852
:104030000002002AF6D1214A2068083050E8001F0B
:10404000114040E80013002BF6D12020C4F88C006A
:10405000C4F874804046C4F87080194A21689142BF
:104060000BD04968090208D5226852E8001F21F0E8
:10407000806142E80013002BF6D1E16E012903D0E4
:104080002046FEF751FAAFE7E066216851E8000FDD
:1040900020F0100041E80002002AF6D12068C16932
:1040A000C943C90601D410210162B4F85C1020464E
:1040B000FDF74CFE98E700005D3E0008FEFFFFEFB5
:1040C0000080004010B5B0F86020D0F88C30016856
:1040D000222B04D0886940F00800886110BD496A2D
:1040E0001140826D1170816D491C8165B0F85E10C0
:1040F000491EA0F85E10B0F85E100029EED10168EC
:1041000051E8002F22F4907241E80023002BF6D1F1
:104110000168083151E8002F22F0010241E8002334
:10412000002BF5D12021C0F88C10002141670167D8
:10413000154B02689A420BD05268120208D50368E8
:1041400053E8002F22F0806243E80024002CF6D1CF
:10415000C26E012A02D0FEF7E7F910BDC1660268FF
:1041600052E8001F21F0100142E80013002BF6D1A5
:104170000168CA69D243D20601D410220A62B0F89B
:104180005C10FDF7E3FD10BD008000402DE9F04715
:104190000446B0F860600068C569D0F800A0D0F8A7
:1041A0000890D4F88C10222905D0816941F00801CB
:1041B0008161BDE8F087B4F868704FF0000844E012
:1041C0002068406AA16D30400870A06D401CA06559
:1041D000B4F85E00401EA4F85E002068C569690757
:1041E00030D0E9070AD05FEACA5107D50121016240
:1041F000D4F8900040F00100C4F89000A8070BD557
:104200005FEAC97008D0216802200862D4F89000E3
:1042100040F00400C4F8900068070BD55FEAC9704D
:1042200008D0216804200862D4F8900040F0020011
:10423000C4F89000D4F8900020B12046FDF7D6FDD8
:10424000C4F89080B4F85E0000B30FB1A806B7D4EC
:10425000B4F85E000028ACD0B4F868108142A8D948
:104260002068083050E8001F21F0805140E800121B
:10427000002AF5D12A486067216851E8000F40F014
:10428000200041E80002002AF6D192E7216851E8B7
:10429000000F20F4807041E80002002AF6D1214A84
:1042A0002068083050E8001F114040E80013002B40
:1042B000F6D12020C4F88C00C4F874804046C4F8BD
:1042C0007080194A216891420BD04968090208D5CB
:1042D000226852E8001F21F0806142E80013002BA1
:1042E000F6D1E16E012903D02046FEF71DF9AFE7B4
:1042F000E066206850E8001F21F0100140E800123D
:10430000002AF6D12068C169C943C90601D4102129
:104310000162B4F85C102046FDF718FD98E7000034
:10432000C5400008FEFFFFEF008000402DE9F0418E
:104330000446016880682269E369104362690025C8
:104340001A431043DFF84CC20A68934B1A400243E9
:104350000A6020684168E26821F4405111434160DD
:104360002168A069614501D0226A10438A688B4B9D
:104370001A4002438A602068C16A626A21F00F0114
:104380001143C1628649236886488B420DD1D0F81B
:10439000880010F0030006D0012867D0022854D00E
:1043A000032851D164E001204FE07F498B420BD1BB
:1043B000D0F8880010F00C0047D0042845D0082819
:1043C00052D00C2840D153E078498B420BD1D0F821
:1043D000880010F0300038D0102847D0202843D073
:1043E000302831D144E072498B420BD1D0F888009B
:1043F00010F0C00029D0402838D0802834D0C02800
:1044000022D135E06B498B420ED1D0F8880010F4F0
:1044100040701AD0B0F5807F28D0B0F5007F23D04F
:10442000B0F5407F10D123E063450DD1D0F888006E
:1044300010F4406009D0B0F5806F17D0B0F5006F70
:1044400012D0B0F5406F13D010205B4A5B4F0026AE
:104450004FF40041634539D160B102280DD00428E2
:104460000DD0082831D10EE00220EEE70420ECE761
:104470000820EAE7FCF7E8FE03E0114603E0FCF75A
:1044800007FF01007BD0606A37F810206768B1FB36
:10449000F2F007EB4703834269D8B0EB073F66D8D9
:1044A000002308461946FBF7B3FE090241EA1061F2
:1044B00002027808101871413A460023FBF7A8FE63
:1044C0003F4AA0F54071914257D950E0E3694FF659
:1044D000EF788B422BD1092849D2DFE800F005089C
:1044E0000D48254848480E00FCF7AEFE01E0FCF7F9
:1044F000BDFE010001D142E01146606A37F81000AC
:10450000B1FBF0F04100606801EB5001B1FBF0F14C
:10451000A1F1100040452AD84FF6F07201EA0200DE
:10452000C1F34201084328E0FCF7B2FEE1E70928A5
:104530001DD2DFE800F005080D1C1E1C1C1C0E001F
:10454000FCF782FE01E0FCF791FE010001D116E0CC
:104550001146606A37F81000B1FBF0F1606801EBBA
:104560005001B1FBF0F0A0F11001414504D9012543
:1045700005E0FCF78DFEE8E780B22168C860012005
:10458000A4F86A0024F8680F2846E6602661BDE8B2
:10459000F081000000800040F369FFCFFFF4FF11BD
:1045A0000038014000100240004400400048004034
:1045B000004C0040005000400024F400544C00081F
:1045C000FFFC0F0070B58165A0F85C20A0F85E20AC
:1045D0000023436781684FF48056FF24B14204D121
:1045E0000169F9B940F2FF1122E07F25C1B1B1F1B3
:1045F000805F1AD0A0F86030C0F890302221C0F857
:104600008C100168083151E8003F43F0010341E894
:104610000034002CF5D1416EB1F1005F0ED031E0D5
:10462000016941B9A0F86040E6E7016919B13F218D
:10463000A0F86010E0E7A0F86050DDE7B0F868107F
:1046400091421FD88168B14201D10169B9B11D49B8
:104650004167016941B1026852E8001F41F480716D
:1046600042E80013002BF6D10168083151E8002F11
:1046700042F0805241E80023002BF5D120E012499E
:104680004167F1E78168B14201D1016969B10F4920
:104690004167016959B1026852E8001F41F4907105
:1046A00042E80013002BF6D10AE00949416702688D
:1046B00052E8001F41F0200142E80013002BF6D120
:1046C000002070BD8D410008253F0008C54000084E
:1046D0005D3E00082DE9F047994617460D46044611
:1046E0004FF00008089E33E0701C31D0FCF74EF903
:1046F000A0EB0900B04218D8BEB120680168490794
:1047000026D5802D24D0402D22D0C169C943090768
:104710000DD4082505622046FFF776FBC4F89050BB
:1047200084F884800120BDE8F0870320FBE7C0699E
:10473000C04300050CD421684FF400600862204695
:10474000FFF762FB2020C4F8900084F88480ECE737
:104750002068C06935EA000004D00020B842C3D008
:104760000020E0E70120F9E70148FDF741BB000028
:10477000C40200200148FDF73BBB000058030020A5
:10478000FEE72DE9FC4115466C4606460A461F46E3
:104790002046611CFDF74CFF2A46E11CA01CFDF7DA
:1047A00047FF3A46611D201DFDF742FF06236A467A
:1047B0002A21304600F072F8BDE8FC810907090E95
:1047C000002804DB00F1E02080F80014704700F0BE
:1047D0000F0000F1E02080F8141D704702E008C8C7
:1047E000121F08C1002AFAD170477047002001E06B
:1047F00001C1121F002AFBD1704738B5002425469D
:104800000121684600F073F900280FD09DF80010D0
:10481000E0B260F30F2461F30704FF2901D1FF2800
:1048200005D06D1CEDB20A2DEAD9002038BD01205B
:1048300038BD000070B5094DFF22134605F580769E
:1048400006E000BF10F8014B54402A5D5A40335D2A
:10485000491E89B2F6D243EA022070BD944C00088A
:104860000120FBF70BBE000010B50C468AB20146D2
:1048700014230448FDF7C0FD08B1002010BD2046F8
:1048800010BD00009C0100208AB201464FF47A73EB
:104890000148FDF773BE00009C010020F8B51C46DE
:1048A00015460E46074600F013F9032000902346F4
:1048B0002A463146384600F059F900F047F93846A3
:1048C000BDE8F840FBF72ABD10B500231A4603E007
:1048D000845C521C234492B28A42F9D3D8B210BDF0
:1048E000162905D30178AA2902D14178552901D08A
:1048F00000207047B0F807101180B0F809105180FF
:1049000090F90B1091808189D180817B037C41EAF1
:1049100003211181C07B9072012070472DE9F8437B
:104920001F4690460D468146FCF730F806460020AB
:104930008DF800000BE001226946484600F0EBF8D4
:1049400030B16CB124B19DF8000055280FD000247F
:10495000FCF71CF8801BB842EDD3022C2ED107E0E7
:104960009DF80000AA28F3D128700124F0E76870B0
:104970000322A91C484600F0CEF800281FD0AC78CE
:104980000026A41C09E0A91903224846C91C00F00E
:10499000C2F8002813D0761CB6B2A642F3D3002288
:1049A0000220A11C04E02B5C401C1A44D2B280B24D
:1049B0008142F8D828198078904202D00020BDE8C2
:1049C000F883E41CA8F800400120F8E7084B10B574
:1049D00003EB40000C884480C2814A8882808A8828
:1049E000C280CA8802810A898281897A418110BD88
:1049F000800600202DE9F84F1E46DDE90AA8914601
:104A00000F4604001BD02068C8B1A26812B1207BF9
:104A10000121904725680023012269462846FDF7B9
:104A2000EBFC0028F7D00A234A4639462068FDF7F8
:104A3000A5FD38B1A26812B1207B0021904700206B
:104A4000BDE8F88F4346524631462068FFF766FFBF
:104A5000A268054612B1207B002190472846EFE767
:104A6000FCF794F8FEF7DBFFFEF73CFAFEF7ACFA32
:104A7000FEF78EFBFEF7C0FBFEF7F2FBFEF724FC11
:104A8000FEF75CFCFEF708FAFEF704FBFEF770FA8F
:104A9000FEF7CCFAFEF734FBFEF756FB4FF47A70C4
:104AA000FBF7ECFC0648FCF771FF0648FCF76EFFCD
:104AB0000548FCF76BFF054C206880476068FCE701
:104AC000CC040020800400201805002014000020E1
:104AD000FFF7C6BE08B501236A46FEF779FC012838
:104AE00002D04FF0FF3008BD9DF8000008BDFFF771
:104AF000BBBE08B502236A46FEF76AFC022802D054
:104B00004FF0FF3008BD9DF801109DF80000FEF742
:104B100035FD80B208BD10B513460122FDF76CFCCF
:104B200008B1002010BD012010BD000001494870EF
:104B300070470000200000200348B0F8B40200B91C
:104B40000120C0B2704700008006002010B5054C5F
:104B50002178002904D00448FFF796FE0020207039
:104B600010BD000040000020D90E00202DE9FF47B5
:104B70008046DDF830904FF000008DF808004FF0CF
:104B8000FF008DF800008DF801001C4615000F464F
:104B90004FF002068DF802808DF8049007D0E01CDB
:104BA000C6B28DF803608DF80570062102E08DF81D
:104BB00003600521684600F039F808EB060101EBB7
:104BC000090038448DF808007DB1002107E0685CD9
:104BD0009DF80820491C10448DF80800C9B2A14274
:104BE000F5D32146284600F021F89DF80800012160
:104BF000C0438DF8080002A800F018F8BDE8FF8750
:104C000037B582B00C460546FFF762FF03200090DF
:104C1000012304AA21462846FFF7A8FFFFF796FFC5
:104C20002846FBF77BFB05B030BD000030B5074BD5
:104C3000074C07E01A78802A04D210F8015BA554CB
:104C4000521C1A70491EF5D2187830BD4000002061
:104C5000D90E0020010002000400060008000A002E
:104C60000C00100020004000800000010101010341
:104C7000070100000804020408010101000000000F
:104C800000000000010203040607080900000000FC
:104C90000102030400C1814001C0804101C0804184
:104CA00000C1814001C0804100C1814000C18140FC
:104CB00001C0804101C0804100C1814000C18140EC
:104CC00001C0804100C1814001C0804101C08041DC
:104CD00000C1814001C0804100C1814000C18140CC
:104CE00001C0804100C1814001C0804101C08041BC
:104CF00000C1814000C1814001C0804101C08041AC
:104D000000C1814001C0804100C1814000C181409B
:104D100001C0804101C0804100C1814000C181408B
:104D200001C0804100C1814001C0804101C080417B
:104D300000C1814000C1814001C0804101C080416B
:104D400000C1814001C0804100C1814000C181405B
:104D500001C0804100C1814001C0804101C080414B
:104D600000C1814001C0804100C1814000C181403B
:104D700001C0804101C0804100C1814000C181402B
:104D800001C0804100C1814001C0804101C080411B
:104D900000C1814000C0C101C30302C2C60607C7EB
:104DA00005C5C404CC0C0DCD0FCFCE0E0ACACB0B5B
:104DB000C90908C8D81819D91BDBDA1A1EDEDF1F8B
:104DC000DD1D1CDC14D4D515D71716D6D21213D37B
:104DD00011D1D010F03031F133F3F23236F6F7372B
:104DE000F53534F43CFCFD3DFF3F3EFEFA3A3BFB1B
:104DF00039F9F83828E8E929EB2B2AEAEE2E2FEFCB
:104E00002DEDEC2CE42425E527E7E62622E2E3233A
:104E1000E12120E0A06061A163A3A26266A6A7676A
:104E2000A56564A46CACAD6DAF6F6EAEAA6A6BABDA
:104E300069A9A86878B8B979BB7B7ABABE7E7FBF0A
:104E40007DBDBC7CB47475B577B7B67672B2B373FA
:104E5000B17170B0509091519353529296565797AA
:104E6000559594549C5C5D9D5F9F9E5E5A9A9B5B9A
:104E700099595898884849894B8B8A4A4E8E8F4F4A
:104E80008D4D4C8C448485458747468682424383BA
:104E900041818040B44E0008000000205000000016
:104EA000DC470008044F0008500000208013000079
:104EB000EC470008000000001000000001000000A6
:104EC000000000000024F400C3330008993A0008F1
:104ED00000000000010000000000000000000000D1
:104EE00000000000000000000000000000000000C2
:104EF000000000000000000100000F0000000000A2
:044F000000000000AD
:04000005080001D915
:00000001FF
